{
  "contractName": "BitMapMock",
  "abi": [
    {
      "inputs": [
        {
          "internalType": "uint256",
          "name": "index",
          "type": "uint256"
        }
      ],
      "name": "get",
      "outputs": [
        {
          "internalType": "bool",
          "name": "",
          "type": "bool"
        }
      ],
      "stateMutability": "view",
      "type": "function"
    },
    {
      "inputs": [
        {
          "internalType": "uint256",
          "name": "index",
          "type": "uint256"
        },
        {
          "internalType": "bool",
          "name": "value",
          "type": "bool"
        }
      ],
      "name": "setTo",
      "outputs": [],
      "stateMutability": "nonpayable",
      "type": "function"
    },
    {
      "inputs": [
        {
          "internalType": "uint256",
          "name": "index",
          "type": "uint256"
        }
      ],
      "name": "set",
      "outputs": [],
      "stateMutability": "nonpayable",
      "type": "function"
    },
    {
      "inputs": [
        {
          "internalType": "uint256",
          "name": "index",
          "type": "uint256"
        }
      ],
      "name": "unset",
      "outputs": [],
      "stateMutability": "nonpayable",
      "type": "function"
    }
  ],
  "bytecode": "0x608060405234801561001057600080fd5b50610422806100206000396000f3fe608060405234801561001057600080fd5b506004361061004c5760003560e01c8063088d22551461005157806360fe47b11461006d5780639507d39a14610089578063dcc9d43c146100b9575b600080fd5b61006b6004803603810190610066919061028c565b6100d5565b005b6100876004803603810190610082919061028c565b6100ec565b005b6100a3600480360381019061009e919061028c565b610103565b6040516100b091906102d4565b60405180910390f35b6100d360048036038101906100ce919061031b565b610120565b005b6100e981600061013a90919063ffffffff16565b50565b61010081600061018c90919063ffffffff16565b50565b60006101198260006101dd90919063ffffffff16565b9050919050565b6101368282600061022c9092919063ffffffff16565b5050565b60006101008261014a919061038a565b905060006101008361015c91906103bb565b6001901b905080198460000160008481526020019081526020016000206000828254169250508190555050505050565b60006101008261019c919061038a565b90506000610100836101ae91906103bb565b6001901b9050808460000160008481526020019081526020016000206000828254179250508190555050505050565b600080610100836101ee919061038a565b905060006101008461020091906103bb565b6001901b9050600081866000016000858152602001908152602001600020541614159250505092915050565b80156102415761023c838361018c565b61024c565b61024b838361013a565b5b505050565b600080fd5b6000819050919050565b61026981610256565b811461027457600080fd5b50565b60008135905061028681610260565b92915050565b6000602082840312156102a2576102a1610251565b5b60006102b084828501610277565b91505092915050565b60008115159050919050565b6102ce816102b9565b82525050565b60006020820190506102e960008301846102c5565b92915050565b6102f8816102b9565b811461030357600080fd5b50565b600081359050610315816102ef565b92915050565b6000806040838503121561033257610331610251565b5b600061034085828601610277565b925050602061035185828601610306565b9150509250929050565b7f4e487b7100000000000000000000000000000000000000000000000000000000600052601260045260246000fd5b600061039582610256565b91506103a083610256565b9250826103b0576103af61035b565b5b828204905092915050565b60006103c682610256565b91506103d183610256565b9250826103e1576103e061035b565b5b82820690509291505056fea26469706673582212208b83347cb70a84826bf09e8ff21257bcaf367bc1f8f67c45eafd667d3c29b72a64736f6c634300080a0033",
  "immutableReferences": {},
  "source": "// SPDX-License-Identifier: MIT\r\n\r\npragma solidity ^0.8.0;\r\n\r\nimport \"../utils/structs/BitMaps.sol\";\r\n\r\ncontract BitMapMock {\r\n    using BitMaps for BitMaps.BitMap;\r\n\r\n    BitMaps.BitMap private _bitmap;\r\n\r\n    function get(uint256 index) public view returns (bool) {\r\n        return _bitmap.get(index);\r\n    }\r\n\r\n    function setTo(uint256 index, bool value) public {\r\n        _bitmap.setTo(index, value);\r\n    }\r\n\r\n    function set(uint256 index) public {\r\n        _bitmap.set(index);\r\n    }\r\n\r\n    function unset(uint256 index) public {\r\n        _bitmap.unset(index);\r\n    }\r\n}\r\n",
  "sourcePath": "/home/a/Desktop/pre/contracts/openzeppelin-contracts-master/contracts/mocks/BitmapMock.sol",
  "compiler": {
    "name": "solc",
    "version": "0.8.10+commit.fc410830.Emscripten.clang"
  },
  "schemaVersion": "3.4.3",
  "updatedAt": "2021-12-13T12:22:05.978Z",
  "devdoc": {
    "kind": "dev",
    "methods": {},
    "version": 1
  },
  "userdoc": {
    "kind": "user",
    "methods": {},
    "version": 1
  }
}