{
  "contractName": "Debt_NFT",
  "abi": [
    {
      "inputs": [
        {
          "internalType": "address",
          "name": "mintTo",
          "type": "address"
        },
        {
          "internalType": "uint256",
          "name": "toReturn",
          "type": "uint256"
        }
      ],
      "stateMutability": "nonpayable",
      "type": "constructor"
    },
    {
      "anonymous": false,
      "inputs": [
        {
          "indexed": true,
          "internalType": "address",
          "name": "owner",
          "type": "address"
        },
        {
          "indexed": true,
          "internalType": "address",
          "name": "approved",
          "type": "address"
        },
        {
          "indexed": true,
          "internalType": "uint256",
          "name": "tokenId",
          "type": "uint256"
        }
      ],
      "name": "Approval",
      "type": "event"
    },
    {
      "anonymous": false,
      "inputs": [
        {
          "indexed": true,
          "internalType": "address",
          "name": "owner",
          "type": "address"
        },
        {
          "indexed": true,
          "internalType": "address",
          "name": "operator",
          "type": "address"
        },
        {
          "indexed": false,
          "internalType": "bool",
          "name": "approved",
          "type": "bool"
        }
      ],
      "name": "ApprovalForAll",
      "type": "event"
    },
    {
      "anonymous": false,
      "inputs": [
        {
          "indexed": true,
          "internalType": "address",
          "name": "from",
          "type": "address"
        },
        {
          "indexed": true,
          "internalType": "address",
          "name": "to",
          "type": "address"
        },
        {
          "indexed": true,
          "internalType": "uint256",
          "name": "tokenId",
          "type": "uint256"
        }
      ],
      "name": "Transfer",
      "type": "event"
    },
    {
      "inputs": [
        {
          "internalType": "address",
          "name": "to",
          "type": "address"
        },
        {
          "internalType": "uint256",
          "name": "tokenId",
          "type": "uint256"
        }
      ],
      "name": "approve",
      "outputs": [],
      "stateMutability": "nonpayable",
      "type": "function"
    },
    {
      "inputs": [
        {
          "internalType": "address",
          "name": "owner",
          "type": "address"
        }
      ],
      "name": "balanceOf",
      "outputs": [
        {
          "internalType": "uint256",
          "name": "",
          "type": "uint256"
        }
      ],
      "stateMutability": "view",
      "type": "function"
    },
    {
      "inputs": [
        {
          "internalType": "uint256",
          "name": "tokenId",
          "type": "uint256"
        }
      ],
      "name": "getApproved",
      "outputs": [
        {
          "internalType": "address",
          "name": "",
          "type": "address"
        }
      ],
      "stateMutability": "view",
      "type": "function"
    },
    {
      "inputs": [
        {
          "internalType": "address",
          "name": "owner",
          "type": "address"
        },
        {
          "internalType": "address",
          "name": "operator",
          "type": "address"
        }
      ],
      "name": "isApprovedForAll",
      "outputs": [
        {
          "internalType": "bool",
          "name": "",
          "type": "bool"
        }
      ],
      "stateMutability": "view",
      "type": "function"
    },
    {
      "inputs": [],
      "name": "name",
      "outputs": [
        {
          "internalType": "string",
          "name": "",
          "type": "string"
        }
      ],
      "stateMutability": "view",
      "type": "function"
    },
    {
      "inputs": [
        {
          "internalType": "uint256",
          "name": "tokenId",
          "type": "uint256"
        }
      ],
      "name": "ownerOf",
      "outputs": [
        {
          "internalType": "address",
          "name": "",
          "type": "address"
        }
      ],
      "stateMutability": "view",
      "type": "function"
    },
    {
      "inputs": [
        {
          "internalType": "address",
          "name": "from",
          "type": "address"
        },
        {
          "internalType": "address",
          "name": "to",
          "type": "address"
        },
        {
          "internalType": "uint256",
          "name": "tokenId",
          "type": "uint256"
        }
      ],
      "name": "safeTransferFrom",
      "outputs": [],
      "stateMutability": "nonpayable",
      "type": "function"
    },
    {
      "inputs": [
        {
          "internalType": "address",
          "name": "from",
          "type": "address"
        },
        {
          "internalType": "address",
          "name": "to",
          "type": "address"
        },
        {
          "internalType": "uint256",
          "name": "tokenId",
          "type": "uint256"
        },
        {
          "internalType": "bytes",
          "name": "_data",
          "type": "bytes"
        }
      ],
      "name": "safeTransferFrom",
      "outputs": [],
      "stateMutability": "nonpayable",
      "type": "function"
    },
    {
      "inputs": [
        {
          "internalType": "address",
          "name": "operator",
          "type": "address"
        },
        {
          "internalType": "bool",
          "name": "approved",
          "type": "bool"
        }
      ],
      "name": "setApprovalForAll",
      "outputs": [],
      "stateMutability": "nonpayable",
      "type": "function"
    },
    {
      "inputs": [
        {
          "internalType": "bytes4",
          "name": "interfaceId",
          "type": "bytes4"
        }
      ],
      "name": "supportsInterface",
      "outputs": [
        {
          "internalType": "bool",
          "name": "",
          "type": "bool"
        }
      ],
      "stateMutability": "view",
      "type": "function"
    },
    {
      "inputs": [],
      "name": "symbol",
      "outputs": [
        {
          "internalType": "string",
          "name": "",
          "type": "string"
        }
      ],
      "stateMutability": "view",
      "type": "function"
    },
    {
      "inputs": [
        {
          "internalType": "uint256",
          "name": "tokenId",
          "type": "uint256"
        }
      ],
      "name": "tokenURI",
      "outputs": [
        {
          "internalType": "string",
          "name": "",
          "type": "string"
        }
      ],
      "stateMutability": "view",
      "type": "function"
    },
    {
      "inputs": [
        {
          "internalType": "address",
          "name": "from",
          "type": "address"
        },
        {
          "internalType": "address",
          "name": "to",
          "type": "address"
        },
        {
          "internalType": "uint256",
          "name": "tokenId",
          "type": "uint256"
        }
      ],
      "name": "transferFrom",
      "outputs": [],
      "stateMutability": "nonpayable",
      "type": "function"
    },
    {
      "inputs": [],
      "name": "getOwner",
      "outputs": [
        {
          "internalType": "address",
          "name": "",
          "type": "address"
        }
      ],
      "stateMutability": "view",
      "type": "function"
    },
    {
      "inputs": [],
      "name": "leftToPay",
      "outputs": [
        {
          "internalType": "uint256",
          "name": "",
          "type": "uint256"
        }
      ],
      "stateMutability": "view",
      "type": "function"
    },
    {
      "inputs": [
        {
          "internalType": "uint256",
          "name": "amt",
          "type": "uint256"
        }
      ],
      "name": "pay",
      "outputs": [
        {
          "internalType": "bool",
          "name": "",
          "type": "bool"
        }
      ],
      "stateMutability": "nonpayable",
      "type": "function"
    }
  ],
  "bytecode": "0x60806040523480156200001157600080fd5b5060405162002d3f38038062002d3f8339818101604052810190620000379190620004ed565b6040518060400160405280601481526020017f537461626c65546f6b656e5f446562745f4e46540000000000000000000000008152506040518060400160405280600681526020017f537461626c6500000000000000000000000000000000000000000000000000008152508160009080519060200190620000bb92919062000398565b508060019080519060200190620000d492919062000398565b505050620000ea8260016200014160201b60201c565b806006819055508060078190555033600860006101000a81548173ffffffffffffffffffffffffffffffffffffffff021916908373ffffffffffffffffffffffffffffffffffffffff16021790555050506200071a565b600073ffffffffffffffffffffffffffffffffffffffff168273ffffffffffffffffffffffffffffffffffffffff161415620001b4576040517f08c379a0000000000000000000000000000000000000000000000000000000008152600401620001ab9062000595565b60405180910390fd5b620001c5816200032760201b60201c565b1562000208576040517f08c379a0000000000000000000000000000000000000000000000000000000008152600401620001ff9062000607565b60405180910390fd5b6200021c600083836200039360201b60201c565b6001600360008473ffffffffffffffffffffffffffffffffffffffff1673ffffffffffffffffffffffffffffffffffffffff16815260200190815260200160002060008282546200026e919062000658565b92505081905550816002600083815260200190815260200160002060006101000a81548173ffffffffffffffffffffffffffffffffffffffff021916908373ffffffffffffffffffffffffffffffffffffffff160217905550808273ffffffffffffffffffffffffffffffffffffffff16600073ffffffffffffffffffffffffffffffffffffffff167fddf252ad1be2c89b69c2b068fc378daa952ba7f163c4a11628f55a4df523b3ef60405160405180910390a45050565b60008073ffffffffffffffffffffffffffffffffffffffff166002600084815260200190815260200160002060009054906101000a900473ffffffffffffffffffffffffffffffffffffffff1673ffffffffffffffffffffffffffffffffffffffff1614159050919050565b505050565b828054620003a690620006e4565b90600052602060002090601f016020900481019282620003ca576000855562000416565b82601f10620003e557805160ff191683800117855562000416565b8280016001018555821562000416579182015b8281111562000415578251825591602001919060010190620003f8565b5b50905062000425919062000429565b5090565b5b80821115620004445760008160009055506001016200042a565b5090565b600080fd5b600073ffffffffffffffffffffffffffffffffffffffff82169050919050565b60006200047a826200044d565b9050919050565b6200048c816200046d565b81146200049857600080fd5b50565b600081519050620004ac8162000481565b92915050565b6000819050919050565b620004c781620004b2565b8114620004d357600080fd5b50565b600081519050620004e781620004bc565b92915050565b6000806040838503121562000507576200050662000448565b5b600062000517858286016200049b565b92505060206200052a85828601620004d6565b9150509250929050565b600082825260208201905092915050565b7f4552433732313a206d696e7420746f20746865207a65726f2061646472657373600082015250565b60006200057d60208362000534565b91506200058a8262000545565b602082019050919050565b60006020820190508181036000830152620005b0816200056e565b9050919050565b7f4552433732313a20746f6b656e20616c7265616479206d696e74656400000000600082015250565b6000620005ef601c8362000534565b9150620005fc82620005b7565b602082019050919050565b600060208201905081810360008301526200062281620005e0565b9050919050565b7f4e487b7100000000000000000000000000000000000000000000000000000000600052601160045260246000fd5b60006200066582620004b2565b91506200067283620004b2565b9250827fffffffffffffffffffffffffffffffffffffffffffffffffffffffffffffffff03821115620006aa57620006a962000629565b5b828201905092915050565b7f4e487b7100000000000000000000000000000000000000000000000000000000600052602260045260246000fd5b60006002820490506001821680620006fd57607f821691505b60208210811415620007145762000713620006b5565b5b50919050565b612615806200072a6000396000f3fe608060405234801561001057600080fd5b50600436106101005760003560e01c8063893d20e811610097578063b88d4fde11610066578063b88d4fde146102ad578063c290d691146102c9578063c87b56dd146102f9578063e985e9c51461032957610100565b8063893d20e81461023757806395d89b4114610255578063a22cb46514610273578063b0210a271461028f57610100565b806323b872dd116100d357806323b872dd1461019f57806342842e0e146101bb5780636352211e146101d757806370a082311461020757610100565b806301ffc9a71461010557806306fdde0314610135578063081812fc14610153578063095ea7b314610183575b600080fd5b61011f600480360381019061011a91906115ce565b610359565b60405161012c9190611616565b60405180910390f35b61013d61043b565b60405161014a91906116ca565b60405180910390f35b61016d60048036038101906101689190611722565b6104cd565b60405161017a9190611790565b60405180910390f35b61019d600480360381019061019891906117d7565b610552565b005b6101b960048036038101906101b49190611817565b61066a565b005b6101d560048036038101906101d09190611817565b6106ca565b005b6101f160048036038101906101ec9190611722565b6106ea565b6040516101fe9190611790565b60405180910390f35b610221600480360381019061021c919061186a565b61079c565b60405161022e91906118a6565b60405180910390f35b61023f610854565b60405161024c9190611790565b60405180910390f35b61025d6108d6565b60405161026a91906116ca565b60405180910390f35b61028d600480360381019061028891906118ed565b610968565b005b610297610ae9565b6040516102a491906118a6565b60405180910390f35b6102c760048036038101906102c29190611a62565b610af3565b005b6102e360048036038101906102de9190611722565b610b55565b6040516102f09190611616565b60405180910390f35b610313600480360381019061030e9190611722565b610be2565b60405161032091906116ca565b60405180910390f35b610343600480360381019061033e9190611ae5565b610c89565b6040516103509190611616565b60405180910390f35b60007f80ac58cd000000000000000000000000000000000000000000000000000000007bffffffffffffffffffffffffffffffffffffffffffffffffffffffff1916827bffffffffffffffffffffffffffffffffffffffffffffffffffffffff1916148061042457507f5b5e139f000000000000000000000000000000000000000000000000000000007bffffffffffffffffffffffffffffffffffffffffffffffffffffffff1916827bffffffffffffffffffffffffffffffffffffffffffffffffffffffff1916145b80610434575061043382610d1d565b5b9050919050565b60606000805461044a90611b54565b80601f016020809104026020016040519081016040528092919081815260200182805461047690611b54565b80156104c35780601f10610498576101008083540402835291602001916104c3565b820191906000526020600020905b8154815290600101906020018083116104a657829003601f168201915b5050505050905090565b60006104d882610d87565b610517576040517f08c379a000000000000000000000000000000000000000000000000000000000815260040161050e90611bf8565b60405180910390fd5b6004600083815260200190815260200160002060009054906101000a900473ffffffffffffffffffffffffffffffffffffffff169050919050565b600061055d826106ea565b90508073ffffffffffffffffffffffffffffffffffffffff168373ffffffffffffffffffffffffffffffffffffffff1614156105ce576040517f08c379a00000000000000000000000000000000000000000000000000000000081526004016105c590611c8a565b60405180910390fd5b8073ffffffffffffffffffffffffffffffffffffffff166105ed610df3565b73ffffffffffffffffffffffffffffffffffffffff16148061061c575061061b81610616610df3565b610c89565b5b61065b576040517f08c379a000000000000000000000000000000000000000000000000000000000815260040161065290611d1c565b60405180910390fd5b6106658383610dfb565b505050565b61067b610675610df3565b82610eb4565b6106ba576040517f08c379a00000000000000000000000000000000000000000000000000000000081526004016106b190611dae565b60405180910390fd5b6106c5838383610f92565b505050565b6106e583838360405180602001604052806000815250610af3565b505050565b6000806002600084815260200190815260200160002060009054906101000a900473ffffffffffffffffffffffffffffffffffffffff169050600073ffffffffffffffffffffffffffffffffffffffff168173ffffffffffffffffffffffffffffffffffffffff161415610793576040517f08c379a000000000000000000000000000000000000000000000000000000000815260040161078a90611e40565b60405180910390fd5b80915050919050565b60008073ffffffffffffffffffffffffffffffffffffffff168273ffffffffffffffffffffffffffffffffffffffff16141561080d576040517f08c379a000000000000000000000000000000000000000000000000000000000815260040161080490611ed2565b60405180910390fd5b600360008373ffffffffffffffffffffffffffffffffffffffff1673ffffffffffffffffffffffffffffffffffffffff168152602001908152602001600020549050919050565b60003073ffffffffffffffffffffffffffffffffffffffff16636352211e60016040518263ffffffff1660e01b81526004016108909190611f37565b602060405180830381865afa1580156108ad573d6000803e3d6000fd5b505050506040513d601f19601f820116820180604052508101906108d19190611f67565b905090565b6060600180546108e590611b54565b80601f016020809104026020016040519081016040528092919081815260200182805461091190611b54565b801561095e5780601f106109335761010080835404028352916020019161095e565b820191906000526020600020905b81548152906001019060200180831161094157829003601f168201915b5050505050905090565b610970610df3565b73ffffffffffffffffffffffffffffffffffffffff168273ffffffffffffffffffffffffffffffffffffffff1614156109de576040517f08c379a00000000000000000000000000000000000000000000000000000000081526004016109d590611fe0565b60405180910390fd5b80600560006109eb610df3565b73ffffffffffffffffffffffffffffffffffffffff1673ffffffffffffffffffffffffffffffffffffffff16815260200190815260200160002060008473ffffffffffffffffffffffffffffffffffffffff1673ffffffffffffffffffffffffffffffffffffffff16815260200190815260200160002060006101000a81548160ff0219169083151502179055508173ffffffffffffffffffffffffffffffffffffffff16610a98610df3565b73ffffffffffffffffffffffffffffffffffffffff167f17307eab39ab6107e8899845ad3d59bd9653f200f220920489ca2b5937696c3183604051610add9190611616565b60405180910390a35050565b6000600754905090565b610b04610afe610df3565b83610eb4565b610b43576040517f08c379a0000000000000000000000000000000000000000000000000000000008152600401610b3a90611dae565b60405180910390fd5b610b4f848484846111ee565b50505050565b6000600860009054906101000a900473ffffffffffffffffffffffffffffffffffffffff1673ffffffffffffffffffffffffffffffffffffffff163373ffffffffffffffffffffffffffffffffffffffff1614610bb157600080fd5b600754821115610bc057600080fd5b8160076000828254610bd2919061202f565b9250508190555060019050919050565b6060610bed82610d87565b610c2c576040517f08c379a0000000000000000000000000000000000000000000000000000000008152600401610c23906120d5565b60405180910390fd5b6000610c3661124a565b90506000815111610c565760405180602001604052806000815250610c81565b80610c6084611261565b604051602001610c71929190612131565b6040516020818303038152906040525b915050919050565b6000600560008473ffffffffffffffffffffffffffffffffffffffff1673ffffffffffffffffffffffffffffffffffffffff16815260200190815260200160002060008373ffffffffffffffffffffffffffffffffffffffff1673ffffffffffffffffffffffffffffffffffffffff16815260200190815260200160002060009054906101000a900460ff16905092915050565b60007f01ffc9a7000000000000000000000000000000000000000000000000000000007bffffffffffffffffffffffffffffffffffffffffffffffffffffffff1916827bffffffffffffffffffffffffffffffffffffffffffffffffffffffff1916149050919050565b60008073ffffffffffffffffffffffffffffffffffffffff166002600084815260200190815260200160002060009054906101000a900473ffffffffffffffffffffffffffffffffffffffff1673ffffffffffffffffffffffffffffffffffffffff1614159050919050565b600033905090565b816004600083815260200190815260200160002060006101000a81548173ffffffffffffffffffffffffffffffffffffffff021916908373ffffffffffffffffffffffffffffffffffffffff160217905550808273ffffffffffffffffffffffffffffffffffffffff16610e6e836106ea565b73ffffffffffffffffffffffffffffffffffffffff167f8c5be1e5ebec7d5bd14f71427d1e84f3dd0314c0f7b2291e5b200ac8c7c3b92560405160405180910390a45050565b6000610ebf82610d87565b610efe576040517f08c379a0000000000000000000000000000000000000000000000000000000008152600401610ef5906121c7565b60405180910390fd5b6000610f09836106ea565b90508073ffffffffffffffffffffffffffffffffffffffff168473ffffffffffffffffffffffffffffffffffffffff161480610f7857508373ffffffffffffffffffffffffffffffffffffffff16610f60846104cd565b73ffffffffffffffffffffffffffffffffffffffff16145b80610f895750610f888185610c89565b5b91505092915050565b8273ffffffffffffffffffffffffffffffffffffffff16610fb2826106ea565b73ffffffffffffffffffffffffffffffffffffffff1614611008576040517f08c379a0000000000000000000000000000000000000000000000000000000008152600401610fff90612259565b60405180910390fd5b600073ffffffffffffffffffffffffffffffffffffffff168273ffffffffffffffffffffffffffffffffffffffff161415611078576040517f08c379a000000000000000000000000000000000000000000000000000000000815260040161106f906122eb565b60405180910390fd5b6110838383836113c2565b61108e600082610dfb565b6001600360008573ffffffffffffffffffffffffffffffffffffffff1673ffffffffffffffffffffffffffffffffffffffff16815260200190815260200160002060008282546110de919061202f565b925050819055506001600360008473ffffffffffffffffffffffffffffffffffffffff1673ffffffffffffffffffffffffffffffffffffffff1681526020019081526020016000206000828254611135919061230b565b92505081905550816002600083815260200190815260200160002060006101000a81548173ffffffffffffffffffffffffffffffffffffffff021916908373ffffffffffffffffffffffffffffffffffffffff160217905550808273ffffffffffffffffffffffffffffffffffffffff168473ffffffffffffffffffffffffffffffffffffffff167fddf252ad1be2c89b69c2b068fc378daa952ba7f163c4a11628f55a4df523b3ef60405160405180910390a4505050565b6111f9848484610f92565b611205848484846113c7565b611244576040517f08c379a000000000000000000000000000000000000000000000000000000000815260040161123b906123d3565b60405180910390fd5b50505050565b606060405180602001604052806000815250905090565b606060008214156112a9576040518060400160405280600181526020017f300000000000000000000000000000000000000000000000000000000000000081525090506113bd565b600082905060005b600082146112db5780806112c4906123f3565b915050600a826112d4919061246b565b91506112b1565b60008167ffffffffffffffff8111156112f7576112f6611937565b5b6040519080825280601f01601f1916602001820160405280156113295781602001600182028036833780820191505090505b5090505b600085146113b657600182611342919061202f565b9150600a85611351919061249c565b603061135d919061230b565b60f81b818381518110611373576113726124cd565b5b60200101907effffffffffffffffffffffffffffffffffffffffffffffffffffffffffffff1916908160001a905350600a856113af919061246b565b945061132d565b8093505050505b919050565b505050565b60006113e88473ffffffffffffffffffffffffffffffffffffffff1661154f565b15611542578373ffffffffffffffffffffffffffffffffffffffff1663150b7a02611411610df3565b8786866040518563ffffffff1660e01b81526004016114339493929190612551565b6020604051808303816000875af192505050801561146f57506040513d601f19601f8201168201806040525081019061146c91906125b2565b60015b6114f2573d806000811461149f576040519150601f19603f3d011682016040523d82523d6000602084013e6114a4565b606091505b506000815114156114ea576040517f08c379a00000000000000000000000000000000000000000000000000000000081526004016114e1906123d3565b60405180910390fd5b805181602001fd5b63150b7a0260e01b7bffffffffffffffffffffffffffffffffffffffffffffffffffffffff1916817bffffffffffffffffffffffffffffffffffffffffffffffffffffffff191614915050611547565b600190505b949350505050565b600080823b905060008111915050919050565b6000604051905090565b600080fd5b600080fd5b60007fffffffff0000000000000000000000000000000000000000000000000000000082169050919050565b6115ab81611576565b81146115b657600080fd5b50565b6000813590506115c8816115a2565b92915050565b6000602082840312156115e4576115e361156c565b5b60006115f2848285016115b9565b91505092915050565b60008115159050919050565b611610816115fb565b82525050565b600060208201905061162b6000830184611607565b92915050565b600081519050919050565b600082825260208201905092915050565b60005b8381101561166b578082015181840152602081019050611650565b8381111561167a576000848401525b50505050565b6000601f19601f8301169050919050565b600061169c82611631565b6116a6818561163c565b93506116b681856020860161164d565b6116bf81611680565b840191505092915050565b600060208201905081810360008301526116e48184611691565b905092915050565b6000819050919050565b6116ff816116ec565b811461170a57600080fd5b50565b60008135905061171c816116f6565b92915050565b6000602082840312156117385761173761156c565b5b60006117468482850161170d565b91505092915050565b600073ffffffffffffffffffffffffffffffffffffffff82169050919050565b600061177a8261174f565b9050919050565b61178a8161176f565b82525050565b60006020820190506117a56000830184611781565b92915050565b6117b48161176f565b81146117bf57600080fd5b50565b6000813590506117d1816117ab565b92915050565b600080604083850312156117ee576117ed61156c565b5b60006117fc858286016117c2565b925050602061180d8582860161170d565b9150509250929050565b6000806000606084860312156118305761182f61156c565b5b600061183e868287016117c2565b935050602061184f868287016117c2565b92505060406118608682870161170d565b9150509250925092565b6000602082840312156118805761187f61156c565b5b600061188e848285016117c2565b91505092915050565b6118a0816116ec565b82525050565b60006020820190506118bb6000830184611897565b92915050565b6118ca816115fb565b81146118d557600080fd5b50565b6000813590506118e7816118c1565b92915050565b600080604083850312156119045761190361156c565b5b6000611912858286016117c2565b9250506020611923858286016118d8565b9150509250929050565b600080fd5b600080fd5b7f4e487b7100000000000000000000000000000000000000000000000000000000600052604160045260246000fd5b61196f82611680565b810181811067ffffffffffffffff8211171561198e5761198d611937565b5b80604052505050565b60006119a1611562565b90506119ad8282611966565b919050565b600067ffffffffffffffff8211156119cd576119cc611937565b5b6119d682611680565b9050602081019050919050565b82818337600083830152505050565b6000611a05611a00846119b2565b611997565b905082815260208101848484011115611a2157611a20611932565b5b611a2c8482856119e3565b509392505050565b600082601f830112611a4957611a4861192d565b5b8135611a598482602086016119f2565b91505092915050565b60008060008060808587031215611a7c57611a7b61156c565b5b6000611a8a878288016117c2565b9450506020611a9b878288016117c2565b9350506040611aac8782880161170d565b925050606085013567ffffffffffffffff811115611acd57611acc611571565b5b611ad987828801611a34565b91505092959194509250565b60008060408385031215611afc57611afb61156c565b5b6000611b0a858286016117c2565b9250506020611b1b858286016117c2565b9150509250929050565b7f4e487b7100000000000000000000000000000000000000000000000000000000600052602260045260246000fd5b60006002820490506001821680611b6c57607f821691505b60208210811415611b8057611b7f611b25565b5b50919050565b7f4552433732313a20617070726f76656420717565727920666f72206e6f6e657860008201527f697374656e7420746f6b656e0000000000000000000000000000000000000000602082015250565b6000611be2602c8361163c565b9150611bed82611b86565b604082019050919050565b60006020820190508181036000830152611c1181611bd5565b9050919050565b7f4552433732313a20617070726f76616c20746f2063757272656e74206f776e6560008201527f7200000000000000000000000000000000000000000000000000000000000000602082015250565b6000611c7460218361163c565b9150611c7f82611c18565b604082019050919050565b60006020820190508181036000830152611ca381611c67565b9050919050565b7f4552433732313a20617070726f76652063616c6c6572206973206e6f74206f7760008201527f6e6572206e6f7220617070726f76656420666f7220616c6c0000000000000000602082015250565b6000611d0660388361163c565b9150611d1182611caa565b604082019050919050565b60006020820190508181036000830152611d3581611cf9565b9050919050565b7f4552433732313a207472616e736665722063616c6c6572206973206e6f74206f60008201527f776e6572206e6f7220617070726f766564000000000000000000000000000000602082015250565b6000611d9860318361163c565b9150611da382611d3c565b604082019050919050565b60006020820190508181036000830152611dc781611d8b565b9050919050565b7f4552433732313a206f776e657220717565727920666f72206e6f6e657869737460008201527f656e7420746f6b656e0000000000000000000000000000000000000000000000602082015250565b6000611e2a60298361163c565b9150611e3582611dce565b604082019050919050565b60006020820190508181036000830152611e5981611e1d565b9050919050565b7f4552433732313a2062616c616e636520717565727920666f7220746865207a6560008201527f726f206164647265737300000000000000000000000000000000000000000000602082015250565b6000611ebc602a8361163c565b9150611ec782611e60565b604082019050919050565b60006020820190508181036000830152611eeb81611eaf565b9050919050565b6000819050919050565b6000819050919050565b6000611f21611f1c611f1784611ef2565b611efc565b6116ec565b9050919050565b611f3181611f06565b82525050565b6000602082019050611f4c6000830184611f28565b92915050565b600081519050611f61816117ab565b92915050565b600060208284031215611f7d57611f7c61156c565b5b6000611f8b84828501611f52565b91505092915050565b7f4552433732313a20617070726f766520746f2063616c6c657200000000000000600082015250565b6000611fca60198361163c565b9150611fd582611f94565b602082019050919050565b60006020820190508181036000830152611ff981611fbd565b9050919050565b7f4e487b7100000000000000000000000000000000000000000000000000000000600052601160045260246000fd5b600061203a826116ec565b9150612045836116ec565b92508282101561205857612057612000565b5b828203905092915050565b7f4552433732314d657461646174613a2055524920717565727920666f72206e6f60008201527f6e6578697374656e7420746f6b656e0000000000000000000000000000000000602082015250565b60006120bf602f8361163c565b91506120ca82612063565b604082019050919050565b600060208201905081810360008301526120ee816120b2565b9050919050565b600081905092915050565b600061210b82611631565b61211581856120f5565b935061212581856020860161164d565b80840191505092915050565b600061213d8285612100565b91506121498284612100565b91508190509392505050565b7f4552433732313a206f70657261746f7220717565727920666f72206e6f6e657860008201527f697374656e7420746f6b656e0000000000000000000000000000000000000000602082015250565b60006121b1602c8361163c565b91506121bc82612155565b604082019050919050565b600060208201905081810360008301526121e0816121a4565b9050919050565b7f4552433732313a207472616e73666572206f6620746f6b656e2074686174206960008201527f73206e6f74206f776e0000000000000000000000000000000000000000000000602082015250565b600061224360298361163c565b915061224e826121e7565b604082019050919050565b6000602082019050818103600083015261227281612236565b9050919050565b7f4552433732313a207472616e7366657220746f20746865207a65726f2061646460008201527f7265737300000000000000000000000000000000000000000000000000000000602082015250565b60006122d560248361163c565b91506122e082612279565b604082019050919050565b60006020820190508181036000830152612304816122c8565b9050919050565b6000612316826116ec565b9150612321836116ec565b9250827fffffffffffffffffffffffffffffffffffffffffffffffffffffffffffffffff0382111561235657612355612000565b5b828201905092915050565b7f4552433732313a207472616e7366657220746f206e6f6e20455243373231526560008201527f63656976657220696d706c656d656e7465720000000000000000000000000000602082015250565b60006123bd60328361163c565b91506123c882612361565b604082019050919050565b600060208201905081810360008301526123ec816123b0565b9050919050565b60006123fe826116ec565b91507fffffffffffffffffffffffffffffffffffffffffffffffffffffffffffffffff82141561243157612430612000565b5b600182019050919050565b7f4e487b7100000000000000000000000000000000000000000000000000000000600052601260045260246000fd5b6000612476826116ec565b9150612481836116ec565b9250826124915761249061243c565b5b828204905092915050565b60006124a7826116ec565b91506124b2836116ec565b9250826124c2576124c161243c565b5b828206905092915050565b7f4e487b7100000000000000000000000000000000000000000000000000000000600052603260045260246000fd5b600081519050919050565b600082825260208201905092915050565b6000612523826124fc565b61252d8185612507565b935061253d81856020860161164d565b61254681611680565b840191505092915050565b60006080820190506125666000830187611781565b6125736020830186611781565b6125806040830185611897565b81810360608301526125928184612518565b905095945050505050565b6000815190506125ac816115a2565b92915050565b6000602082840312156125c8576125c761156c565b5b60006125d68482850161259d565b9150509291505056fea26469706673582212202bd0ce5cb960e2adca1543c6c5df3818c2f4d3afcc6ad06debbdd6b71641b36c64736f6c634300080a0033",
  "immutableReferences": {},
  "source": "pragma solidity ^0.8.6;\n\nimport {ERC721} from './openzeppelin-contracts-master/contracts/token/ERC721/ERC721.sol';\nimport {USD} from \"./USD.sol\";\n\ncontract Debt_NFT is ERC721 {\n\n    uint total_to_return;\n    uint left_to_return;\n\n    address factory;\n\n    constructor(\n\n        address mintTo,\n        uint toReturn\n\n    )\n\n    ERC721(\"StableToken_Debt_NFT\", \"Stable\")\n    {\n\n        _mint(mintTo, 1);\n\n        total_to_return = toReturn;\n        left_to_return = toReturn;\n        factory = msg.sender;\n\n    }\n\n    function getOwner() public view returns (address){\n        return this.ownerOf(1);\n    }\n\n    function leftToPay() public view returns (uint){\n        return left_to_return;\n    }\n\n    function pay(uint amt) public returns (bool){\n        require(msg.sender == factory);\n        require(amt <= left_to_return);\n\n        left_to_return -= amt;\n\n        return true;\n\n    }\n\n}\n\n",
  "sourcePath": "/home/a/Desktop/pre/contracts/Debt_NFT.sol",
  "compiler": {
    "name": "solc",
    "version": "0.8.10+commit.fc410830.Emscripten.clang"
  },
  "schemaVersion": "3.4.3",
  "updatedAt": "2021-12-13T12:22:05.615Z",
  "devdoc": {
    "kind": "dev",
    "methods": {
      "approve(address,uint256)": {
        "details": "See {IERC721-approve}."
      },
      "balanceOf(address)": {
        "details": "See {IERC721-balanceOf}."
      },
      "getApproved(uint256)": {
        "details": "See {IERC721-getApproved}."
      },
      "isApprovedForAll(address,address)": {
        "details": "See {IERC721-isApprovedForAll}."
      },
      "name()": {
        "details": "See {IERC721Metadata-name}."
      },
      "ownerOf(uint256)": {
        "details": "See {IERC721-ownerOf}."
      },
      "safeTransferFrom(address,address,uint256)": {
        "details": "See {IERC721-safeTransferFrom}."
      },
      "safeTransferFrom(address,address,uint256,bytes)": {
        "details": "See {IERC721-safeTransferFrom}."
      },
      "setApprovalForAll(address,bool)": {
        "details": "See {IERC721-setApprovalForAll}."
      },
      "supportsInterface(bytes4)": {
        "details": "See {IERC165-supportsInterface}."
      },
      "symbol()": {
        "details": "See {IERC721Metadata-symbol}."
      },
      "tokenURI(uint256)": {
        "details": "See {IERC721Metadata-tokenURI}."
      },
      "transferFrom(address,address,uint256)": {
        "details": "See {IERC721-transferFrom}."
      }
    },
    "version": 1
  },
  "userdoc": {
    "kind": "user",
    "methods": {},
    "version": 1
  }
}