{
  "contractName": "ECDSAMock",
  "abi": [
    {
      "inputs": [
        {
          "internalType": "bytes32",
          "name": "hash",
          "type": "bytes32"
        },
        {
          "internalType": "bytes",
          "name": "signature",
          "type": "bytes"
        }
      ],
      "name": "recover",
      "outputs": [
        {
          "internalType": "address",
          "name": "",
          "type": "address"
        }
      ],
      "stateMutability": "pure",
      "type": "function"
    },
    {
      "inputs": [
        {
          "internalType": "bytes32",
          "name": "hash",
          "type": "bytes32"
        }
      ],
      "name": "toEthSignedMessageHash",
      "outputs": [
        {
          "internalType": "bytes32",
          "name": "",
          "type": "bytes32"
        }
      ],
      "stateMutability": "pure",
      "type": "function"
    }
  ],
  "bytecode": "0x608060405234801561001057600080fd5b5061095f806100206000396000f3fe608060405234801561001057600080fd5b50600436106100365760003560e01c806319045a251461003b578063918a15cf1461006b575b600080fd5b6100556004803603810190610050919061050e565b61009b565b60405161006291906105ab565b60405180910390f35b610085600480360381019061008091906105c6565b6100b8565b6040516100929190610602565b60405180910390f35b60006100b082846100ca90919063ffffffff16565b905092915050565b60006100c382610179565b9050919050565b60006041825114156101095760008060006020850151925060408501519150606085015160001a90506100ff868285856101a9565b9350505050610173565b60408251141561013857600080602084015191506040840151905061012f858383610334565b92505050610173565b6040517f08c379a000000000000000000000000000000000000000000000000000000000815260040161016a9061067a565b60405180910390fd5b92915050565b60008160405160200161018c9190610712565b604051602081830303815290604052805190602001209050919050565b60007f7fffffffffffffffffffffffffffffff5d576e7357a4501ddfe92f46681b20a08260001c1115610211576040517f08c379a0000000000000000000000000000000000000000000000000000000008152600401610208906107aa565b60405180910390fd5b601b8460ff1614806102265750601c8460ff16145b610265576040517f08c379a000000000000000000000000000000000000000000000000000000000815260040161025c9061083c565b60405180910390fd5b60006001868686866040516000815260200160405260405161028a9493929190610878565b6020604051602081039080840390855afa1580156102ac573d6000803e3d6000fd5b505050602060405103519050600073ffffffffffffffffffffffffffffffffffffffff168173ffffffffffffffffffffffffffffffffffffffff161415610328576040517f08c379a000000000000000000000000000000000000000000000000000000000815260040161031f90610909565b60405180910390fd5b80915050949350505050565b60008060007f7fffffffffffffffffffffffffffffffffffffffffffffffffffffffffffffff84169150601b8460ff1c019050610373868287856101a9565b925050509392505050565b6000604051905090565b600080fd5b600080fd5b6000819050919050565b6103a581610392565b81146103b057600080fd5b50565b6000813590506103c28161039c565b92915050565b600080fd5b600080fd5b6000601f19601f8301169050919050565b7f4e487b7100000000000000000000000000000000000000000000000000000000600052604160045260246000fd5b61041b826103d2565b810181811067ffffffffffffffff8211171561043a576104396103e3565b5b80604052505050565b600061044d61037e565b90506104598282610412565b919050565b600067ffffffffffffffff821115610479576104786103e3565b5b610482826103d2565b9050602081019050919050565b82818337600083830152505050565b60006104b16104ac8461045e565b610443565b9050828152602081018484840111156104cd576104cc6103cd565b5b6104d884828561048f565b509392505050565b600082601f8301126104f5576104f46103c8565b5b813561050584826020860161049e565b91505092915050565b6000806040838503121561052557610524610388565b5b6000610533858286016103b3565b925050602083013567ffffffffffffffff8111156105545761055361038d565b5b610560858286016104e0565b9150509250929050565b600073ffffffffffffffffffffffffffffffffffffffff82169050919050565b60006105958261056a565b9050919050565b6105a58161058a565b82525050565b60006020820190506105c0600083018461059c565b92915050565b6000602082840312156105dc576105db610388565b5b60006105ea848285016103b3565b91505092915050565b6105fc81610392565b82525050565b600060208201905061061760008301846105f3565b92915050565b600082825260208201905092915050565b7f45434453413a20696e76616c6964207369676e6174757265206c656e67746800600082015250565b6000610664601f8361061d565b915061066f8261062e565b602082019050919050565b6000602082019050818103600083015261069381610657565b9050919050565b600081905092915050565b7f19457468657265756d205369676e6564204d6573736167653a0a333200000000600082015250565b60006106db601c8361069a565b91506106e6826106a5565b601c82019050919050565b6000819050919050565b61070c61070782610392565b6106f1565b82525050565b600061071d826106ce565b915061072982846106fb565b60208201915081905092915050565b7f45434453413a20696e76616c6964207369676e6174757265202773272076616c60008201527f7565000000000000000000000000000000000000000000000000000000000000602082015250565b600061079460228361061d565b915061079f82610738565b604082019050919050565b600060208201905081810360008301526107c381610787565b9050919050565b7f45434453413a20696e76616c6964207369676e6174757265202776272076616c60008201527f7565000000000000000000000000000000000000000000000000000000000000602082015250565b600061082660228361061d565b9150610831826107ca565b604082019050919050565b6000602082019050818103600083015261085581610819565b9050919050565b600060ff82169050919050565b6108728161085c565b82525050565b600060808201905061088d60008301876105f3565b61089a6020830186610869565b6108a760408301856105f3565b6108b460608301846105f3565b95945050505050565b7f45434453413a20696e76616c6964207369676e61747572650000000000000000600082015250565b60006108f360188361061d565b91506108fe826108bd565b602082019050919050565b60006020820190508181036000830152610922816108e6565b905091905056fea264697066735822122071da149faeeeeb338dde656dbbd002cfc7f4ddbc5b55b3595b7b8d00c4803dc064736f6c634300080a0033",
  "immutableReferences": {},
  "source": "// SPDX-License-Identifier: MIT\r\n\r\npragma solidity ^0.8.0;\r\n\r\nimport \"../utils/cryptography/ECDSA.sol\";\r\n\r\ncontract ECDSAMock {\r\n    using ECDSA for bytes32;\r\n\r\n    function recover(bytes32 hash, bytes memory signature) public pure returns (address) {\r\n        return hash.recover(signature);\r\n    }\r\n\r\n    function toEthSignedMessageHash(bytes32 hash) public pure returns (bytes32) {\r\n        return hash.toEthSignedMessageHash();\r\n    }\r\n}\r\n",
  "sourcePath": "/home/a/Desktop/pre/contracts/openzeppelin-contracts-master/contracts/mocks/ECDSAMock.sol",
  "compiler": {
    "name": "solc",
    "version": "0.8.10+commit.fc410830.Emscripten.clang"
  },
  "schemaVersion": "3.4.3",
  "updatedAt": "2021-12-13T12:22:06.032Z",
  "devdoc": {
    "kind": "dev",
    "methods": {},
    "version": 1
  },
  "userdoc": {
    "kind": "user",
    "methods": {},
    "version": 1
  }
}