{
  "contractName": "EnumerableUintSetMock",
  "abi": [
    {
      "anonymous": false,
      "inputs": [
        {
          "indexed": false,
          "internalType": "bool",
          "name": "result",
          "type": "bool"
        }
      ],
      "name": "OperationResult",
      "type": "event"
    },
    {
      "inputs": [
        {
          "internalType": "uint256",
          "name": "value",
          "type": "uint256"
        }
      ],
      "name": "contains",
      "outputs": [
        {
          "internalType": "bool",
          "name": "",
          "type": "bool"
        }
      ],
      "stateMutability": "view",
      "type": "function"
    },
    {
      "inputs": [
        {
          "internalType": "uint256",
          "name": "value",
          "type": "uint256"
        }
      ],
      "name": "add",
      "outputs": [],
      "stateMutability": "nonpayable",
      "type": "function"
    },
    {
      "inputs": [
        {
          "internalType": "uint256",
          "name": "value",
          "type": "uint256"
        }
      ],
      "name": "remove",
      "outputs": [],
      "stateMutability": "nonpayable",
      "type": "function"
    },
    {
      "inputs": [],
      "name": "length",
      "outputs": [
        {
          "internalType": "uint256",
          "name": "",
          "type": "uint256"
        }
      ],
      "stateMutability": "view",
      "type": "function"
    },
    {
      "inputs": [
        {
          "internalType": "uint256",
          "name": "index",
          "type": "uint256"
        }
      ],
      "name": "at",
      "outputs": [
        {
          "internalType": "uint256",
          "name": "",
          "type": "uint256"
        }
      ],
      "stateMutability": "view",
      "type": "function"
    }
  ],
  "bytecode": "0x608060405234801561001057600080fd5b50610622806100206000396000f3fe608060405234801561001057600080fd5b50600436106100575760003560e01c80631003e2d21461005c5780631f7b6d32146100785780634cc8221514610096578063c34052e0146100b2578063e0886f90146100e2575b600080fd5b6100766004803603810190610071919061049e565b610112565b005b610080610165565b60405161008d91906104da565b60405180910390f35b6100b060048036038101906100ab919061049e565b610176565b005b6100cc60048036038101906100c7919061049e565b6101c9565b6040516100d99190610510565b60405180910390f35b6100fc60048036038101906100f7919061049e565b6101e6565b60405161010991906104da565b60405180910390f35b600061012882600061020390919063ffffffff16565b90507fed9840e0775590557ad736875d96c95cf1458b766335f74339951a32c82a9e33816040516101599190610510565b60405180910390a15050565b6000610171600061021d565b905090565b600061018c82600061023290919063ffffffff16565b90507fed9840e0775590557ad736875d96c95cf1458b766335f74339951a32c82a9e33816040516101bd9190610510565b60405180910390a15050565b60006101df82600061024c90919063ffffffff16565b9050919050565b60006101fc82600061026690919063ffffffff16565b9050919050565b6000610215836000018360001b610280565b905092915050565b600061022b826000016102f0565b9050919050565b6000610244836000018360001b610301565b905092915050565b600061025e836000018360001b610415565b905092915050565b60006102758360000183610438565b60001c905092915050565b600061028c8383610415565b6102e55782600001829080600181540180825580915050600190039060005260206000200160009091909190915055826000018054905083600101600084815260200190815260200160002081905550600190506102ea565b600090505b92915050565b600081600001805490509050919050565b60008083600101600084815260200190815260200160002054905060008114610409576000600182610333919061055a565b905060006001866000018054905061034b919061055a565b90508181146103ba57600086600001828154811061036c5761036b61058e565b5b90600052602060002001549050808760000184815481106103905761038f61058e565b5b90600052602060002001819055508387600101600083815260200190815260200160002081905550505b856000018054806103ce576103cd6105bd565b5b60019003818190600052602060002001600090559055856001016000868152602001908152602001600020600090556001935050505061040f565b60009150505b92915050565b600080836001016000848152602001908152602001600020541415905092915050565b60008260000182815481106104505761044f61058e565b5b9060005260206000200154905092915050565b600080fd5b6000819050919050565b61047b81610468565b811461048657600080fd5b50565b60008135905061049881610472565b92915050565b6000602082840312156104b4576104b3610463565b5b60006104c284828501610489565b91505092915050565b6104d481610468565b82525050565b60006020820190506104ef60008301846104cb565b92915050565b60008115159050919050565b61050a816104f5565b82525050565b60006020820190506105256000830184610501565b92915050565b7f4e487b7100000000000000000000000000000000000000000000000000000000600052601160045260246000fd5b600061056582610468565b915061057083610468565b9250828210156105835761058261052b565b5b828203905092915050565b7f4e487b7100000000000000000000000000000000000000000000000000000000600052603260045260246000fd5b7f4e487b7100000000000000000000000000000000000000000000000000000000600052603160045260246000fdfea2646970667358221220745962de7ceec64566c8234f47562cb14cbcb01208969e3e53a07fabbac883be64736f6c634300080a0033",
  "immutableReferences": {},
  "source": "// SPDX-License-Identifier: MIT\r\n\r\npragma solidity ^0.8.0;\r\n\r\nimport \"../utils/structs/EnumerableSet.sol\";\r\n\r\n// Bytes32Set\r\ncontract EnumerableBytes32SetMock {\r\n    using EnumerableSet for EnumerableSet.Bytes32Set;\r\n\r\n    event OperationResult(bool result);\r\n\r\n    EnumerableSet.Bytes32Set private _set;\r\n\r\n    function contains(bytes32 value) public view returns (bool) {\r\n        return _set.contains(value);\r\n    }\r\n\r\n    function add(bytes32 value) public {\r\n        bool result = _set.add(value);\r\n        emit OperationResult(result);\r\n    }\r\n\r\n    function remove(bytes32 value) public {\r\n        bool result = _set.remove(value);\r\n        emit OperationResult(result);\r\n    }\r\n\r\n    function length() public view returns (uint256) {\r\n        return _set.length();\r\n    }\r\n\r\n    function at(uint256 index) public view returns (bytes32) {\r\n        return _set.at(index);\r\n    }\r\n}\r\n\r\n// AddressSet\r\ncontract EnumerableAddressSetMock {\r\n    using EnumerableSet for EnumerableSet.AddressSet;\r\n\r\n    event OperationResult(bool result);\r\n\r\n    EnumerableSet.AddressSet private _set;\r\n\r\n    function contains(address value) public view returns (bool) {\r\n        return _set.contains(value);\r\n    }\r\n\r\n    function add(address value) public {\r\n        bool result = _set.add(value);\r\n        emit OperationResult(result);\r\n    }\r\n\r\n    function remove(address value) public {\r\n        bool result = _set.remove(value);\r\n        emit OperationResult(result);\r\n    }\r\n\r\n    function length() public view returns (uint256) {\r\n        return _set.length();\r\n    }\r\n\r\n    function at(uint256 index) public view returns (address) {\r\n        return _set.at(index);\r\n    }\r\n}\r\n\r\n// UintSet\r\ncontract EnumerableUintSetMock {\r\n    using EnumerableSet for EnumerableSet.UintSet;\r\n\r\n    event OperationResult(bool result);\r\n\r\n    EnumerableSet.UintSet private _set;\r\n\r\n    function contains(uint256 value) public view returns (bool) {\r\n        return _set.contains(value);\r\n    }\r\n\r\n    function add(uint256 value) public {\r\n        bool result = _set.add(value);\r\n        emit OperationResult(result);\r\n    }\r\n\r\n    function remove(uint256 value) public {\r\n        bool result = _set.remove(value);\r\n        emit OperationResult(result);\r\n    }\r\n\r\n    function length() public view returns (uint256) {\r\n        return _set.length();\r\n    }\r\n\r\n    function at(uint256 index) public view returns (uint256) {\r\n        return _set.at(index);\r\n    }\r\n}\r\n",
  "sourcePath": "/home/a/Desktop/pre/contracts/openzeppelin-contracts-master/contracts/mocks/EnumerableSetMock.sol",
  "compiler": {
    "name": "solc",
    "version": "0.8.10+commit.fc410830.Emscripten.clang"
  },
  "schemaVersion": "3.4.3",
  "updatedAt": "2021-12-13T12:22:06.973Z",
  "devdoc": {
    "kind": "dev",
    "methods": {},
    "version": 1
  },
  "userdoc": {
    "kind": "user",
    "methods": {},
    "version": 1
  }
}