{
  "contractName": "ERC1271WalletMock",
  "abi": [
    {
      "inputs": [
        {
          "internalType": "address",
          "name": "originalOwner",
          "type": "address"
        }
      ],
      "stateMutability": "nonpayable",
      "type": "constructor"
    },
    {
      "anonymous": false,
      "inputs": [
        {
          "indexed": true,
          "internalType": "address",
          "name": "previousOwner",
          "type": "address"
        },
        {
          "indexed": true,
          "internalType": "address",
          "name": "newOwner",
          "type": "address"
        }
      ],
      "name": "OwnershipTransferred",
      "type": "event"
    },
    {
      "inputs": [],
      "name": "owner",
      "outputs": [
        {
          "internalType": "address",
          "name": "",
          "type": "address"
        }
      ],
      "stateMutability": "view",
      "type": "function"
    },
    {
      "inputs": [],
      "name": "renounceOwnership",
      "outputs": [],
      "stateMutability": "nonpayable",
      "type": "function"
    },
    {
      "inputs": [
        {
          "internalType": "address",
          "name": "newOwner",
          "type": "address"
        }
      ],
      "name": "transferOwnership",
      "outputs": [],
      "stateMutability": "nonpayable",
      "type": "function"
    },
    {
      "inputs": [
        {
          "internalType": "bytes32",
          "name": "hash",
          "type": "bytes32"
        },
        {
          "internalType": "bytes",
          "name": "signature",
          "type": "bytes"
        }
      ],
      "name": "isValidSignature",
      "outputs": [
        {
          "internalType": "bytes4",
          "name": "magicValue",
          "type": "bytes4"
        }
      ],
      "stateMutability": "view",
      "type": "function"
    }
  ],
  "bytecode": "0x60806040523480156200001157600080fd5b5060405162001107380380620011078339818101604052810190620000379190620002e4565b620000576200004b6200006f60201b60201c565b6200007760201b60201c565b62000068816200013b60201b60201c565b5062000431565b600033905090565b60008060009054906101000a900473ffffffffffffffffffffffffffffffffffffffff169050816000806101000a81548173ffffffffffffffffffffffffffffffffffffffff021916908373ffffffffffffffffffffffffffffffffffffffff1602179055508173ffffffffffffffffffffffffffffffffffffffff168173ffffffffffffffffffffffffffffffffffffffff167f8be0079c531659141344cd1fd0a4f28419497f9722a3daafe3b4186f6b6457e060405160405180910390a35050565b6200014b6200006f60201b60201c565b73ffffffffffffffffffffffffffffffffffffffff16620001716200025160201b60201c565b73ffffffffffffffffffffffffffffffffffffffff1614620001ca576040517f08c379a0000000000000000000000000000000000000000000000000000000008152600401620001c19062000377565b60405180910390fd5b600073ffffffffffffffffffffffffffffffffffffffff168173ffffffffffffffffffffffffffffffffffffffff1614156200023d576040517f08c379a000000000000000000000000000000000000000000000000000000000815260040162000234906200040f565b60405180910390fd5b6200024e816200007760201b60201c565b50565b60008060009054906101000a900473ffffffffffffffffffffffffffffffffffffffff16905090565b600080fd5b600073ffffffffffffffffffffffffffffffffffffffff82169050919050565b6000620002ac826200027f565b9050919050565b620002be816200029f565b8114620002ca57600080fd5b50565b600081519050620002de81620002b3565b92915050565b600060208284031215620002fd57620002fc6200027a565b5b60006200030d84828501620002cd565b91505092915050565b600082825260208201905092915050565b7f4f776e61626c653a2063616c6c6572206973206e6f7420746865206f776e6572600082015250565b60006200035f60208362000316565b91506200036c8262000327565b602082019050919050565b60006020820190508181036000830152620003928162000350565b9050919050565b7f4f776e61626c653a206e6577206f776e657220697320746865207a65726f206160008201527f6464726573730000000000000000000000000000000000000000000000000000602082015250565b6000620003f760268362000316565b9150620004048262000399565b604082019050919050565b600060208201905081810360008301526200042a81620003e8565b9050919050565b610cc680620004416000396000f3fe608060405234801561001057600080fd5b506004361061004c5760003560e01c80631626ba7e14610051578063715018a6146100815780638da5cb5b1461008b578063f2fde38b146100a9575b600080fd5b61006b600480360381019061006691906107ae565b6100c5565b6040516100789190610845565b60405180910390f35b610089610125565b005b6100936101ad565b6040516100a091906108a1565b60405180910390f35b6100c360048036038101906100be91906108e8565b6101d6565b005b60006100cf6101ad565b73ffffffffffffffffffffffffffffffffffffffff166100ef84846102ce565b73ffffffffffffffffffffffffffffffffffffffff161461011457600060e01b61011d565b631626ba7e60e01b5b905092915050565b61012d61037d565b73ffffffffffffffffffffffffffffffffffffffff1661014b6101ad565b73ffffffffffffffffffffffffffffffffffffffff16146101a1576040517f08c379a000000000000000000000000000000000000000000000000000000000815260040161019890610972565b60405180910390fd5b6101ab6000610385565b565b60008060009054906101000a900473ffffffffffffffffffffffffffffffffffffffff16905090565b6101de61037d565b73ffffffffffffffffffffffffffffffffffffffff166101fc6101ad565b73ffffffffffffffffffffffffffffffffffffffff1614610252576040517f08c379a000000000000000000000000000000000000000000000000000000000815260040161024990610972565b60405180910390fd5b600073ffffffffffffffffffffffffffffffffffffffff168173ffffffffffffffffffffffffffffffffffffffff1614156102c2576040517f08c379a00000000000000000000000000000000000000000000000000000000081526004016102b990610a04565b60405180910390fd5b6102cb81610385565b50565b600060418251141561030d5760008060006020850151925060408501519150606085015160001a905061030386828585610449565b9350505050610377565b60408251141561033c5760008060208401519150604084015190506103338583836105d4565b92505050610377565b6040517f08c379a000000000000000000000000000000000000000000000000000000000815260040161036e90610a70565b60405180910390fd5b92915050565b600033905090565b60008060009054906101000a900473ffffffffffffffffffffffffffffffffffffffff169050816000806101000a81548173ffffffffffffffffffffffffffffffffffffffff021916908373ffffffffffffffffffffffffffffffffffffffff1602179055508173ffffffffffffffffffffffffffffffffffffffff168173ffffffffffffffffffffffffffffffffffffffff167f8be0079c531659141344cd1fd0a4f28419497f9722a3daafe3b4186f6b6457e060405160405180910390a35050565b60007f7fffffffffffffffffffffffffffffff5d576e7357a4501ddfe92f46681b20a08260001c11156104b1576040517f08c379a00000000000000000000000000000000000000000000000000000000081526004016104a890610b02565b60405180910390fd5b601b8460ff1614806104c65750601c8460ff16145b610505576040517f08c379a00000000000000000000000000000000000000000000000000000000081526004016104fc90610b94565b60405180910390fd5b60006001868686866040516000815260200160405260405161052a9493929190610bdf565b6020604051602081039080840390855afa15801561054c573d6000803e3d6000fd5b505050602060405103519050600073ffffffffffffffffffffffffffffffffffffffff168173ffffffffffffffffffffffffffffffffffffffff1614156105c8576040517f08c379a00000000000000000000000000000000000000000000000000000000081526004016105bf90610c70565b60405180910390fd5b80915050949350505050565b60008060007f7fffffffffffffffffffffffffffffffffffffffffffffffffffffffffffffff84169150601b8460ff1c01905061061386828785610449565b925050509392505050565b6000604051905090565b600080fd5b600080fd5b6000819050919050565b61064581610632565b811461065057600080fd5b50565b6000813590506106628161063c565b92915050565b600080fd5b600080fd5b6000601f19601f8301169050919050565b7f4e487b7100000000000000000000000000000000000000000000000000000000600052604160045260246000fd5b6106bb82610672565b810181811067ffffffffffffffff821117156106da576106d9610683565b5b80604052505050565b60006106ed61061e565b90506106f982826106b2565b919050565b600067ffffffffffffffff82111561071957610718610683565b5b61072282610672565b9050602081019050919050565b82818337600083830152505050565b600061075161074c846106fe565b6106e3565b90508281526020810184848401111561076d5761076c61066d565b5b61077884828561072f565b509392505050565b600082601f83011261079557610794610668565b5b81356107a584826020860161073e565b91505092915050565b600080604083850312156107c5576107c4610628565b5b60006107d385828601610653565b925050602083013567ffffffffffffffff8111156107f4576107f361062d565b5b61080085828601610780565b9150509250929050565b60007fffffffff0000000000000000000000000000000000000000000000000000000082169050919050565b61083f8161080a565b82525050565b600060208201905061085a6000830184610836565b92915050565b600073ffffffffffffffffffffffffffffffffffffffff82169050919050565b600061088b82610860565b9050919050565b61089b81610880565b82525050565b60006020820190506108b66000830184610892565b92915050565b6108c581610880565b81146108d057600080fd5b50565b6000813590506108e2816108bc565b92915050565b6000602082840312156108fe576108fd610628565b5b600061090c848285016108d3565b91505092915050565b600082825260208201905092915050565b7f4f776e61626c653a2063616c6c6572206973206e6f7420746865206f776e6572600082015250565b600061095c602083610915565b915061096782610926565b602082019050919050565b6000602082019050818103600083015261098b8161094f565b9050919050565b7f4f776e61626c653a206e6577206f776e657220697320746865207a65726f206160008201527f6464726573730000000000000000000000000000000000000000000000000000602082015250565b60006109ee602683610915565b91506109f982610992565b604082019050919050565b60006020820190508181036000830152610a1d816109e1565b9050919050565b7f45434453413a20696e76616c6964207369676e6174757265206c656e67746800600082015250565b6000610a5a601f83610915565b9150610a6582610a24565b602082019050919050565b60006020820190508181036000830152610a8981610a4d565b9050919050565b7f45434453413a20696e76616c6964207369676e6174757265202773272076616c60008201527f7565000000000000000000000000000000000000000000000000000000000000602082015250565b6000610aec602283610915565b9150610af782610a90565b604082019050919050565b60006020820190508181036000830152610b1b81610adf565b9050919050565b7f45434453413a20696e76616c6964207369676e6174757265202776272076616c60008201527f7565000000000000000000000000000000000000000000000000000000000000602082015250565b6000610b7e602283610915565b9150610b8982610b22565b604082019050919050565b60006020820190508181036000830152610bad81610b71565b9050919050565b610bbd81610632565b82525050565b600060ff82169050919050565b610bd981610bc3565b82525050565b6000608082019050610bf46000830187610bb4565b610c016020830186610bd0565b610c0e6040830185610bb4565b610c1b6060830184610bb4565b95945050505050565b7f45434453413a20696e76616c6964207369676e61747572650000000000000000600082015250565b6000610c5a601883610915565b9150610c6582610c24565b602082019050919050565b60006020820190508181036000830152610c8981610c4d565b905091905056fea2646970667358221220ee4aacaa9294f3bcbd2b2099740545b34a5c3ca3bcfe142da34055c9e0a1d4a864736f6c634300080a0033",
  "immutableReferences": {},
  "source": "// SPDX-License-Identifier: MIT\r\n\r\npragma solidity ^0.8.0;\r\n\r\nimport \"../access/Ownable.sol\";\r\nimport \"../interfaces/IERC1271.sol\";\r\nimport \"../utils/cryptography/ECDSA.sol\";\r\n\r\ncontract ERC1271WalletMock is Ownable, IERC1271 {\r\n    constructor(address originalOwner) {\r\n        transferOwnership(originalOwner);\r\n    }\r\n\r\n    function isValidSignature(bytes32 hash, bytes memory signature) public view override returns (bytes4 magicValue) {\r\n        return ECDSA.recover(hash, signature) == owner() ? this.isValidSignature.selector : bytes4(0);\r\n    }\r\n}\r\n",
  "sourcePath": "/home/a/Desktop/pre/contracts/openzeppelin-contracts-master/contracts/mocks/ERC1271WalletMock.sol",
  "compiler": {
    "name": "solc",
    "version": "0.8.10+commit.fc410830.Emscripten.clang"
  },
  "schemaVersion": "3.4.3",
  "updatedAt": "2021-12-13T12:22:06.128Z",
  "devdoc": {
    "kind": "dev",
    "methods": {
      "isValidSignature(bytes32,bytes)": {
        "details": "Should return whether the signature provided is valid for the provided data",
        "params": {
          "hash": "Hash of the data to be signed",
          "signature": "Signature byte array associated with _data"
        }
      },
      "owner()": {
        "details": "Returns the address of the current owner."
      },
      "renounceOwnership()": {
        "details": "Leaves the contract without owner. It will not be possible to call `onlyOwner` functions anymore. Can only be called by the current owner. NOTE: Renouncing ownership will leave the contract without an owner, thereby removing any functionality that is only available to the owner."
      },
      "transferOwnership(address)": {
        "details": "Transfers ownership of the contract to a new account (`newOwner`). Can only be called by the current owner."
      }
    },
    "version": 1
  },
  "userdoc": {
    "kind": "user",
    "methods": {},
    "version": 1
  }
}