{
  "contractName": "ERC1155SupplyMock",
  "abi": [
    {
      "inputs": [
        {
          "internalType": "string",
          "name": "uri",
          "type": "string"
        }
      ],
      "stateMutability": "nonpayable",
      "type": "constructor"
    },
    {
      "anonymous": false,
      "inputs": [
        {
          "indexed": true,
          "internalType": "address",
          "name": "account",
          "type": "address"
        },
        {
          "indexed": true,
          "internalType": "address",
          "name": "operator",
          "type": "address"
        },
        {
          "indexed": false,
          "internalType": "bool",
          "name": "approved",
          "type": "bool"
        }
      ],
      "name": "ApprovalForAll",
      "type": "event"
    },
    {
      "anonymous": false,
      "inputs": [
        {
          "indexed": true,
          "internalType": "address",
          "name": "operator",
          "type": "address"
        },
        {
          "indexed": true,
          "internalType": "address",
          "name": "from",
          "type": "address"
        },
        {
          "indexed": true,
          "internalType": "address",
          "name": "to",
          "type": "address"
        },
        {
          "indexed": false,
          "internalType": "uint256[]",
          "name": "ids",
          "type": "uint256[]"
        },
        {
          "indexed": false,
          "internalType": "uint256[]",
          "name": "values",
          "type": "uint256[]"
        }
      ],
      "name": "TransferBatch",
      "type": "event"
    },
    {
      "anonymous": false,
      "inputs": [
        {
          "indexed": true,
          "internalType": "address",
          "name": "operator",
          "type": "address"
        },
        {
          "indexed": true,
          "internalType": "address",
          "name": "from",
          "type": "address"
        },
        {
          "indexed": true,
          "internalType": "address",
          "name": "to",
          "type": "address"
        },
        {
          "indexed": false,
          "internalType": "uint256",
          "name": "id",
          "type": "uint256"
        },
        {
          "indexed": false,
          "internalType": "uint256",
          "name": "value",
          "type": "uint256"
        }
      ],
      "name": "TransferSingle",
      "type": "event"
    },
    {
      "anonymous": false,
      "inputs": [
        {
          "indexed": false,
          "internalType": "string",
          "name": "value",
          "type": "string"
        },
        {
          "indexed": true,
          "internalType": "uint256",
          "name": "id",
          "type": "uint256"
        }
      ],
      "name": "URI",
      "type": "event"
    },
    {
      "inputs": [
        {
          "internalType": "address",
          "name": "account",
          "type": "address"
        },
        {
          "internalType": "uint256",
          "name": "id",
          "type": "uint256"
        }
      ],
      "name": "balanceOf",
      "outputs": [
        {
          "internalType": "uint256",
          "name": "",
          "type": "uint256"
        }
      ],
      "stateMutability": "view",
      "type": "function"
    },
    {
      "inputs": [
        {
          "internalType": "address[]",
          "name": "accounts",
          "type": "address[]"
        },
        {
          "internalType": "uint256[]",
          "name": "ids",
          "type": "uint256[]"
        }
      ],
      "name": "balanceOfBatch",
      "outputs": [
        {
          "internalType": "uint256[]",
          "name": "",
          "type": "uint256[]"
        }
      ],
      "stateMutability": "view",
      "type": "function"
    },
    {
      "inputs": [
        {
          "internalType": "address",
          "name": "owner",
          "type": "address"
        },
        {
          "internalType": "uint256",
          "name": "id",
          "type": "uint256"
        },
        {
          "internalType": "uint256",
          "name": "value",
          "type": "uint256"
        }
      ],
      "name": "burn",
      "outputs": [],
      "stateMutability": "nonpayable",
      "type": "function"
    },
    {
      "inputs": [
        {
          "internalType": "address",
          "name": "owner",
          "type": "address"
        },
        {
          "internalType": "uint256[]",
          "name": "ids",
          "type": "uint256[]"
        },
        {
          "internalType": "uint256[]",
          "name": "values",
          "type": "uint256[]"
        }
      ],
      "name": "burnBatch",
      "outputs": [],
      "stateMutability": "nonpayable",
      "type": "function"
    },
    {
      "inputs": [
        {
          "internalType": "uint256",
          "name": "id",
          "type": "uint256"
        }
      ],
      "name": "exists",
      "outputs": [
        {
          "internalType": "bool",
          "name": "",
          "type": "bool"
        }
      ],
      "stateMutability": "view",
      "type": "function"
    },
    {
      "inputs": [
        {
          "internalType": "address",
          "name": "account",
          "type": "address"
        },
        {
          "internalType": "address",
          "name": "operator",
          "type": "address"
        }
      ],
      "name": "isApprovedForAll",
      "outputs": [
        {
          "internalType": "bool",
          "name": "",
          "type": "bool"
        }
      ],
      "stateMutability": "view",
      "type": "function"
    },
    {
      "inputs": [
        {
          "internalType": "address",
          "name": "to",
          "type": "address"
        },
        {
          "internalType": "uint256",
          "name": "id",
          "type": "uint256"
        },
        {
          "internalType": "uint256",
          "name": "value",
          "type": "uint256"
        },
        {
          "internalType": "bytes",
          "name": "data",
          "type": "bytes"
        }
      ],
      "name": "mint",
      "outputs": [],
      "stateMutability": "nonpayable",
      "type": "function"
    },
    {
      "inputs": [
        {
          "internalType": "address",
          "name": "to",
          "type": "address"
        },
        {
          "internalType": "uint256[]",
          "name": "ids",
          "type": "uint256[]"
        },
        {
          "internalType": "uint256[]",
          "name": "values",
          "type": "uint256[]"
        },
        {
          "internalType": "bytes",
          "name": "data",
          "type": "bytes"
        }
      ],
      "name": "mintBatch",
      "outputs": [],
      "stateMutability": "nonpayable",
      "type": "function"
    },
    {
      "inputs": [
        {
          "internalType": "address",
          "name": "from",
          "type": "address"
        },
        {
          "internalType": "address",
          "name": "to",
          "type": "address"
        },
        {
          "internalType": "uint256[]",
          "name": "ids",
          "type": "uint256[]"
        },
        {
          "internalType": "uint256[]",
          "name": "amounts",
          "type": "uint256[]"
        },
        {
          "internalType": "bytes",
          "name": "data",
          "type": "bytes"
        }
      ],
      "name": "safeBatchTransferFrom",
      "outputs": [],
      "stateMutability": "nonpayable",
      "type": "function"
    },
    {
      "inputs": [
        {
          "internalType": "address",
          "name": "from",
          "type": "address"
        },
        {
          "internalType": "address",
          "name": "to",
          "type": "address"
        },
        {
          "internalType": "uint256",
          "name": "id",
          "type": "uint256"
        },
        {
          "internalType": "uint256",
          "name": "amount",
          "type": "uint256"
        },
        {
          "internalType": "bytes",
          "name": "data",
          "type": "bytes"
        }
      ],
      "name": "safeTransferFrom",
      "outputs": [],
      "stateMutability": "nonpayable",
      "type": "function"
    },
    {
      "inputs": [
        {
          "internalType": "address",
          "name": "operator",
          "type": "address"
        },
        {
          "internalType": "bool",
          "name": "approved",
          "type": "bool"
        }
      ],
      "name": "setApprovalForAll",
      "outputs": [],
      "stateMutability": "nonpayable",
      "type": "function"
    },
    {
      "inputs": [
        {
          "internalType": "string",
          "name": "newuri",
          "type": "string"
        }
      ],
      "name": "setURI",
      "outputs": [],
      "stateMutability": "nonpayable",
      "type": "function"
    },
    {
      "inputs": [
        {
          "internalType": "bytes4",
          "name": "interfaceId",
          "type": "bytes4"
        }
      ],
      "name": "supportsInterface",
      "outputs": [
        {
          "internalType": "bool",
          "name": "",
          "type": "bool"
        }
      ],
      "stateMutability": "view",
      "type": "function"
    },
    {
      "inputs": [
        {
          "internalType": "uint256",
          "name": "id",
          "type": "uint256"
        }
      ],
      "name": "totalSupply",
      "outputs": [
        {
          "internalType": "uint256",
          "name": "",
          "type": "uint256"
        }
      ],
      "stateMutability": "view",
      "type": "function"
    },
    {
      "inputs": [
        {
          "internalType": "uint256",
          "name": "",
          "type": "uint256"
        }
      ],
      "name": "uri",
      "outputs": [
        {
          "internalType": "string",
          "name": "",
          "type": "string"
        }
      ],
      "stateMutability": "view",
      "type": "function"
    }
  ],
  "bytecode": "0x60806040523480156200001157600080fd5b5060405162003adf38038062003adf8339818101604052810190620000379190620002bc565b80806200004a816200005360201b60201c565b50505062000372565b80600290805190602001906200006b9291906200006f565b5050565b8280546200007d906200033c565b90600052602060002090601f016020900481019282620000a15760008555620000ed565b82601f10620000bc57805160ff1916838001178555620000ed565b82800160010185558215620000ed579182015b82811115620000ec578251825591602001919060010190620000cf565b5b509050620000fc919062000100565b5090565b5b808211156200011b57600081600090555060010162000101565b5090565b6000604051905090565b600080fd5b600080fd5b600080fd5b600080fd5b6000601f19601f8301169050919050565b7f4e487b7100000000000000000000000000000000000000000000000000000000600052604160045260246000fd5b62000188826200013d565b810181811067ffffffffffffffff82111715620001aa57620001a96200014e565b5b80604052505050565b6000620001bf6200011f565b9050620001cd82826200017d565b919050565b600067ffffffffffffffff821115620001f057620001ef6200014e565b5b620001fb826200013d565b9050602081019050919050565b60005b83811015620002285780820151818401526020810190506200020b565b8381111562000238576000848401525b50505050565b6000620002556200024f84620001d2565b620001b3565b90508281526020810184848401111562000274576200027362000138565b5b6200028184828562000208565b509392505050565b600082601f830112620002a157620002a062000133565b5b8151620002b38482602086016200023e565b91505092915050565b600060208284031215620002d557620002d462000129565b5b600082015167ffffffffffffffff811115620002f657620002f56200012e565b5b620003048482850162000289565b91505092915050565b7f4e487b7100000000000000000000000000000000000000000000000000000000600052602260045260246000fd5b600060028204905060018216806200035557607f821691505b602082108114156200036c576200036b6200030d565b5b50919050565b61375d80620003826000396000f3fe608060405234801561001057600080fd5b50600436106100f45760003560e01c80634f558e7911610097578063bd85b03911610066578063bd85b03914610291578063e985e9c5146102c1578063f242432a146102f1578063f5298aca1461030d576100f4565b80634f558e791461020d5780636b20c4541461023d578063731133e914610259578063a22cb46514610275576100f4565b80630e89341c116100d35780630e89341c146101755780631f7fdffa146101a55780632eb2c2d6146101c15780634e1273f4146101dd576100f4565b8062fdd58e146100f957806301ffc9a71461012957806302fe530514610159575b600080fd5b610113600480360381019061010e9190612061565b610329565b60405161012091906120b0565b60405180910390f35b610143600480360381019061013e9190612123565b6103f2565b604051610150919061216b565b60405180910390f35b610173600480360381019061016e91906122cc565b6104d4565b005b61018f600480360381019061018a9190612315565b6104e0565b60405161019c91906123ca565b60405180910390f35b6101bf60048036038101906101ba9190612555565b610574565b005b6101db60048036038101906101d69190612610565b610586565b005b6101f760048036038101906101f291906127a2565b610627565b60405161020491906128d8565b60405180910390f35b61022760048036038101906102229190612315565b610740565b604051610234919061216b565b60405180910390f35b610257600480360381019061025291906128fa565b610754565b005b610273600480360381019061026e9190612985565b610764565b005b61028f600480360381019061028a9190612a34565b610776565b005b6102ab60048036038101906102a69190612315565b6108f7565b6040516102b891906120b0565b60405180910390f35b6102db60048036038101906102d69190612a74565b610914565b6040516102e8919061216b565b60405180910390f35b61030b60048036038101906103069190612ab4565b6109a8565b005b61032760048036038101906103229190612b4b565b610a49565b005b60008073ffffffffffffffffffffffffffffffffffffffff168373ffffffffffffffffffffffffffffffffffffffff16141561039a576040517f08c379a000000000000000000000000000000000000000000000000000000000815260040161039190612c10565b60405180910390fd5b60008083815260200190815260200160002060008473ffffffffffffffffffffffffffffffffffffffff1673ffffffffffffffffffffffffffffffffffffffff16815260200190815260200160002054905092915050565b60007fd9b67a26000000000000000000000000000000000000000000000000000000007bffffffffffffffffffffffffffffffffffffffffffffffffffffffff1916827bffffffffffffffffffffffffffffffffffffffffffffffffffffffff191614806104bd57507f0e89341c000000000000000000000000000000000000000000000000000000007bffffffffffffffffffffffffffffffffffffffffffffffffffffffff1916827bffffffffffffffffffffffffffffffffffffffffffffffffffffffff1916145b806104cd57506104cc82610a59565b5b9050919050565b6104dd81610ac3565b50565b6060600280546104ef90612c5f565b80601f016020809104026020016040519081016040528092919081815260200182805461051b90612c5f565b80156105685780601f1061053d57610100808354040283529160200191610568565b820191906000526020600020905b81548152906001019060200180831161054b57829003601f168201915b50505050509050919050565b61058084848484610add565b50505050565b61058e610aef565b73ffffffffffffffffffffffffffffffffffffffff168573ffffffffffffffffffffffffffffffffffffffff1614806105d457506105d3856105ce610aef565b610914565b5b610613576040517f08c379a000000000000000000000000000000000000000000000000000000000815260040161060a90612d03565b60405180910390fd5b6106208585858585610af7565b5050505050565b6060815183511461066d576040517f08c379a000000000000000000000000000000000000000000000000000000000815260040161066490612d95565b60405180910390fd5b6000835167ffffffffffffffff81111561068a576106896121a1565b5b6040519080825280602002602001820160405280156106b85781602001602082028036833780820191505090505b50905060005b8451811015610735576107058582815181106106dd576106dc612db5565b5b60200260200101518583815181106106f8576106f7612db5565b5b6020026020010151610329565b82828151811061071857610717612db5565b5b6020026020010181815250508061072e90612e13565b90506106be565b508091505092915050565b60008061074c836108f7565b119050919050565b61075f838383610e0b565b505050565b61077084848484610e1b565b50505050565b8173ffffffffffffffffffffffffffffffffffffffff16610795610aef565b73ffffffffffffffffffffffffffffffffffffffff1614156107ec576040517f08c379a00000000000000000000000000000000000000000000000000000000081526004016107e390612ece565b60405180910390fd5b80600160006107f9610aef565b73ffffffffffffffffffffffffffffffffffffffff1673ffffffffffffffffffffffffffffffffffffffff16815260200190815260200160002060008473ffffffffffffffffffffffffffffffffffffffff1673ffffffffffffffffffffffffffffffffffffffff16815260200190815260200160002060006101000a81548160ff0219169083151502179055508173ffffffffffffffffffffffffffffffffffffffff166108a6610aef565b73ffffffffffffffffffffffffffffffffffffffff167f17307eab39ab6107e8899845ad3d59bd9653f200f220920489ca2b5937696c31836040516108eb919061216b565b60405180910390a35050565b600060036000838152602001908152602001600020549050919050565b6000600160008473ffffffffffffffffffffffffffffffffffffffff1673ffffffffffffffffffffffffffffffffffffffff16815260200190815260200160002060008373ffffffffffffffffffffffffffffffffffffffff1673ffffffffffffffffffffffffffffffffffffffff16815260200190815260200160002060009054906101000a900460ff16905092915050565b6109b0610aef565b73ffffffffffffffffffffffffffffffffffffffff168573ffffffffffffffffffffffffffffffffffffffff1614806109f657506109f5856109f0610aef565b610914565b5b610a35576040517f08c379a0000000000000000000000000000000000000000000000000000000008152600401610a2c90612f60565b60405180910390fd5b610a428585858585610e2d565b5050505050565b610a548383836110af565b505050565b60007f01ffc9a7000000000000000000000000000000000000000000000000000000007bffffffffffffffffffffffffffffffffffffffffffffffffffffffff1916827bffffffffffffffffffffffffffffffffffffffffffffffffffffffff1916149050919050565b8060029080519060200190610ad9929190611f16565b5050565b610ae9848484846110bf565b50505050565b600033905090565b8151835114610b3b576040517f08c379a0000000000000000000000000000000000000000000000000000000008152600401610b3290612ff2565b60405180910390fd5b600073ffffffffffffffffffffffffffffffffffffffff168473ffffffffffffffffffffffffffffffffffffffff161415610bab576040517f08c379a0000000000000000000000000000000000000000000000000000000008152600401610ba290613084565b60405180910390fd5b6000610bb5610aef565b9050610bc581878787878761114d565b60005b8451811015610d76576000858281518110610be657610be5612db5565b5b602002602001015190506000858381518110610c0557610c04612db5565b5b60200260200101519050600080600084815260200190815260200160002060008b73ffffffffffffffffffffffffffffffffffffffff1673ffffffffffffffffffffffffffffffffffffffff16815260200190815260200160002054905081811015610ca6576040517f08c379a0000000000000000000000000000000000000000000000000000000008152600401610c9d90613116565b60405180910390fd5b81810360008085815260200190815260200160002060008c73ffffffffffffffffffffffffffffffffffffffff1673ffffffffffffffffffffffffffffffffffffffff168152602001908152602001600020819055508160008085815260200190815260200160002060008b73ffffffffffffffffffffffffffffffffffffffff1673ffffffffffffffffffffffffffffffffffffffff1681526020019081526020016000206000828254610d5b9190613136565b9250508190555050505080610d6f90612e13565b9050610bc8565b508473ffffffffffffffffffffffffffffffffffffffff168673ffffffffffffffffffffffffffffffffffffffff168273ffffffffffffffffffffffffffffffffffffffff167f4a39dc06d4c0dbc64b70af90fd698a233a518aa5d07e595d983b8c0526c8f7fb8787604051610ded92919061318c565b60405180910390a4610e03818787878787611155565b505050505050565b610e1683838361132d565b505050565b610e27848484846113b9565b50505050565b600073ffffffffffffffffffffffffffffffffffffffff168473ffffffffffffffffffffffffffffffffffffffff161415610e9d576040517f08c379a0000000000000000000000000000000000000000000000000000000008152600401610e9490613084565b60405180910390fd5b6000610ea7610aef565b9050610ec7818787610eb8886113f5565b610ec1886113f5565b8761114d565b600080600086815260200190815260200160002060008873ffffffffffffffffffffffffffffffffffffffff1673ffffffffffffffffffffffffffffffffffffffff16815260200190815260200160002054905083811015610f5e576040517f08c379a0000000000000000000000000000000000000000000000000000000008152600401610f5590613116565b60405180910390fd5b83810360008087815260200190815260200160002060008973ffffffffffffffffffffffffffffffffffffffff1673ffffffffffffffffffffffffffffffffffffffff168152602001908152602001600020819055508360008087815260200190815260200160002060008873ffffffffffffffffffffffffffffffffffffffff1673ffffffffffffffffffffffffffffffffffffffff16815260200190815260200160002060008282546110139190613136565b925050819055508573ffffffffffffffffffffffffffffffffffffffff168773ffffffffffffffffffffffffffffffffffffffff168373ffffffffffffffffffffffffffffffffffffffff167fc3d58168c5ae7397731d063d5bbf3d657854427343f4c083240f7aacaa2d0f6288886040516110909291906131c3565b60405180910390a46110a682888888888861146f565b50505050505050565b6110ba838383611647565b505050565b6110cb84848484611681565b60005b8351811015611146578281815181106110ea576110e9612db5565b5b60200260200101516003600086848151811061110957611108612db5565b5b60200260200101518152602001908152602001600020600082825461112e9190613136565b925050819055508061113f90612e13565b90506110ce565b5050505050565b505050505050565b6111748473ffffffffffffffffffffffffffffffffffffffff1661189f565b15611325578373ffffffffffffffffffffffffffffffffffffffff1663bc197c8187878686866040518663ffffffff1660e01b81526004016111ba959493929190613250565b6020604051808303816000875af19250505080156111f657506040513d601f19601f820116820180604052508101906111f391906132cd565b60015b61129c57611202613307565b806308c379a0141561125f5750611217613329565b806112225750611261565b806040517f08c379a000000000000000000000000000000000000000000000000000000000815260040161125691906123ca565b60405180910390fd5b505b6040517f08c379a000000000000000000000000000000000000000000000000000000000815260040161129390613431565b60405180910390fd5b63bc197c8160e01b7bffffffffffffffffffffffffffffffffffffffffffffffffffffffff1916817bffffffffffffffffffffffffffffffffffffffffffffffffffffffff191614611323576040517f08c379a000000000000000000000000000000000000000000000000000000000815260040161131a906134c3565b60405180910390fd5b505b505050505050565b6113388383836118b2565b60005b82518110156113b35781818151811061135757611356612db5565b5b60200260200101516003600085848151811061137657611375612db5565b5b60200260200101518152602001908152602001600020600082825461139b91906134e3565b92505081905550806113ac90612e13565b905061133b565b50505050565b6113c584848484611b63565b816003600085815260200190815260200160002060008282546113e89190613136565b9250508190555050505050565b60606000600167ffffffffffffffff811115611414576114136121a1565b5b6040519080825280602002602001820160405280156114425781602001602082028036833780820191505090505b509050828160008151811061145a57611459612db5565b5b60200260200101818152505080915050919050565b61148e8473ffffffffffffffffffffffffffffffffffffffff1661189f565b1561163f578373ffffffffffffffffffffffffffffffffffffffff1663f23a6e6187878686866040518663ffffffff1660e01b81526004016114d4959493929190613517565b6020604051808303816000875af192505050801561151057506040513d601f19601f8201168201806040525081019061150d91906132cd565b60015b6115b65761151c613307565b806308c379a014156115795750611531613329565b8061153c575061157b565b806040517f08c379a000000000000000000000000000000000000000000000000000000000815260040161157091906123ca565b60405180910390fd5b505b6040517f08c379a00000000000000000000000000000000000000000000000000000000081526004016115ad90613431565b60405180910390fd5b63f23a6e6160e01b7bffffffffffffffffffffffffffffffffffffffffffffffffffffffff1916817bffffffffffffffffffffffffffffffffffffffffffffffffffffffff19161461163d576040517f08c379a0000000000000000000000000000000000000000000000000000000008152600401611634906134c3565b60405180910390fd5b505b505050505050565b611652838383611cf9565b8060036000848152602001908152602001600020600082825461167591906134e3565b92505081905550505050565b600073ffffffffffffffffffffffffffffffffffffffff168473ffffffffffffffffffffffffffffffffffffffff1614156116f1576040517f08c379a00000000000000000000000000000000000000000000000000000000081526004016116e8906135e3565b60405180910390fd5b8151835114611735576040517f08c379a000000000000000000000000000000000000000000000000000000000815260040161172c90612ff2565b60405180910390fd5b600061173f610aef565b90506117508160008787878761114d565b60005b84518110156118095783818151811061176f5761176e612db5565b5b602002602001015160008087848151811061178d5761178c612db5565b5b6020026020010151815260200190815260200160002060008873ffffffffffffffffffffffffffffffffffffffff1673ffffffffffffffffffffffffffffffffffffffff16815260200190815260200160002060008282546117ef9190613136565b92505081905550808061180190612e13565b915050611753565b508473ffffffffffffffffffffffffffffffffffffffff16600073ffffffffffffffffffffffffffffffffffffffff168273ffffffffffffffffffffffffffffffffffffffff167f4a39dc06d4c0dbc64b70af90fd698a233a518aa5d07e595d983b8c0526c8f7fb878760405161188192919061318c565b60405180910390a461189881600087878787611155565b5050505050565b600080823b905060008111915050919050565b600073ffffffffffffffffffffffffffffffffffffffff168373ffffffffffffffffffffffffffffffffffffffff161415611922576040517f08c379a000000000000000000000000000000000000000000000000000000000815260040161191990613675565b60405180910390fd5b8051825114611966576040517f08c379a000000000000000000000000000000000000000000000000000000000815260040161195d90612ff2565b60405180910390fd5b6000611970610aef565b90506119908185600086866040518060200160405280600081525061114d565b60005b8351811015611add5760008482815181106119b1576119b0612db5565b5b6020026020010151905060008483815181106119d0576119cf612db5565b5b60200260200101519050600080600084815260200190815260200160002060008973ffffffffffffffffffffffffffffffffffffffff1673ffffffffffffffffffffffffffffffffffffffff16815260200190815260200160002054905081811015611a71576040517f08c379a0000000000000000000000000000000000000000000000000000000008152600401611a6890613707565b60405180910390fd5b81810360008085815260200190815260200160002060008a73ffffffffffffffffffffffffffffffffffffffff1673ffffffffffffffffffffffffffffffffffffffff168152602001908152602001600020819055505050508080611ad590612e13565b915050611993565b50600073ffffffffffffffffffffffffffffffffffffffff168473ffffffffffffffffffffffffffffffffffffffff168273ffffffffffffffffffffffffffffffffffffffff167f4a39dc06d4c0dbc64b70af90fd698a233a518aa5d07e595d983b8c0526c8f7fb8686604051611b5592919061318c565b60405180910390a450505050565b600073ffffffffffffffffffffffffffffffffffffffff168473ffffffffffffffffffffffffffffffffffffffff161415611bd3576040517f08c379a0000000000000000000000000000000000000000000000000000000008152600401611bca906135e3565b60405180910390fd5b6000611bdd610aef565b9050611bfe81600087611bef886113f5565b611bf8886113f5565b8761114d565b8260008086815260200190815260200160002060008773ffffffffffffffffffffffffffffffffffffffff1673ffffffffffffffffffffffffffffffffffffffff1681526020019081526020016000206000828254611c5d9190613136565b925050819055508473ffffffffffffffffffffffffffffffffffffffff16600073ffffffffffffffffffffffffffffffffffffffff168273ffffffffffffffffffffffffffffffffffffffff167fc3d58168c5ae7397731d063d5bbf3d657854427343f4c083240f7aacaa2d0f628787604051611cdb9291906131c3565b60405180910390a4611cf28160008787878761146f565b5050505050565b600073ffffffffffffffffffffffffffffffffffffffff168373ffffffffffffffffffffffffffffffffffffffff161415611d69576040517f08c379a0000000000000000000000000000000000000000000000000000000008152600401611d6090613675565b60405180910390fd5b6000611d73610aef565b9050611da381856000611d85876113f5565b611d8e876113f5565b6040518060200160405280600081525061114d565b600080600085815260200190815260200160002060008673ffffffffffffffffffffffffffffffffffffffff1673ffffffffffffffffffffffffffffffffffffffff16815260200190815260200160002054905082811015611e3a576040517f08c379a0000000000000000000000000000000000000000000000000000000008152600401611e3190613707565b60405180910390fd5b82810360008086815260200190815260200160002060008773ffffffffffffffffffffffffffffffffffffffff1673ffffffffffffffffffffffffffffffffffffffff16815260200190815260200160002081905550600073ffffffffffffffffffffffffffffffffffffffff168573ffffffffffffffffffffffffffffffffffffffff168373ffffffffffffffffffffffffffffffffffffffff167fc3d58168c5ae7397731d063d5bbf3d657854427343f4c083240f7aacaa2d0f628787604051611f079291906131c3565b60405180910390a45050505050565b828054611f2290612c5f565b90600052602060002090601f016020900481019282611f445760008555611f8b565b82601f10611f5d57805160ff1916838001178555611f8b565b82800160010185558215611f8b579182015b82811115611f8a578251825591602001919060010190611f6f565b5b509050611f989190611f9c565b5090565b5b80821115611fb5576000816000905550600101611f9d565b5090565b6000604051905090565b600080fd5b600080fd5b600073ffffffffffffffffffffffffffffffffffffffff82169050919050565b6000611ff882611fcd565b9050919050565b61200881611fed565b811461201357600080fd5b50565b60008135905061202581611fff565b92915050565b6000819050919050565b61203e8161202b565b811461204957600080fd5b50565b60008135905061205b81612035565b92915050565b6000806040838503121561207857612077611fc3565b5b600061208685828601612016565b92505060206120978582860161204c565b9150509250929050565b6120aa8161202b565b82525050565b60006020820190506120c560008301846120a1565b92915050565b60007fffffffff0000000000000000000000000000000000000000000000000000000082169050919050565b612100816120cb565b811461210b57600080fd5b50565b60008135905061211d816120f7565b92915050565b60006020828403121561213957612138611fc3565b5b60006121478482850161210e565b91505092915050565b60008115159050919050565b61216581612150565b82525050565b6000602082019050612180600083018461215c565b92915050565b600080fd5b600080fd5b6000601f19601f8301169050919050565b7f4e487b7100000000000000000000000000000000000000000000000000000000600052604160045260246000fd5b6121d982612190565b810181811067ffffffffffffffff821117156121f8576121f76121a1565b5b80604052505050565b600061220b611fb9565b905061221782826121d0565b919050565b600067ffffffffffffffff821115612237576122366121a1565b5b61224082612190565b9050602081019050919050565b82818337600083830152505050565b600061226f61226a8461221c565b612201565b90508281526020810184848401111561228b5761228a61218b565b5b61229684828561224d565b509392505050565b600082601f8301126122b3576122b2612186565b5b81356122c384826020860161225c565b91505092915050565b6000602082840312156122e2576122e1611fc3565b5b600082013567ffffffffffffffff811115612300576122ff611fc8565b5b61230c8482850161229e565b91505092915050565b60006020828403121561232b5761232a611fc3565b5b60006123398482850161204c565b91505092915050565b600081519050919050565b600082825260208201905092915050565b60005b8381101561237c578082015181840152602081019050612361565b8381111561238b576000848401525b50505050565b600061239c82612342565b6123a6818561234d565b93506123b681856020860161235e565b6123bf81612190565b840191505092915050565b600060208201905081810360008301526123e48184612391565b905092915050565b600067ffffffffffffffff821115612407576124066121a1565b5b602082029050602081019050919050565b600080fd5b600061243061242b846123ec565b612201565b9050808382526020820190506020840283018581111561245357612452612418565b5b835b8181101561247c5780612468888261204c565b845260208401935050602081019050612455565b5050509392505050565b600082601f83011261249b5761249a612186565b5b81356124ab84826020860161241d565b91505092915050565b600067ffffffffffffffff8211156124cf576124ce6121a1565b5b6124d882612190565b9050602081019050919050565b60006124f86124f3846124b4565b612201565b9050828152602081018484840111156125145761251361218b565b5b61251f84828561224d565b509392505050565b600082601f83011261253c5761253b612186565b5b813561254c8482602086016124e5565b91505092915050565b6000806000806080858703121561256f5761256e611fc3565b5b600061257d87828801612016565b945050602085013567ffffffffffffffff81111561259e5761259d611fc8565b5b6125aa87828801612486565b935050604085013567ffffffffffffffff8111156125cb576125ca611fc8565b5b6125d787828801612486565b925050606085013567ffffffffffffffff8111156125f8576125f7611fc8565b5b61260487828801612527565b91505092959194509250565b600080600080600060a0868803121561262c5761262b611fc3565b5b600061263a88828901612016565b955050602061264b88828901612016565b945050604086013567ffffffffffffffff81111561266c5761266b611fc8565b5b61267888828901612486565b935050606086013567ffffffffffffffff81111561269957612698611fc8565b5b6126a588828901612486565b925050608086013567ffffffffffffffff8111156126c6576126c5611fc8565b5b6126d288828901612527565b9150509295509295909350565b600067ffffffffffffffff8211156126fa576126f96121a1565b5b602082029050602081019050919050565b600061271e612719846126df565b612201565b9050808382526020820190506020840283018581111561274157612740612418565b5b835b8181101561276a57806127568882612016565b845260208401935050602081019050612743565b5050509392505050565b600082601f83011261278957612788612186565b5b813561279984826020860161270b565b91505092915050565b600080604083850312156127b9576127b8611fc3565b5b600083013567ffffffffffffffff8111156127d7576127d6611fc8565b5b6127e385828601612774565b925050602083013567ffffffffffffffff81111561280457612803611fc8565b5b61281085828601612486565b9150509250929050565b600081519050919050565b600082825260208201905092915050565b6000819050602082019050919050565b61284f8161202b565b82525050565b60006128618383612846565b60208301905092915050565b6000602082019050919050565b60006128858261281a565b61288f8185612825565b935061289a83612836565b8060005b838110156128cb5781516128b28882612855565b97506128bd8361286d565b92505060018101905061289e565b5085935050505092915050565b600060208201905081810360008301526128f2818461287a565b905092915050565b60008060006060848603121561291357612912611fc3565b5b600061292186828701612016565b935050602084013567ffffffffffffffff81111561294257612941611fc8565b5b61294e86828701612486565b925050604084013567ffffffffffffffff81111561296f5761296e611fc8565b5b61297b86828701612486565b9150509250925092565b6000806000806080858703121561299f5761299e611fc3565b5b60006129ad87828801612016565b94505060206129be8782880161204c565b93505060406129cf8782880161204c565b925050606085013567ffffffffffffffff8111156129f0576129ef611fc8565b5b6129fc87828801612527565b91505092959194509250565b612a1181612150565b8114612a1c57600080fd5b50565b600081359050612a2e81612a08565b92915050565b60008060408385031215612a4b57612a4a611fc3565b5b6000612a5985828601612016565b9250506020612a6a85828601612a1f565b9150509250929050565b60008060408385031215612a8b57612a8a611fc3565b5b6000612a9985828601612016565b9250506020612aaa85828601612016565b9150509250929050565b600080600080600060a08688031215612ad057612acf611fc3565b5b6000612ade88828901612016565b9550506020612aef88828901612016565b9450506040612b008882890161204c565b9350506060612b118882890161204c565b925050608086013567ffffffffffffffff811115612b3257612b31611fc8565b5b612b3e88828901612527565b9150509295509295909350565b600080600060608486031215612b6457612b63611fc3565b5b6000612b7286828701612016565b9350506020612b838682870161204c565b9250506040612b948682870161204c565b9150509250925092565b7f455243313135353a2062616c616e636520717565727920666f7220746865207a60008201527f65726f2061646472657373000000000000000000000000000000000000000000602082015250565b6000612bfa602b8361234d565b9150612c0582612b9e565b604082019050919050565b60006020820190508181036000830152612c2981612bed565b9050919050565b7f4e487b7100000000000000000000000000000000000000000000000000000000600052602260045260246000fd5b60006002820490506001821680612c7757607f821691505b60208210811415612c8b57612c8a612c30565b5b50919050565b7f455243313135353a207472616e736665722063616c6c6572206973206e6f742060008201527f6f776e6572206e6f7220617070726f7665640000000000000000000000000000602082015250565b6000612ced60328361234d565b9150612cf882612c91565b604082019050919050565b60006020820190508181036000830152612d1c81612ce0565b9050919050565b7f455243313135353a206163636f756e747320616e6420696473206c656e67746860008201527f206d69736d617463680000000000000000000000000000000000000000000000602082015250565b6000612d7f60298361234d565b9150612d8a82612d23565b604082019050919050565b60006020820190508181036000830152612dae81612d72565b9050919050565b7f4e487b7100000000000000000000000000000000000000000000000000000000600052603260045260246000fd5b7f4e487b7100000000000000000000000000000000000000000000000000000000600052601160045260246000fd5b6000612e1e8261202b565b91507fffffffffffffffffffffffffffffffffffffffffffffffffffffffffffffffff821415612e5157612e50612de4565b5b600182019050919050565b7f455243313135353a2073657474696e6720617070726f76616c2073746174757360008201527f20666f722073656c660000000000000000000000000000000000000000000000602082015250565b6000612eb860298361234d565b9150612ec382612e5c565b604082019050919050565b60006020820190508181036000830152612ee781612eab565b9050919050565b7f455243313135353a2063616c6c6572206973206e6f74206f776e6572206e6f7260008201527f20617070726f7665640000000000000000000000000000000000000000000000602082015250565b6000612f4a60298361234d565b9150612f5582612eee565b604082019050919050565b60006020820190508181036000830152612f7981612f3d565b9050919050565b7f455243313135353a2069647320616e6420616d6f756e7473206c656e6774682060008201527f6d69736d61746368000000000000000000000000000000000000000000000000602082015250565b6000612fdc60288361234d565b9150612fe782612f80565b604082019050919050565b6000602082019050818103600083015261300b81612fcf565b9050919050565b7f455243313135353a207472616e7366657220746f20746865207a65726f20616460008201527f6472657373000000000000000000000000000000000000000000000000000000602082015250565b600061306e60258361234d565b915061307982613012565b604082019050919050565b6000602082019050818103600083015261309d81613061565b9050919050565b7f455243313135353a20696e73756666696369656e742062616c616e636520666f60008201527f72207472616e7366657200000000000000000000000000000000000000000000602082015250565b6000613100602a8361234d565b915061310b826130a4565b604082019050919050565b6000602082019050818103600083015261312f816130f3565b9050919050565b60006131418261202b565b915061314c8361202b565b9250827fffffffffffffffffffffffffffffffffffffffffffffffffffffffffffffffff0382111561318157613180612de4565b5b828201905092915050565b600060408201905081810360008301526131a6818561287a565b905081810360208301526131ba818461287a565b90509392505050565b60006040820190506131d860008301856120a1565b6131e560208301846120a1565b9392505050565b6131f581611fed565b82525050565b600081519050919050565b600082825260208201905092915050565b6000613222826131fb565b61322c8185613206565b935061323c81856020860161235e565b61324581612190565b840191505092915050565b600060a08201905061326560008301886131ec565b61327260208301876131ec565b8181036040830152613284818661287a565b90508181036060830152613298818561287a565b905081810360808301526132ac8184613217565b90509695505050505050565b6000815190506132c7816120f7565b92915050565b6000602082840312156132e3576132e2611fc3565b5b60006132f1848285016132b8565b91505092915050565b60008160e01c9050919050565b600060033d11156133265760046000803e6133236000516132fa565b90505b90565b600060443d1015613339576133bc565b613341611fb9565b60043d036004823e80513d602482011167ffffffffffffffff821117156133695750506133bc565b808201805167ffffffffffffffff81111561338757505050506133bc565b80602083010160043d0385018111156133a45750505050506133bc565b6133b3826020018501866121d0565b82955050505050505b90565b7f455243313135353a207472616e7366657220746f206e6f6e204552433131353560008201527f526563656976657220696d706c656d656e746572000000000000000000000000602082015250565b600061341b60348361234d565b9150613426826133bf565b604082019050919050565b6000602082019050818103600083015261344a8161340e565b9050919050565b7f455243313135353a204552433131353552656365697665722072656a6563746560008201527f6420746f6b656e73000000000000000000000000000000000000000000000000602082015250565b60006134ad60288361234d565b91506134b882613451565b604082019050919050565b600060208201905081810360008301526134dc816134a0565b9050919050565b60006134ee8261202b565b91506134f98361202b565b92508282101561350c5761350b612de4565b5b828203905092915050565b600060a08201905061352c60008301886131ec565b61353960208301876131ec565b61354660408301866120a1565b61355360608301856120a1565b81810360808301526135658184613217565b90509695505050505050565b7f455243313135353a206d696e7420746f20746865207a65726f2061646472657360008201527f7300000000000000000000000000000000000000000000000000000000000000602082015250565b60006135cd60218361234d565b91506135d882613571565b604082019050919050565b600060208201905081810360008301526135fc816135c0565b9050919050565b7f455243313135353a206275726e2066726f6d20746865207a65726f206164647260008201527f6573730000000000000000000000000000000000000000000000000000000000602082015250565b600061365f60238361234d565b915061366a82613603565b604082019050919050565b6000602082019050818103600083015261368e81613652565b9050919050565b7f455243313135353a206275726e20616d6f756e7420657863656564732062616c60008201527f616e636500000000000000000000000000000000000000000000000000000000602082015250565b60006136f160248361234d565b91506136fc82613695565b604082019050919050565b60006020820190508181036000830152613720816136e4565b905091905056fea2646970667358221220be2351cdbc1826e619315a7282d518938e48894aa0f60df87d8e8251388fa68d64736f6c634300080a0033",
  "immutableReferences": {},
  "source": "// SPDX-License-Identifier: MIT\r\n\r\npragma solidity ^0.8.0;\r\n\r\nimport \"./ERC1155Mock.sol\";\r\nimport \"../token/ERC1155/extensions/ERC1155Supply.sol\";\r\n\r\ncontract ERC1155SupplyMock is ERC1155Mock, ERC1155Supply {\r\n    constructor(string memory uri) ERC1155Mock(uri) {}\r\n\r\n    function _mint(\r\n        address account,\r\n        uint256 id,\r\n        uint256 amount,\r\n        bytes memory data\r\n    ) internal virtual override(ERC1155, ERC1155Supply) {\r\n        super._mint(account, id, amount, data);\r\n    }\r\n\r\n    function _mintBatch(\r\n        address to,\r\n        uint256[] memory ids,\r\n        uint256[] memory amounts,\r\n        bytes memory data\r\n    ) internal virtual override(ERC1155, ERC1155Supply) {\r\n        super._mintBatch(to, ids, amounts, data);\r\n    }\r\n\r\n    function _burn(\r\n        address account,\r\n        uint256 id,\r\n        uint256 amount\r\n    ) internal virtual override(ERC1155, ERC1155Supply) {\r\n        super._burn(account, id, amount);\r\n    }\r\n\r\n    function _burnBatch(\r\n        address account,\r\n        uint256[] memory ids,\r\n        uint256[] memory amounts\r\n    ) internal virtual override(ERC1155, ERC1155Supply) {\r\n        super._burnBatch(account, ids, amounts);\r\n    }\r\n}\r\n",
  "sourcePath": "/home/a/Desktop/pre/contracts/openzeppelin-contracts-master/contracts/mocks/ERC1155SupplyMock.sol",
  "compiler": {
    "name": "solc",
    "version": "0.8.10+commit.fc410830.Emscripten.clang"
  },
  "schemaVersion": "3.4.3",
  "updatedAt": "2021-12-13T12:22:06.106Z",
  "devdoc": {
    "kind": "dev",
    "methods": {
      "balanceOf(address,uint256)": {
        "details": "See {IERC1155-balanceOf}. Requirements: - `account` cannot be the zero address."
      },
      "balanceOfBatch(address[],uint256[])": {
        "details": "See {IERC1155-balanceOfBatch}. Requirements: - `accounts` and `ids` must have the same length."
      },
      "exists(uint256)": {
        "details": "Indicates weither any token exist with a given id, or not."
      },
      "isApprovedForAll(address,address)": {
        "details": "See {IERC1155-isApprovedForAll}."
      },
      "safeBatchTransferFrom(address,address,uint256[],uint256[],bytes)": {
        "details": "See {IERC1155-safeBatchTransferFrom}."
      },
      "safeTransferFrom(address,address,uint256,uint256,bytes)": {
        "details": "See {IERC1155-safeTransferFrom}."
      },
      "setApprovalForAll(address,bool)": {
        "details": "See {IERC1155-setApprovalForAll}."
      },
      "supportsInterface(bytes4)": {
        "details": "See {IERC165-supportsInterface}."
      },
      "totalSupply(uint256)": {
        "details": "Total amount of tokens in with a given id."
      },
      "uri(uint256)": {
        "details": "See {IERC1155MetadataURI-uri}. This implementation returns the same URI for *all* token types. It relies on the token type ID substitution mechanism https://eips.ethereum.org/EIPS/eip-1155#metadata[defined in the EIP]. Clients calling this function must replace the `\\{id\\}` substring with the actual token type ID."
      }
    },
    "version": 1
  },
  "userdoc": {
    "kind": "user",
    "methods": {},
    "version": 1
  }
}