{
  "contractName": "ERC20VotesMock",
  "abi": [
    {
      "inputs": [
        {
          "internalType": "string",
          "name": "name",
          "type": "string"
        },
        {
          "internalType": "string",
          "name": "symbol",
          "type": "string"
        }
      ],
      "stateMutability": "nonpayable",
      "type": "constructor"
    },
    {
      "anonymous": false,
      "inputs": [
        {
          "indexed": true,
          "internalType": "address",
          "name": "owner",
          "type": "address"
        },
        {
          "indexed": true,
          "internalType": "address",
          "name": "spender",
          "type": "address"
        },
        {
          "indexed": false,
          "internalType": "uint256",
          "name": "value",
          "type": "uint256"
        }
      ],
      "name": "Approval",
      "type": "event"
    },
    {
      "anonymous": false,
      "inputs": [
        {
          "indexed": true,
          "internalType": "address",
          "name": "delegator",
          "type": "address"
        },
        {
          "indexed": true,
          "internalType": "address",
          "name": "fromDelegate",
          "type": "address"
        },
        {
          "indexed": true,
          "internalType": "address",
          "name": "toDelegate",
          "type": "address"
        }
      ],
      "name": "DelegateChanged",
      "type": "event"
    },
    {
      "anonymous": false,
      "inputs": [
        {
          "indexed": true,
          "internalType": "address",
          "name": "delegate",
          "type": "address"
        },
        {
          "indexed": false,
          "internalType": "uint256",
          "name": "previousBalance",
          "type": "uint256"
        },
        {
          "indexed": false,
          "internalType": "uint256",
          "name": "newBalance",
          "type": "uint256"
        }
      ],
      "name": "DelegateVotesChanged",
      "type": "event"
    },
    {
      "anonymous": false,
      "inputs": [
        {
          "indexed": true,
          "internalType": "address",
          "name": "from",
          "type": "address"
        },
        {
          "indexed": true,
          "internalType": "address",
          "name": "to",
          "type": "address"
        },
        {
          "indexed": false,
          "internalType": "uint256",
          "name": "value",
          "type": "uint256"
        }
      ],
      "name": "Transfer",
      "type": "event"
    },
    {
      "inputs": [],
      "name": "DOMAIN_SEPARATOR",
      "outputs": [
        {
          "internalType": "bytes32",
          "name": "",
          "type": "bytes32"
        }
      ],
      "stateMutability": "view",
      "type": "function"
    },
    {
      "inputs": [
        {
          "internalType": "address",
          "name": "owner",
          "type": "address"
        },
        {
          "internalType": "address",
          "name": "spender",
          "type": "address"
        }
      ],
      "name": "allowance",
      "outputs": [
        {
          "internalType": "uint256",
          "name": "",
          "type": "uint256"
        }
      ],
      "stateMutability": "view",
      "type": "function"
    },
    {
      "inputs": [
        {
          "internalType": "address",
          "name": "spender",
          "type": "address"
        },
        {
          "internalType": "uint256",
          "name": "amount",
          "type": "uint256"
        }
      ],
      "name": "approve",
      "outputs": [
        {
          "internalType": "bool",
          "name": "",
          "type": "bool"
        }
      ],
      "stateMutability": "nonpayable",
      "type": "function"
    },
    {
      "inputs": [
        {
          "internalType": "address",
          "name": "account",
          "type": "address"
        }
      ],
      "name": "balanceOf",
      "outputs": [
        {
          "internalType": "uint256",
          "name": "",
          "type": "uint256"
        }
      ],
      "stateMutability": "view",
      "type": "function"
    },
    {
      "inputs": [
        {
          "internalType": "address",
          "name": "account",
          "type": "address"
        },
        {
          "internalType": "uint32",
          "name": "pos",
          "type": "uint32"
        }
      ],
      "name": "checkpoints",
      "outputs": [
        {
          "components": [
            {
              "internalType": "uint32",
              "name": "fromBlock",
              "type": "uint32"
            },
            {
              "internalType": "uint224",
              "name": "votes",
              "type": "uint224"
            }
          ],
          "internalType": "struct ERC20Votes.Checkpoint",
          "name": "",
          "type": "tuple"
        }
      ],
      "stateMutability": "view",
      "type": "function"
    },
    {
      "inputs": [],
      "name": "decimals",
      "outputs": [
        {
          "internalType": "uint8",
          "name": "",
          "type": "uint8"
        }
      ],
      "stateMutability": "view",
      "type": "function"
    },
    {
      "inputs": [
        {
          "internalType": "address",
          "name": "spender",
          "type": "address"
        },
        {
          "internalType": "uint256",
          "name": "subtractedValue",
          "type": "uint256"
        }
      ],
      "name": "decreaseAllowance",
      "outputs": [
        {
          "internalType": "bool",
          "name": "",
          "type": "bool"
        }
      ],
      "stateMutability": "nonpayable",
      "type": "function"
    },
    {
      "inputs": [
        {
          "internalType": "address",
          "name": "delegatee",
          "type": "address"
        }
      ],
      "name": "delegate",
      "outputs": [],
      "stateMutability": "nonpayable",
      "type": "function"
    },
    {
      "inputs": [
        {
          "internalType": "address",
          "name": "delegatee",
          "type": "address"
        },
        {
          "internalType": "uint256",
          "name": "nonce",
          "type": "uint256"
        },
        {
          "internalType": "uint256",
          "name": "expiry",
          "type": "uint256"
        },
        {
          "internalType": "uint8",
          "name": "v",
          "type": "uint8"
        },
        {
          "internalType": "bytes32",
          "name": "r",
          "type": "bytes32"
        },
        {
          "internalType": "bytes32",
          "name": "s",
          "type": "bytes32"
        }
      ],
      "name": "delegateBySig",
      "outputs": [],
      "stateMutability": "nonpayable",
      "type": "function"
    },
    {
      "inputs": [
        {
          "internalType": "address",
          "name": "account",
          "type": "address"
        }
      ],
      "name": "delegates",
      "outputs": [
        {
          "internalType": "address",
          "name": "",
          "type": "address"
        }
      ],
      "stateMutability": "view",
      "type": "function"
    },
    {
      "inputs": [
        {
          "internalType": "uint256",
          "name": "blockNumber",
          "type": "uint256"
        }
      ],
      "name": "getPastTotalSupply",
      "outputs": [
        {
          "internalType": "uint256",
          "name": "",
          "type": "uint256"
        }
      ],
      "stateMutability": "view",
      "type": "function"
    },
    {
      "inputs": [
        {
          "internalType": "address",
          "name": "account",
          "type": "address"
        },
        {
          "internalType": "uint256",
          "name": "blockNumber",
          "type": "uint256"
        }
      ],
      "name": "getPastVotes",
      "outputs": [
        {
          "internalType": "uint256",
          "name": "",
          "type": "uint256"
        }
      ],
      "stateMutability": "view",
      "type": "function"
    },
    {
      "inputs": [
        {
          "internalType": "address",
          "name": "account",
          "type": "address"
        }
      ],
      "name": "getVotes",
      "outputs": [
        {
          "internalType": "uint256",
          "name": "",
          "type": "uint256"
        }
      ],
      "stateMutability": "view",
      "type": "function"
    },
    {
      "inputs": [
        {
          "internalType": "address",
          "name": "spender",
          "type": "address"
        },
        {
          "internalType": "uint256",
          "name": "addedValue",
          "type": "uint256"
        }
      ],
      "name": "increaseAllowance",
      "outputs": [
        {
          "internalType": "bool",
          "name": "",
          "type": "bool"
        }
      ],
      "stateMutability": "nonpayable",
      "type": "function"
    },
    {
      "inputs": [],
      "name": "name",
      "outputs": [
        {
          "internalType": "string",
          "name": "",
          "type": "string"
        }
      ],
      "stateMutability": "view",
      "type": "function"
    },
    {
      "inputs": [
        {
          "internalType": "address",
          "name": "owner",
          "type": "address"
        }
      ],
      "name": "nonces",
      "outputs": [
        {
          "internalType": "uint256",
          "name": "",
          "type": "uint256"
        }
      ],
      "stateMutability": "view",
      "type": "function"
    },
    {
      "inputs": [
        {
          "internalType": "address",
          "name": "account",
          "type": "address"
        }
      ],
      "name": "numCheckpoints",
      "outputs": [
        {
          "internalType": "uint32",
          "name": "",
          "type": "uint32"
        }
      ],
      "stateMutability": "view",
      "type": "function"
    },
    {
      "inputs": [
        {
          "internalType": "address",
          "name": "owner",
          "type": "address"
        },
        {
          "internalType": "address",
          "name": "spender",
          "type": "address"
        },
        {
          "internalType": "uint256",
          "name": "value",
          "type": "uint256"
        },
        {
          "internalType": "uint256",
          "name": "deadline",
          "type": "uint256"
        },
        {
          "internalType": "uint8",
          "name": "v",
          "type": "uint8"
        },
        {
          "internalType": "bytes32",
          "name": "r",
          "type": "bytes32"
        },
        {
          "internalType": "bytes32",
          "name": "s",
          "type": "bytes32"
        }
      ],
      "name": "permit",
      "outputs": [],
      "stateMutability": "nonpayable",
      "type": "function"
    },
    {
      "inputs": [],
      "name": "symbol",
      "outputs": [
        {
          "internalType": "string",
          "name": "",
          "type": "string"
        }
      ],
      "stateMutability": "view",
      "type": "function"
    },
    {
      "inputs": [],
      "name": "totalSupply",
      "outputs": [
        {
          "internalType": "uint256",
          "name": "",
          "type": "uint256"
        }
      ],
      "stateMutability": "view",
      "type": "function"
    },
    {
      "inputs": [
        {
          "internalType": "address",
          "name": "recipient",
          "type": "address"
        },
        {
          "internalType": "uint256",
          "name": "amount",
          "type": "uint256"
        }
      ],
      "name": "transfer",
      "outputs": [
        {
          "internalType": "bool",
          "name": "",
          "type": "bool"
        }
      ],
      "stateMutability": "nonpayable",
      "type": "function"
    },
    {
      "inputs": [
        {
          "internalType": "address",
          "name": "sender",
          "type": "address"
        },
        {
          "internalType": "address",
          "name": "recipient",
          "type": "address"
        },
        {
          "internalType": "uint256",
          "name": "amount",
          "type": "uint256"
        }
      ],
      "name": "transferFrom",
      "outputs": [
        {
          "internalType": "bool",
          "name": "",
          "type": "bool"
        }
      ],
      "stateMutability": "nonpayable",
      "type": "function"
    },
    {
      "inputs": [
        {
          "internalType": "address",
          "name": "account",
          "type": "address"
        },
        {
          "internalType": "uint256",
          "name": "amount",
          "type": "uint256"
        }
      ],
      "name": "mint",
      "outputs": [],
      "stateMutability": "nonpayable",
      "type": "function"
    },
    {
      "inputs": [
        {
          "internalType": "address",
          "name": "account",
          "type": "address"
        },
        {
          "internalType": "uint256",
          "name": "amount",
          "type": "uint256"
        }
      ],
      "name": "burn",
      "outputs": [],
      "stateMutability": "nonpayable",
      "type": "function"
    },
    {
      "inputs": [],
      "name": "getChainId",
      "outputs": [
        {
          "internalType": "uint256",
          "name": "",
          "type": "uint256"
        }
      ],
      "stateMutability": "view",
      "type": "function"
    }
  ],
  "bytecode": "0x6101406040527f6e71edae12b1b97f4d1f60370fef10105fa2faae0126114a169c64845d6126c9610120908152503480156200003a57600080fd5b5060405162004012380380620040128339818101604052810190620000609190620003dd565b81806040518060400160405280600181526020017f310000000000000000000000000000000000000000000000000000000000000081525084848160039080519060200190620000b292919062000190565b508060049080519060200190620000cb92919062000190565b50505060008280519060200120905060008280519060200120905060007f8b73c3c69bb8fe3d512ecc4cf759cc79239f7b179b0ffacaa9a75d522b39400f90508260c081815250508160e081815250504660a08181525050620001368184846200015460201b60201c565b6080818152505080610100818152505050505050505050506200059f565b6000838383463060405160200162000171959493929190620004dd565b6040516020818303038152906040528051906020012090509392505050565b8280546200019e9062000569565b90600052602060002090601f016020900481019282620001c257600085556200020e565b82601f10620001dd57805160ff19168380011785556200020e565b828001600101855582156200020e579182015b828111156200020d578251825591602001919060010190620001f0565b5b5090506200021d919062000221565b5090565b5b808211156200023c57600081600090555060010162000222565b5090565b6000604051905090565b600080fd5b600080fd5b600080fd5b600080fd5b6000601f19601f8301169050919050565b7f4e487b7100000000000000000000000000000000000000000000000000000000600052604160045260246000fd5b620002a9826200025e565b810181811067ffffffffffffffff82111715620002cb57620002ca6200026f565b5b80604052505050565b6000620002e062000240565b9050620002ee82826200029e565b919050565b600067ffffffffffffffff8211156200031157620003106200026f565b5b6200031c826200025e565b9050602081019050919050565b60005b83811015620003495780820151818401526020810190506200032c565b8381111562000359576000848401525b50505050565b6000620003766200037084620002f3565b620002d4565b90508281526020810184848401111562000395576200039462000259565b5b620003a284828562000329565b509392505050565b600082601f830112620003c257620003c162000254565b5b8151620003d48482602086016200035f565b91505092915050565b60008060408385031215620003f757620003f66200024a565b5b600083015167ffffffffffffffff8111156200041857620004176200024f565b5b6200042685828601620003aa565b925050602083015167ffffffffffffffff8111156200044a57620004496200024f565b5b6200045885828601620003aa565b9150509250929050565b6000819050919050565b620004778162000462565b82525050565b6000819050919050565b62000492816200047d565b82525050565b600073ffffffffffffffffffffffffffffffffffffffff82169050919050565b6000620004c58262000498565b9050919050565b620004d781620004b8565b82525050565b600060a082019050620004f460008301886200046c565b6200050360208301876200046c565b6200051260408301866200046c565b62000521606083018562000487565b620005306080830184620004cc565b9695505050505050565b7f4e487b7100000000000000000000000000000000000000000000000000000000600052602260045260246000fd5b600060028204905060018216806200058257607f821691505b602082108114156200059957620005986200053a565b5b50919050565b60805160a05160c05160e0516101005161012051613a23620005ef6000396000610e3c01526000611579015260006115bb0152600061159a015260006115260152600061154e0152613a236000f3fe608060405234801561001057600080fd5b50600436106101735760003560e01c80636fcfff45116100de5780639dc29fac11610097578063c3cda52011610071578063c3cda520146104c0578063d505accf146104dc578063dd62ed3e146104f8578063f1127ed81461052857610173565b80639dc29fac14610444578063a457c2d714610460578063a9059cbb1461049057610173565b80636fcfff451461033657806370a08231146103665780637ecebe00146103965780638e539e8c146103c657806395d89b41146103f65780639ab24eb01461041457610173565b80633644e515116101305780633644e51514610250578063395093511461026e5780633a46b1a81461029e57806340c10f19146102ce578063587cde1e146102ea5780635c19a95c1461031a57610173565b806306fdde0314610178578063095ea7b31461019657806318160ddd146101c657806323b872dd146101e4578063313ce567146102145780633408e47014610232575b600080fd5b610180610558565b60405161018d9190612573565b60405180910390f35b6101b060048036038101906101ab919061262e565b6105ea565b6040516101bd9190612689565b60405180910390f35b6101ce610608565b6040516101db91906126b3565b60405180910390f35b6101fe60048036038101906101f991906126ce565b610612565b60405161020b9190612689565b60405180910390f35b61021c61070a565b604051610229919061273d565b60405180910390f35b61023a610713565b60405161024791906126b3565b60405180910390f35b61025861071b565b6040516102659190612771565b60405180910390f35b6102886004803603810190610283919061262e565b61072a565b6040516102959190612689565b60405180910390f35b6102b860048036038101906102b3919061262e565b6107d6565b6040516102c591906126b3565b60405180910390f35b6102e860048036038101906102e3919061262e565b61086a565b005b61030460048036038101906102ff919061278c565b610878565b60405161031191906127c8565b60405180910390f35b610334600480360381019061032f919061278c565b6108e1565b005b610350600480360381019061034b919061278c565b6108f5565b60405161035d9190612802565b60405180910390f35b610380600480360381019061037b919061278c565b610949565b60405161038d91906126b3565b60405180910390f35b6103b060048036038101906103ab919061278c565b610991565b6040516103bd91906126b3565b60405180910390f35b6103e060048036038101906103db919061281d565b6109e1565b6040516103ed91906126b3565b60405180910390f35b6103fe610a37565b60405161040b9190612573565b60405180910390f35b61042e6004803603810190610429919061278c565b610ac9565b60405161043b91906126b3565b60405180910390f35b61045e6004803603810190610459919061262e565b610bda565b005b61047a6004803603810190610475919061262e565b610be8565b6040516104879190612689565b60405180910390f35b6104aa60048036038101906104a5919061262e565b610cd3565b6040516104b79190612689565b60405180910390f35b6104da60048036038101906104d591906128a2565b610cf1565b005b6104f660048036038101906104f1919061292f565b610df5565b005b610512600480360381019061050d91906129d1565b610f37565b60405161051f91906126b3565b60405180910390f35b610542600480360381019061053d9190612a3d565b610fbe565b60405161054f9190612af2565b60405180910390f35b60606003805461056790612b3c565b80601f016020809104026020016040519081016040528092919081815260200182805461059390612b3c565b80156105e05780601f106105b5576101008083540402835291602001916105e0565b820191906000526020600020905b8154815290600101906020018083116105c357829003601f168201915b5050505050905090565b60006105fe6105f76110ce565b84846110d6565b6001905092915050565b6000600254905090565b600061061f8484846112a1565b6000600160008673ffffffffffffffffffffffffffffffffffffffff1673ffffffffffffffffffffffffffffffffffffffff168152602001908152602001600020600061066a6110ce565b73ffffffffffffffffffffffffffffffffffffffff1673ffffffffffffffffffffffffffffffffffffffff168152602001908152602001600020549050828110156106ea576040517f08c379a00000000000000000000000000000000000000000000000000000000081526004016106e190612be0565b60405180910390fd5b6106fe856106f66110ce565b8584036110d6565b60019150509392505050565b60006012905090565b600046905090565b6000610725611522565b905090565b60006107cc6107376110ce565b8484600160006107456110ce565b73ffffffffffffffffffffffffffffffffffffffff1673ffffffffffffffffffffffffffffffffffffffff16815260200190815260200160002060008873ffffffffffffffffffffffffffffffffffffffff1673ffffffffffffffffffffffffffffffffffffffff168152602001908152602001600020546107c79190612c2f565b6110d6565b6001905092915050565b600043821061081a576040517f08c379a000000000000000000000000000000000000000000000000000000000815260040161081190612cd1565b60405180910390fd5b610862600760008573ffffffffffffffffffffffffffffffffffffffff1673ffffffffffffffffffffffffffffffffffffffff168152602001908152602001600020836115e5565b905092915050565b61087482826116f1565b5050565b6000600660008373ffffffffffffffffffffffffffffffffffffffff1673ffffffffffffffffffffffffffffffffffffffff16815260200190815260200160002060009054906101000a900473ffffffffffffffffffffffffffffffffffffffff169050919050565b6108f26108ec6110ce565b8261177e565b50565b6000610942600760008473ffffffffffffffffffffffffffffffffffffffff1673ffffffffffffffffffffffffffffffffffffffff16815260200190815260200160002080549050611898565b9050919050565b60008060008373ffffffffffffffffffffffffffffffffffffffff1673ffffffffffffffffffffffffffffffffffffffff168152602001908152602001600020549050919050565b60006109da600560008473ffffffffffffffffffffffffffffffffffffffff1673ffffffffffffffffffffffffffffffffffffffff1681526020019081526020016000206118eb565b9050919050565b6000438210610a25576040517f08c379a0000000000000000000000000000000000000000000000000000000008152600401610a1c90612cd1565b60405180910390fd5b610a306008836115e5565b9050919050565b606060048054610a4690612b3c565b80601f0160208091040260200160405190810160405280929190818152602001828054610a7290612b3c565b8015610abf5780601f10610a9457610100808354040283529160200191610abf565b820191906000526020600020905b815481529060010190602001808311610aa257829003601f168201915b5050505050905090565b600080600760008473ffffffffffffffffffffffffffffffffffffffff1673ffffffffffffffffffffffffffffffffffffffff16815260200190815260200160002080549050905060008114610bb157600760008473ffffffffffffffffffffffffffffffffffffffff1673ffffffffffffffffffffffffffffffffffffffff168152602001908152602001600020600182610b659190612cf1565b81548110610b7657610b75612d25565b5b9060005260206000200160000160049054906101000a90047bffffffffffffffffffffffffffffffffffffffffffffffffffffffff16610bb4565b60005b7bffffffffffffffffffffffffffffffffffffffffffffffffffffffff16915050919050565b610be482826118f9565b5050565b60008060016000610bf76110ce565b73ffffffffffffffffffffffffffffffffffffffff1673ffffffffffffffffffffffffffffffffffffffff16815260200190815260200160002060008573ffffffffffffffffffffffffffffffffffffffff1673ffffffffffffffffffffffffffffffffffffffff16815260200190815260200160002054905082811015610cb4576040517f08c379a0000000000000000000000000000000000000000000000000000000008152600401610cab90612dc6565b60405180910390fd5b610cc8610cbf6110ce565b858584036110d6565b600191505092915050565b6000610ce7610ce06110ce565b84846112a1565b6001905092915050565b83421115610d34576040517f08c379a0000000000000000000000000000000000000000000000000000000008152600401610d2b90612e32565b60405180910390fd5b6000610d96610d8e7fe48329057bfd03d55e49b547132e39cffd9c1820ad7b9d4c5307691425d15adf898989604051602001610d739493929190612e52565b60405160208183030381529060405280519060200120611917565b858585611931565b9050610da181611abc565b8614610de2576040517f08c379a0000000000000000000000000000000000000000000000000000000008152600401610dd990612ee3565b60405180910390fd5b610dec818861177e565b50505050505050565b83421115610e38576040517f08c379a0000000000000000000000000000000000000000000000000000000008152600401610e2f90612f4f565b60405180910390fd5b60007f0000000000000000000000000000000000000000000000000000000000000000888888610e678c611abc565b89604051602001610e7d96959493929190612f6f565b6040516020818303038152906040528051906020012090506000610ea082611917565b90506000610eb082878787611931565b90508973ffffffffffffffffffffffffffffffffffffffff168173ffffffffffffffffffffffffffffffffffffffff1614610f20576040517f08c379a0000000000000000000000000000000000000000000000000000000008152600401610f179061301c565b60405180910390fd5b610f2b8a8a8a6110d6565b50505050505050505050565b6000600160008473ffffffffffffffffffffffffffffffffffffffff1673ffffffffffffffffffffffffffffffffffffffff16815260200190815260200160002060008373ffffffffffffffffffffffffffffffffffffffff1673ffffffffffffffffffffffffffffffffffffffff16815260200190815260200160002054905092915050565b610fc661249c565b600760008473ffffffffffffffffffffffffffffffffffffffff1673ffffffffffffffffffffffffffffffffffffffff1681526020019081526020016000208263ffffffff168154811061101d5761101c612d25565b5b906000526020600020016040518060400160405290816000820160009054906101000a900463ffffffff1663ffffffff1663ffffffff1681526020016000820160049054906101000a90047bffffffffffffffffffffffffffffffffffffffffffffffffffffffff167bffffffffffffffffffffffffffffffffffffffffffffffffffffffff167bffffffffffffffffffffffffffffffffffffffffffffffffffffffff1681525050905092915050565b600033905090565b600073ffffffffffffffffffffffffffffffffffffffff168373ffffffffffffffffffffffffffffffffffffffff161415611146576040517f08c379a000000000000000000000000000000000000000000000000000000000815260040161113d906130ae565b60405180910390fd5b600073ffffffffffffffffffffffffffffffffffffffff168273ffffffffffffffffffffffffffffffffffffffff1614156111b6576040517f08c379a00000000000000000000000000000000000000000000000000000000081526004016111ad90613140565b60405180910390fd5b80600160008573ffffffffffffffffffffffffffffffffffffffff1673ffffffffffffffffffffffffffffffffffffffff16815260200190815260200160002060008473ffffffffffffffffffffffffffffffffffffffff1673ffffffffffffffffffffffffffffffffffffffff168152602001908152602001600020819055508173ffffffffffffffffffffffffffffffffffffffff168373ffffffffffffffffffffffffffffffffffffffff167f8c5be1e5ebec7d5bd14f71427d1e84f3dd0314c0f7b2291e5b200ac8c7c3b9258360405161129491906126b3565b60405180910390a3505050565b600073ffffffffffffffffffffffffffffffffffffffff168373ffffffffffffffffffffffffffffffffffffffff161415611311576040517f08c379a0000000000000000000000000000000000000000000000000000000008152600401611308906131d2565b60405180910390fd5b600073ffffffffffffffffffffffffffffffffffffffff168273ffffffffffffffffffffffffffffffffffffffff161415611381576040517f08c379a000000000000000000000000000000000000000000000000000000000815260040161137890613264565b60405180910390fd5b61138c838383611b1a565b60008060008573ffffffffffffffffffffffffffffffffffffffff1673ffffffffffffffffffffffffffffffffffffffff16815260200190815260200160002054905081811015611412576040517f08c379a0000000000000000000000000000000000000000000000000000000008152600401611409906132f6565b60405180910390fd5b8181036000808673ffffffffffffffffffffffffffffffffffffffff1673ffffffffffffffffffffffffffffffffffffffff16815260200190815260200160002081905550816000808573ffffffffffffffffffffffffffffffffffffffff1673ffffffffffffffffffffffffffffffffffffffff16815260200190815260200160002060008282546114a59190612c2f565b925050819055508273ffffffffffffffffffffffffffffffffffffffff168473ffffffffffffffffffffffffffffffffffffffff167fddf252ad1be2c89b69c2b068fc378daa952ba7f163c4a11628f55a4df523b3ef8460405161150991906126b3565b60405180910390a361151c848484611b1f565b50505050565b60007f0000000000000000000000000000000000000000000000000000000000000000461415611574577f000000000000000000000000000000000000000000000000000000000000000090506115e2565b6115df7f00000000000000000000000000000000000000000000000000000000000000007f00000000000000000000000000000000000000000000000000000000000000007f0000000000000000000000000000000000000000000000000000000000000000611b4a565b90505b90565b6000808380549050905060005b818110156116645760006116068284611b84565b90508486828154811061161c5761161b612d25565b5b9060005260206000200160000160009054906101000a900463ffffffff1663ffffffff16111561164e5780925061165e565b60018161165b9190612c2f565b91505b506115f2565b600082146116c6578460018361167a9190612cf1565b8154811061168b5761168a612d25565b5b9060005260206000200160000160049054906101000a90047bffffffffffffffffffffffffffffffffffffffffffffffffffffffff166116c9565b60005b7bffffffffffffffffffffffffffffffffffffffffffffffffffffffff169250505092915050565b6116fb8282611beb565b611703611d4b565b7bffffffffffffffffffffffffffffffffffffffffffffffffffffffff16611729610608565b111561176a576040517f08c379a000000000000000000000000000000000000000000000000000000000815260040161176190613388565b60405180910390fd5b6117786008611d6f83611d85565b50505050565b600061178983610878565b9050600061179684610949565b905082600660008673ffffffffffffffffffffffffffffffffffffffff1673ffffffffffffffffffffffffffffffffffffffff16815260200190815260200160002060006101000a81548173ffffffffffffffffffffffffffffffffffffffff021916908373ffffffffffffffffffffffffffffffffffffffff1602179055508273ffffffffffffffffffffffffffffffffffffffff168273ffffffffffffffffffffffffffffffffffffffff168573ffffffffffffffffffffffffffffffffffffffff167f3134e8a2e6d97e929a7e54011ea5485d7d196dd5f0ba4d4ef95803e8e3fc257f60405160405180910390a4611892828483611ffd565b50505050565b600063ffffffff80168211156118e3576040517f08c379a00000000000000000000000000000000000000000000000000000000081526004016118da9061341a565b60405180910390fd5b819050919050565b600081600001549050919050565b61190382826121f6565b61191160086123cd83611d85565b50505050565b600061192a611924611522565b836123e3565b9050919050565b60007f7fffffffffffffffffffffffffffffff5d576e7357a4501ddfe92f46681b20a08260001c1115611999576040517f08c379a0000000000000000000000000000000000000000000000000000000008152600401611990906134ac565b60405180910390fd5b601b8460ff1614806119ae5750601c8460ff16145b6119ed576040517f08c379a00000000000000000000000000000000000000000000000000000000081526004016119e49061353e565b60405180910390fd5b600060018686868660405160008152602001604052604051611a12949392919061355e565b6020604051602081039080840390855afa158015611a34573d6000803e3d6000fd5b505050602060405103519050600073ffffffffffffffffffffffffffffffffffffffff168173ffffffffffffffffffffffffffffffffffffffff161415611ab0576040517f08c379a0000000000000000000000000000000000000000000000000000000008152600401611aa7906135ef565b60405180910390fd5b80915050949350505050565b600080600560008473ffffffffffffffffffffffffffffffffffffffff1673ffffffffffffffffffffffffffffffffffffffff1681526020019081526020016000209050611b09816118eb565b9150611b1481612416565b50919050565b505050565b611b2a83838361242c565b611b45611b3684610878565b611b3f84610878565b83611ffd565b505050565b60008383834630604051602001611b6595949392919061360f565b6040516020818303038152906040528051906020012090509392505050565b600060028083611b949190613691565b600285611ba19190613691565b611bab9190612c2f565b611bb591906136c2565b600283611bc291906136c2565b600285611bcf91906136c2565b611bd99190612c2f565b611be39190612c2f565b905092915050565b600073ffffffffffffffffffffffffffffffffffffffff168273ffffffffffffffffffffffffffffffffffffffff161415611c5b576040517f08c379a0000000000000000000000000000000000000000000000000000000008152600401611c529061373f565b60405180910390fd5b611c6760008383611b1a565b8060026000828254611c799190612c2f565b92505081905550806000808473ffffffffffffffffffffffffffffffffffffffff1673ffffffffffffffffffffffffffffffffffffffff1681526020019081526020016000206000828254611cce9190612c2f565b925050819055508173ffffffffffffffffffffffffffffffffffffffff16600073ffffffffffffffffffffffffffffffffffffffff167fddf252ad1be2c89b69c2b068fc378daa952ba7f163c4a11628f55a4df523b3ef83604051611d3391906126b3565b60405180910390a3611d4760008383611b1f565b5050565b60007bffffffffffffffffffffffffffffffffffffffffffffffffffffffff905090565b60008183611d7d9190612c2f565b905092915050565b60008060008580549050905060008114611df35785600182611da79190612cf1565b81548110611db857611db7612d25565b5b9060005260206000200160000160049054906101000a90047bffffffffffffffffffffffffffffffffffffffffffffffffffffffff16611df6565b60005b7bffffffffffffffffffffffffffffffffffffffffffffffffffffffff169250611e2483858763ffffffff16565b9150600081118015611e7757504386600183611e409190612cf1565b81548110611e5157611e50612d25565b5b9060005260206000200160000160009054906101000a900463ffffffff1663ffffffff16145b15611f0457611e8582612431565b86600183611e939190612cf1565b81548110611ea457611ea3612d25565b5b9060005260206000200160000160046101000a8154817bffffffffffffffffffffffffffffffffffffffffffffffffffffffff02191690837bffffffffffffffffffffffffffffffffffffffffffffffffffffffff160217905550611ff4565b856040518060400160405280611f1943611898565b63ffffffff168152602001611f2d85612431565b7bffffffffffffffffffffffffffffffffffffffffffffffffffffffff168152509080600181540180825580915050600190039060005260206000200160009091909190915060008201518160000160006101000a81548163ffffffff021916908363ffffffff16021790555060208201518160000160046101000a8154817bffffffffffffffffffffffffffffffffffffffffffffffffffffffff02191690837bffffffffffffffffffffffffffffffffffffffffffffffffffffffff16021790555050505b50935093915050565b8173ffffffffffffffffffffffffffffffffffffffff168373ffffffffffffffffffffffffffffffffffffffff16141580156120395750600081115b156121f157600073ffffffffffffffffffffffffffffffffffffffff168373ffffffffffffffffffffffffffffffffffffffff1614612117576000806120c0600760008773ffffffffffffffffffffffffffffffffffffffff1673ffffffffffffffffffffffffffffffffffffffff1681526020019081526020016000206123cd85611d85565b915091508473ffffffffffffffffffffffffffffffffffffffff167fdec2bacdd2f05b59de34da9b523dff8be42e5e38e818c82fdb0bae774387a724838360405161210c92919061375f565b60405180910390a250505b600073ffffffffffffffffffffffffffffffffffffffff168273ffffffffffffffffffffffffffffffffffffffff16146121f057600080612199600760008673ffffffffffffffffffffffffffffffffffffffff1673ffffffffffffffffffffffffffffffffffffffff168152602001908152602001600020611d6f85611d85565b915091508373ffffffffffffffffffffffffffffffffffffffff167fdec2bacdd2f05b59de34da9b523dff8be42e5e38e818c82fdb0bae774387a72483836040516121e592919061375f565b60405180910390a250505b5b505050565b600073ffffffffffffffffffffffffffffffffffffffff168273ffffffffffffffffffffffffffffffffffffffff161415612266576040517f08c379a000000000000000000000000000000000000000000000000000000000815260040161225d906137fa565b60405180910390fd5b61227282600083611b1a565b60008060008473ffffffffffffffffffffffffffffffffffffffff1673ffffffffffffffffffffffffffffffffffffffff168152602001908152602001600020549050818110156122f8576040517f08c379a00000000000000000000000000000000000000000000000000000000081526004016122ef9061388c565b60405180910390fd5b8181036000808573ffffffffffffffffffffffffffffffffffffffff1673ffffffffffffffffffffffffffffffffffffffff16815260200190815260200160002081905550816002600082825461234f9190612cf1565b92505081905550600073ffffffffffffffffffffffffffffffffffffffff168373ffffffffffffffffffffffffffffffffffffffff167fddf252ad1be2c89b69c2b068fc378daa952ba7f163c4a11628f55a4df523b3ef846040516123b491906126b3565b60405180910390a36123c883600084611b1f565b505050565b600081836123db9190612cf1565b905092915050565b600082826040516020016123f8929190613924565b60405160208183030381529060405280519060200120905092915050565b6001816000016000828254019250508190555050565b505050565b60007bffffffffffffffffffffffffffffffffffffffffffffffffffffffff8016821115612494576040517f08c379a000000000000000000000000000000000000000000000000000000000815260040161248b906139cd565b60405180910390fd5b819050919050565b6040518060400160405280600063ffffffff16815260200160007bffffffffffffffffffffffffffffffffffffffffffffffffffffffff1681525090565b600081519050919050565b600082825260208201905092915050565b60005b838110156125145780820151818401526020810190506124f9565b83811115612523576000848401525b50505050565b6000601f19601f8301169050919050565b6000612545826124da565b61254f81856124e5565b935061255f8185602086016124f6565b61256881612529565b840191505092915050565b6000602082019050818103600083015261258d818461253a565b905092915050565b600080fd5b600073ffffffffffffffffffffffffffffffffffffffff82169050919050565b60006125c58261259a565b9050919050565b6125d5816125ba565b81146125e057600080fd5b50565b6000813590506125f2816125cc565b92915050565b6000819050919050565b61260b816125f8565b811461261657600080fd5b50565b60008135905061262881612602565b92915050565b6000806040838503121561264557612644612595565b5b6000612653858286016125e3565b925050602061266485828601612619565b9150509250929050565b60008115159050919050565b6126838161266e565b82525050565b600060208201905061269e600083018461267a565b92915050565b6126ad816125f8565b82525050565b60006020820190506126c860008301846126a4565b92915050565b6000806000606084860312156126e7576126e6612595565b5b60006126f5868287016125e3565b9350506020612706868287016125e3565b925050604061271786828701612619565b9150509250925092565b600060ff82169050919050565b61273781612721565b82525050565b6000602082019050612752600083018461272e565b92915050565b6000819050919050565b61276b81612758565b82525050565b60006020820190506127866000830184612762565b92915050565b6000602082840312156127a2576127a1612595565b5b60006127b0848285016125e3565b91505092915050565b6127c2816125ba565b82525050565b60006020820190506127dd60008301846127b9565b92915050565b600063ffffffff82169050919050565b6127fc816127e3565b82525050565b600060208201905061281760008301846127f3565b92915050565b60006020828403121561283357612832612595565b5b600061284184828501612619565b91505092915050565b61285381612721565b811461285e57600080fd5b50565b6000813590506128708161284a565b92915050565b61287f81612758565b811461288a57600080fd5b50565b60008135905061289c81612876565b92915050565b60008060008060008060c087890312156128bf576128be612595565b5b60006128cd89828a016125e3565b96505060206128de89828a01612619565b95505060406128ef89828a01612619565b945050606061290089828a01612861565b935050608061291189828a0161288d565b92505060a061292289828a0161288d565b9150509295509295509295565b600080600080600080600060e0888a03121561294e5761294d612595565b5b600061295c8a828b016125e3565b975050602061296d8a828b016125e3565b965050604061297e8a828b01612619565b955050606061298f8a828b01612619565b94505060806129a08a828b01612861565b93505060a06129b18a828b0161288d565b92505060c06129c28a828b0161288d565b91505092959891949750929550565b600080604083850312156129e8576129e7612595565b5b60006129f6858286016125e3565b9250506020612a07858286016125e3565b9150509250929050565b612a1a816127e3565b8114612a2557600080fd5b50565b600081359050612a3781612a11565b92915050565b60008060408385031215612a5457612a53612595565b5b6000612a62858286016125e3565b9250506020612a7385828601612a28565b9150509250929050565b612a86816127e3565b82525050565b60007bffffffffffffffffffffffffffffffffffffffffffffffffffffffff82169050919050565b612abd81612a8c565b82525050565b604082016000820151612ad96000850182612a7d565b506020820151612aec6020850182612ab4565b50505050565b6000604082019050612b076000830184612ac3565b92915050565b7f4e487b7100000000000000000000000000000000000000000000000000000000600052602260045260246000fd5b60006002820490506001821680612b5457607f821691505b60208210811415612b6857612b67612b0d565b5b50919050565b7f45524332303a207472616e7366657220616d6f756e742065786365656473206160008201527f6c6c6f77616e6365000000000000000000000000000000000000000000000000602082015250565b6000612bca6028836124e5565b9150612bd582612b6e565b604082019050919050565b60006020820190508181036000830152612bf981612bbd565b9050919050565b7f4e487b7100000000000000000000000000000000000000000000000000000000600052601160045260246000fd5b6000612c3a826125f8565b9150612c45836125f8565b9250827fffffffffffffffffffffffffffffffffffffffffffffffffffffffffffffffff03821115612c7a57612c79612c00565b5b828201905092915050565b7f4552433230566f7465733a20626c6f636b206e6f7420796574206d696e656400600082015250565b6000612cbb601f836124e5565b9150612cc682612c85565b602082019050919050565b60006020820190508181036000830152612cea81612cae565b9050919050565b6000612cfc826125f8565b9150612d07836125f8565b925082821015612d1a57612d19612c00565b5b828203905092915050565b7f4e487b7100000000000000000000000000000000000000000000000000000000600052603260045260246000fd5b7f45524332303a2064656372656173656420616c6c6f77616e63652062656c6f7760008201527f207a65726f000000000000000000000000000000000000000000000000000000602082015250565b6000612db06025836124e5565b9150612dbb82612d54565b604082019050919050565b60006020820190508181036000830152612ddf81612da3565b9050919050565b7f4552433230566f7465733a207369676e61747572652065787069726564000000600082015250565b6000612e1c601d836124e5565b9150612e2782612de6565b602082019050919050565b60006020820190508181036000830152612e4b81612e0f565b9050919050565b6000608082019050612e676000830187612762565b612e7460208301866127b9565b612e8160408301856126a4565b612e8e60608301846126a4565b95945050505050565b7f4552433230566f7465733a20696e76616c6964206e6f6e636500000000000000600082015250565b6000612ecd6019836124e5565b9150612ed882612e97565b602082019050919050565b60006020820190508181036000830152612efc81612ec0565b9050919050565b7f45524332305065726d69743a206578706972656420646561646c696e65000000600082015250565b6000612f39601d836124e5565b9150612f4482612f03565b602082019050919050565b60006020820190508181036000830152612f6881612f2c565b9050919050565b600060c082019050612f846000830189612762565b612f9160208301886127b9565b612f9e60408301876127b9565b612fab60608301866126a4565b612fb860808301856126a4565b612fc560a08301846126a4565b979650505050505050565b7f45524332305065726d69743a20696e76616c6964207369676e61747572650000600082015250565b6000613006601e836124e5565b915061301182612fd0565b602082019050919050565b6000602082019050818103600083015261303581612ff9565b9050919050565b7f45524332303a20617070726f76652066726f6d20746865207a65726f2061646460008201527f7265737300000000000000000000000000000000000000000000000000000000602082015250565b60006130986024836124e5565b91506130a38261303c565b604082019050919050565b600060208201905081810360008301526130c78161308b565b9050919050565b7f45524332303a20617070726f766520746f20746865207a65726f20616464726560008201527f7373000000000000000000000000000000000000000000000000000000000000602082015250565b600061312a6022836124e5565b9150613135826130ce565b604082019050919050565b600060208201905081810360008301526131598161311d565b9050919050565b7f45524332303a207472616e736665722066726f6d20746865207a65726f20616460008201527f6472657373000000000000000000000000000000000000000000000000000000602082015250565b60006131bc6025836124e5565b91506131c782613160565b604082019050919050565b600060208201905081810360008301526131eb816131af565b9050919050565b7f45524332303a207472616e7366657220746f20746865207a65726f206164647260008201527f6573730000000000000000000000000000000000000000000000000000000000602082015250565b600061324e6023836124e5565b9150613259826131f2565b604082019050919050565b6000602082019050818103600083015261327d81613241565b9050919050565b7f45524332303a207472616e7366657220616d6f756e742065786365656473206260008201527f616c616e63650000000000000000000000000000000000000000000000000000602082015250565b60006132e06026836124e5565b91506132eb82613284565b604082019050919050565b6000602082019050818103600083015261330f816132d3565b9050919050565b7f4552433230566f7465733a20746f74616c20737570706c79207269736b73206f60008201527f766572666c6f77696e6720766f74657300000000000000000000000000000000602082015250565b60006133726030836124e5565b915061337d82613316565b604082019050919050565b600060208201905081810360008301526133a181613365565b9050919050565b7f53616665436173743a2076616c756520646f65736e27742066697420696e203360008201527f3220626974730000000000000000000000000000000000000000000000000000602082015250565b60006134046026836124e5565b915061340f826133a8565b604082019050919050565b60006020820190508181036000830152613433816133f7565b9050919050565b7f45434453413a20696e76616c6964207369676e6174757265202773272076616c60008201527f7565000000000000000000000000000000000000000000000000000000000000602082015250565b60006134966022836124e5565b91506134a18261343a565b604082019050919050565b600060208201905081810360008301526134c581613489565b9050919050565b7f45434453413a20696e76616c6964207369676e6174757265202776272076616c60008201527f7565000000000000000000000000000000000000000000000000000000000000602082015250565b60006135286022836124e5565b9150613533826134cc565b604082019050919050565b600060208201905081810360008301526135578161351b565b9050919050565b60006080820190506135736000830187612762565b613580602083018661272e565b61358d6040830185612762565b61359a6060830184612762565b95945050505050565b7f45434453413a20696e76616c6964207369676e61747572650000000000000000600082015250565b60006135d96018836124e5565b91506135e4826135a3565b602082019050919050565b60006020820190508181036000830152613608816135cc565b9050919050565b600060a0820190506136246000830188612762565b6136316020830187612762565b61363e6040830186612762565b61364b60608301856126a4565b61365860808301846127b9565b9695505050505050565b7f4e487b7100000000000000000000000000000000000000000000000000000000600052601260045260246000fd5b600061369c826125f8565b91506136a7836125f8565b9250826136b7576136b6613662565b5b828206905092915050565b60006136cd826125f8565b91506136d8836125f8565b9250826136e8576136e7613662565b5b828204905092915050565b7f45524332303a206d696e7420746f20746865207a65726f206164647265737300600082015250565b6000613729601f836124e5565b9150613734826136f3565b602082019050919050565b600060208201905081810360008301526137588161371c565b9050919050565b600060408201905061377460008301856126a4565b61378160208301846126a4565b9392505050565b7f45524332303a206275726e2066726f6d20746865207a65726f2061646472657360008201527f7300000000000000000000000000000000000000000000000000000000000000602082015250565b60006137e46021836124e5565b91506137ef82613788565b604082019050919050565b60006020820190508181036000830152613813816137d7565b9050919050565b7f45524332303a206275726e20616d6f756e7420657863656564732062616c616e60008201527f6365000000000000000000000000000000000000000000000000000000000000602082015250565b60006138766022836124e5565b91506138818261381a565b604082019050919050565b600060208201905081810360008301526138a581613869565b9050919050565b600081905092915050565b7f1901000000000000000000000000000000000000000000000000000000000000600082015250565b60006138ed6002836138ac565b91506138f8826138b7565b600282019050919050565b6000819050919050565b61391e61391982612758565b613903565b82525050565b600061392f826138e0565b915061393b828561390d565b60208201915061394b828461390d565b6020820191508190509392505050565b7f53616665436173743a2076616c756520646f65736e27742066697420696e203260008201527f3234206269747300000000000000000000000000000000000000000000000000602082015250565b60006139b76027836124e5565b91506139c28261395b565b604082019050919050565b600060208201905081810360008301526139e6816139aa565b905091905056fea264697066735822122012a84ba9b1f78e2729ec35b5804175625f917289dc6b4d4154ffa9f9f84f4a6564736f6c634300080a0033",
  "immutableReferences": {
    "14064": [
      {
        "length": 32,
        "start": 3644
      }
    ],
    "19098": [
      {
        "length": 32,
        "start": 5454
      }
    ],
    "19100": [
      {
        "length": 32,
        "start": 5414
      }
    ],
    "19102": [
      {
        "length": 32,
        "start": 5530
      }
    ],
    "19104": [
      {
        "length": 32,
        "start": 5563
      }
    ],
    "19106": [
      {
        "length": 32,
        "start": 5497
      }
    ]
  },
  "source": "// SPDX-License-Identifier: MIT\r\n\r\npragma solidity ^0.8.0;\r\n\r\nimport \"../token/ERC20/extensions/ERC20Votes.sol\";\r\n\r\ncontract ERC20VotesMock is ERC20Votes {\r\n    constructor(string memory name, string memory symbol) ERC20(name, symbol) ERC20Permit(name) {}\r\n\r\n    function mint(address account, uint256 amount) public {\r\n        _mint(account, amount);\r\n    }\r\n\r\n    function burn(address account, uint256 amount) public {\r\n        _burn(account, amount);\r\n    }\r\n\r\n    function getChainId() external view returns (uint256) {\r\n        return block.chainid;\r\n    }\r\n}\r\n",
  "sourcePath": "/home/a/Desktop/pre/contracts/openzeppelin-contracts-master/contracts/mocks/ERC20VotesMock.sol",
  "compiler": {
    "name": "solc",
    "version": "0.8.10+commit.fc410830.Emscripten.clang"
  },
  "schemaVersion": "3.4.3",
  "updatedAt": "2021-12-13T12:22:06.486Z",
  "devdoc": {
    "kind": "dev",
    "methods": {
      "DOMAIN_SEPARATOR()": {
        "details": "See {IERC20Permit-DOMAIN_SEPARATOR}."
      },
      "allowance(address,address)": {
        "details": "See {IERC20-allowance}."
      },
      "approve(address,uint256)": {
        "details": "See {IERC20-approve}. Requirements: - `spender` cannot be the zero address."
      },
      "balanceOf(address)": {
        "details": "See {IERC20-balanceOf}."
      },
      "checkpoints(address,uint32)": {
        "details": "Get the `pos`-th checkpoint for `account`."
      },
      "decimals()": {
        "details": "Returns the number of decimals used to get its user representation. For example, if `decimals` equals `2`, a balance of `505` tokens should be displayed to a user as `5.05` (`505 / 10 ** 2`). Tokens usually opt for a value of 18, imitating the relationship between Ether and Wei. This is the value {ERC20} uses, unless this function is overridden; NOTE: This information is only used for _display_ purposes: it in no way affects any of the arithmetic of the contract, including {IERC20-balanceOf} and {IERC20-transfer}."
      },
      "decreaseAllowance(address,uint256)": {
        "details": "Atomically decreases the allowance granted to `spender` by the caller. This is an alternative to {approve} that can be used as a mitigation for problems described in {IERC20-approve}. Emits an {Approval} event indicating the updated allowance. Requirements: - `spender` cannot be the zero address. - `spender` must have allowance for the caller of at least `subtractedValue`."
      },
      "delegate(address)": {
        "details": "Delegate votes from the sender to `delegatee`."
      },
      "delegateBySig(address,uint256,uint256,uint8,bytes32,bytes32)": {
        "details": "Delegates votes from signer to `delegatee`"
      },
      "delegates(address)": {
        "details": "Get the address `account` is currently delegating to."
      },
      "getPastTotalSupply(uint256)": {
        "details": "Retrieve the `totalSupply` at the end of `blockNumber`. Note, this value is the sum of all balances. It is but NOT the sum of all the delegated votes! Requirements: - `blockNumber` must have been already mined"
      },
      "getPastVotes(address,uint256)": {
        "details": "Retrieve the number of votes for `account` at the end of `blockNumber`. Requirements: - `blockNumber` must have been already mined"
      },
      "getVotes(address)": {
        "details": "Gets the current votes balance for `account`"
      },
      "increaseAllowance(address,uint256)": {
        "details": "Atomically increases the allowance granted to `spender` by the caller. This is an alternative to {approve} that can be used as a mitigation for problems described in {IERC20-approve}. Emits an {Approval} event indicating the updated allowance. Requirements: - `spender` cannot be the zero address."
      },
      "name()": {
        "details": "Returns the name of the token."
      },
      "nonces(address)": {
        "details": "See {IERC20Permit-nonces}."
      },
      "numCheckpoints(address)": {
        "details": "Get number of checkpoints for `account`."
      },
      "permit(address,address,uint256,uint256,uint8,bytes32,bytes32)": {
        "details": "See {IERC20Permit-permit}."
      },
      "symbol()": {
        "details": "Returns the symbol of the token, usually a shorter version of the name."
      },
      "totalSupply()": {
        "details": "See {IERC20-totalSupply}."
      },
      "transfer(address,uint256)": {
        "details": "See {IERC20-transfer}. Requirements: - `recipient` cannot be the zero address. - the caller must have a balance of at least `amount`."
      },
      "transferFrom(address,address,uint256)": {
        "details": "See {IERC20-transferFrom}. Emits an {Approval} event indicating the updated allowance. This is not required by the EIP. See the note at the beginning of {ERC20}. Requirements: - `sender` and `recipient` cannot be the zero address. - `sender` must have a balance of at least `amount`. - the caller must have allowance for ``sender``'s tokens of at least `amount`."
      }
    },
    "version": 1
  },
  "userdoc": {
    "kind": "user",
    "methods": {},
    "version": 1
  }
}