{
  "contractName": "ERC777Mock",
  "abi": [
    {
      "inputs": [
        {
          "internalType": "address",
          "name": "initialHolder",
          "type": "address"
        },
        {
          "internalType": "uint256",
          "name": "initialBalance",
          "type": "uint256"
        },
        {
          "internalType": "string",
          "name": "name",
          "type": "string"
        },
        {
          "internalType": "string",
          "name": "symbol",
          "type": "string"
        },
        {
          "internalType": "address[]",
          "name": "defaultOperators",
          "type": "address[]"
        }
      ],
      "stateMutability": "nonpayable",
      "type": "constructor"
    },
    {
      "anonymous": false,
      "inputs": [
        {
          "indexed": true,
          "internalType": "address",
          "name": "owner",
          "type": "address"
        },
        {
          "indexed": true,
          "internalType": "address",
          "name": "spender",
          "type": "address"
        },
        {
          "indexed": false,
          "internalType": "uint256",
          "name": "value",
          "type": "uint256"
        }
      ],
      "name": "Approval",
      "type": "event"
    },
    {
      "anonymous": false,
      "inputs": [
        {
          "indexed": true,
          "internalType": "address",
          "name": "operator",
          "type": "address"
        },
        {
          "indexed": true,
          "internalType": "address",
          "name": "tokenHolder",
          "type": "address"
        }
      ],
      "name": "AuthorizedOperator",
      "type": "event"
    },
    {
      "anonymous": false,
      "inputs": [],
      "name": "BeforeTokenTransfer",
      "type": "event"
    },
    {
      "anonymous": false,
      "inputs": [
        {
          "indexed": true,
          "internalType": "address",
          "name": "operator",
          "type": "address"
        },
        {
          "indexed": true,
          "internalType": "address",
          "name": "from",
          "type": "address"
        },
        {
          "indexed": false,
          "internalType": "uint256",
          "name": "amount",
          "type": "uint256"
        },
        {
          "indexed": false,
          "internalType": "bytes",
          "name": "data",
          "type": "bytes"
        },
        {
          "indexed": false,
          "internalType": "bytes",
          "name": "operatorData",
          "type": "bytes"
        }
      ],
      "name": "Burned",
      "type": "event"
    },
    {
      "anonymous": false,
      "inputs": [
        {
          "indexed": true,
          "internalType": "address",
          "name": "operator",
          "type": "address"
        },
        {
          "indexed": true,
          "internalType": "address",
          "name": "to",
          "type": "address"
        },
        {
          "indexed": false,
          "internalType": "uint256",
          "name": "amount",
          "type": "uint256"
        },
        {
          "indexed": false,
          "internalType": "bytes",
          "name": "data",
          "type": "bytes"
        },
        {
          "indexed": false,
          "internalType": "bytes",
          "name": "operatorData",
          "type": "bytes"
        }
      ],
      "name": "Minted",
      "type": "event"
    },
    {
      "anonymous": false,
      "inputs": [
        {
          "indexed": true,
          "internalType": "address",
          "name": "operator",
          "type": "address"
        },
        {
          "indexed": true,
          "internalType": "address",
          "name": "tokenHolder",
          "type": "address"
        }
      ],
      "name": "RevokedOperator",
      "type": "event"
    },
    {
      "anonymous": false,
      "inputs": [
        {
          "indexed": true,
          "internalType": "address",
          "name": "operator",
          "type": "address"
        },
        {
          "indexed": true,
          "internalType": "address",
          "name": "from",
          "type": "address"
        },
        {
          "indexed": true,
          "internalType": "address",
          "name": "to",
          "type": "address"
        },
        {
          "indexed": false,
          "internalType": "uint256",
          "name": "amount",
          "type": "uint256"
        },
        {
          "indexed": false,
          "internalType": "bytes",
          "name": "data",
          "type": "bytes"
        },
        {
          "indexed": false,
          "internalType": "bytes",
          "name": "operatorData",
          "type": "bytes"
        }
      ],
      "name": "Sent",
      "type": "event"
    },
    {
      "anonymous": false,
      "inputs": [
        {
          "indexed": true,
          "internalType": "address",
          "name": "from",
          "type": "address"
        },
        {
          "indexed": true,
          "internalType": "address",
          "name": "to",
          "type": "address"
        },
        {
          "indexed": false,
          "internalType": "uint256",
          "name": "value",
          "type": "uint256"
        }
      ],
      "name": "Transfer",
      "type": "event"
    },
    {
      "inputs": [
        {
          "internalType": "address",
          "name": "holder",
          "type": "address"
        },
        {
          "internalType": "address",
          "name": "spender",
          "type": "address"
        }
      ],
      "name": "allowance",
      "outputs": [
        {
          "internalType": "uint256",
          "name": "",
          "type": "uint256"
        }
      ],
      "stateMutability": "view",
      "type": "function"
    },
    {
      "inputs": [
        {
          "internalType": "address",
          "name": "spender",
          "type": "address"
        },
        {
          "internalType": "uint256",
          "name": "value",
          "type": "uint256"
        }
      ],
      "name": "approve",
      "outputs": [
        {
          "internalType": "bool",
          "name": "",
          "type": "bool"
        }
      ],
      "stateMutability": "nonpayable",
      "type": "function"
    },
    {
      "inputs": [
        {
          "internalType": "address",
          "name": "operator",
          "type": "address"
        }
      ],
      "name": "authorizeOperator",
      "outputs": [],
      "stateMutability": "nonpayable",
      "type": "function"
    },
    {
      "inputs": [
        {
          "internalType": "address",
          "name": "tokenHolder",
          "type": "address"
        }
      ],
      "name": "balanceOf",
      "outputs": [
        {
          "internalType": "uint256",
          "name": "",
          "type": "uint256"
        }
      ],
      "stateMutability": "view",
      "type": "function"
    },
    {
      "inputs": [
        {
          "internalType": "uint256",
          "name": "amount",
          "type": "uint256"
        },
        {
          "internalType": "bytes",
          "name": "data",
          "type": "bytes"
        }
      ],
      "name": "burn",
      "outputs": [],
      "stateMutability": "nonpayable",
      "type": "function"
    },
    {
      "inputs": [],
      "name": "decimals",
      "outputs": [
        {
          "internalType": "uint8",
          "name": "",
          "type": "uint8"
        }
      ],
      "stateMutability": "pure",
      "type": "function"
    },
    {
      "inputs": [],
      "name": "defaultOperators",
      "outputs": [
        {
          "internalType": "address[]",
          "name": "",
          "type": "address[]"
        }
      ],
      "stateMutability": "view",
      "type": "function"
    },
    {
      "inputs": [],
      "name": "granularity",
      "outputs": [
        {
          "internalType": "uint256",
          "name": "",
          "type": "uint256"
        }
      ],
      "stateMutability": "view",
      "type": "function"
    },
    {
      "inputs": [
        {
          "internalType": "address",
          "name": "operator",
          "type": "address"
        },
        {
          "internalType": "address",
          "name": "tokenHolder",
          "type": "address"
        }
      ],
      "name": "isOperatorFor",
      "outputs": [
        {
          "internalType": "bool",
          "name": "",
          "type": "bool"
        }
      ],
      "stateMutability": "view",
      "type": "function"
    },
    {
      "inputs": [],
      "name": "name",
      "outputs": [
        {
          "internalType": "string",
          "name": "",
          "type": "string"
        }
      ],
      "stateMutability": "view",
      "type": "function"
    },
    {
      "inputs": [
        {
          "internalType": "address",
          "name": "account",
          "type": "address"
        },
        {
          "internalType": "uint256",
          "name": "amount",
          "type": "uint256"
        },
        {
          "internalType": "bytes",
          "name": "data",
          "type": "bytes"
        },
        {
          "internalType": "bytes",
          "name": "operatorData",
          "type": "bytes"
        }
      ],
      "name": "operatorBurn",
      "outputs": [],
      "stateMutability": "nonpayable",
      "type": "function"
    },
    {
      "inputs": [
        {
          "internalType": "address",
          "name": "sender",
          "type": "address"
        },
        {
          "internalType": "address",
          "name": "recipient",
          "type": "address"
        },
        {
          "internalType": "uint256",
          "name": "amount",
          "type": "uint256"
        },
        {
          "internalType": "bytes",
          "name": "data",
          "type": "bytes"
        },
        {
          "internalType": "bytes",
          "name": "operatorData",
          "type": "bytes"
        }
      ],
      "name": "operatorSend",
      "outputs": [],
      "stateMutability": "nonpayable",
      "type": "function"
    },
    {
      "inputs": [
        {
          "internalType": "address",
          "name": "operator",
          "type": "address"
        }
      ],
      "name": "revokeOperator",
      "outputs": [],
      "stateMutability": "nonpayable",
      "type": "function"
    },
    {
      "inputs": [
        {
          "internalType": "address",
          "name": "recipient",
          "type": "address"
        },
        {
          "internalType": "uint256",
          "name": "amount",
          "type": "uint256"
        },
        {
          "internalType": "bytes",
          "name": "data",
          "type": "bytes"
        }
      ],
      "name": "send",
      "outputs": [],
      "stateMutability": "nonpayable",
      "type": "function"
    },
    {
      "inputs": [],
      "name": "symbol",
      "outputs": [
        {
          "internalType": "string",
          "name": "",
          "type": "string"
        }
      ],
      "stateMutability": "view",
      "type": "function"
    },
    {
      "inputs": [],
      "name": "totalSupply",
      "outputs": [
        {
          "internalType": "uint256",
          "name": "",
          "type": "uint256"
        }
      ],
      "stateMutability": "view",
      "type": "function"
    },
    {
      "inputs": [
        {
          "internalType": "address",
          "name": "recipient",
          "type": "address"
        },
        {
          "internalType": "uint256",
          "name": "amount",
          "type": "uint256"
        }
      ],
      "name": "transfer",
      "outputs": [
        {
          "internalType": "bool",
          "name": "",
          "type": "bool"
        }
      ],
      "stateMutability": "nonpayable",
      "type": "function"
    },
    {
      "inputs": [
        {
          "internalType": "address",
          "name": "holder",
          "type": "address"
        },
        {
          "internalType": "address",
          "name": "recipient",
          "type": "address"
        },
        {
          "internalType": "uint256",
          "name": "amount",
          "type": "uint256"
        }
      ],
      "name": "transferFrom",
      "outputs": [
        {
          "internalType": "bool",
          "name": "",
          "type": "bool"
        }
      ],
      "stateMutability": "nonpayable",
      "type": "function"
    },
    {
      "inputs": [
        {
          "internalType": "address",
          "name": "to",
          "type": "address"
        },
        {
          "internalType": "uint256",
          "name": "amount",
          "type": "uint256"
        },
        {
          "internalType": "bytes",
          "name": "userData",
          "type": "bytes"
        },
        {
          "internalType": "bytes",
          "name": "operatorData",
          "type": "bytes"
        }
      ],
      "name": "mintInternal",
      "outputs": [],
      "stateMutability": "nonpayable",
      "type": "function"
    },
    {
      "inputs": [
        {
          "internalType": "address",
          "name": "to",
          "type": "address"
        },
        {
          "internalType": "uint256",
          "name": "amount",
          "type": "uint256"
        },
        {
          "internalType": "bytes",
          "name": "userData",
          "type": "bytes"
        },
        {
          "internalType": "bytes",
          "name": "operatorData",
          "type": "bytes"
        },
        {
          "internalType": "bool",
          "name": "requireReceptionAck",
          "type": "bool"
        }
      ],
      "name": "mintInternalExtended",
      "outputs": [],
      "stateMutability": "nonpayable",
      "type": "function"
    },
    {
      "inputs": [
        {
          "internalType": "address",
          "name": "holder",
          "type": "address"
        },
        {
          "internalType": "address",
          "name": "spender",
          "type": "address"
        },
        {
          "internalType": "uint256",
          "name": "value",
          "type": "uint256"
        }
      ],
      "name": "approveInternal",
      "outputs": [],
      "stateMutability": "nonpayable",
      "type": "function"
    }
  ],
  "bytecode": "0x60806040523480156200001157600080fd5b506040516200433c3803806200433c833981810160405281019062000037919062000b5b565b82828282600290805190602001906200005292919062000704565b5081600390805190602001906200006b92919062000704565b5080600490805190602001906200008492919062000795565b5060005b81518110156200011d57600160056000848481518110620000ae57620000ad62000c40565b5b602002602001015173ffffffffffffffffffffffffffffffffffffffff1673ffffffffffffffffffffffffffffffffffffffff16815260200190815260200160002060006101000a81548160ff0219169083151502179055508080620001149062000c9e565b91505062000088565b50731820a4b7618bde71dce8cdc73aab6c95905fad2473ffffffffffffffffffffffffffffffffffffffff166329965a1d307fac7fbab5f54a3ca8194167523c6753bfeb96a445279294b6125b68cce2177054306040518463ffffffff1660e01b8152600401620001919392919062000d18565b600060405180830381600087803b158015620001ac57600080fd5b505af1158015620001c1573d6000803e3d6000fd5b50505050731820a4b7618bde71dce8cdc73aab6c95905fad2473ffffffffffffffffffffffffffffffffffffffff166329965a1d307faea199e31a596269b42cdafd93407f14436db6e4cad65417994c2eb37381e05a306040518463ffffffff1660e01b8152600401620002389392919062000d18565b600060405180830381600087803b1580156200025357600080fd5b505af115801562000268573d6000803e3d6000fd5b50505050505050620002a185856040518060200160405280600081525060405180602001604052806000815250620002ac60201b60201c565b505050505062001108565b620002c2848484846001620002c860201b60201c565b50505050565b600073ffffffffffffffffffffffffffffffffffffffff168573ffffffffffffffffffffffffffffffffffffffff1614156200033b576040517f08c379a0000000000000000000000000000000000000000000000000000000008152600401620003329062000db6565b60405180910390fd5b60006200034d620004c960201b60201c565b9050620003648160008888620004d160201b60201c565b846001600082825462000378919062000dd8565b92505081905550846000808873ffffffffffffffffffffffffffffffffffffffff1673ffffffffffffffffffffffffffffffffffffffff1681526020019081526020016000206000828254620003cf919062000dd8565b92505081905550620003ee81600088888888886200050360201b60201c565b8573ffffffffffffffffffffffffffffffffffffffff168173ffffffffffffffffffffffffffffffffffffffff167f2fe5be0146f74c5bce36c0b80911af6c7d86ff27e89d5cfa61fc681327954e5d878787604051620004519392919062000ea3565b60405180910390a38573ffffffffffffffffffffffffffffffffffffffff16600073ffffffffffffffffffffffffffffffffffffffff167fddf252ad1be2c89b69c2b068fc378daa952ba7f163c4a11628f55a4df523b3ef87604051620004b9919062000eee565b60405180910390a3505050505050565b600033905090565b7f52316ab8e8b0687ce803e403dfe429541bccd4f6c4683ec65d254d382f15a26560405160405180910390a150505050565b6000731820a4b7618bde71dce8cdc73aab6c95905fad2473ffffffffffffffffffffffffffffffffffffffff1663aabbb8ca877fb281fc8c12954d22544db45de3159a39272895b169a852b314f9cc762e44c53b6040518363ffffffff1660e01b81526004016200057692919062000f0b565b602060405180830381865afa15801562000594573d6000803e3d6000fd5b505050506040513d601f19601f82011682018060405250810190620005ba919062000f38565b9050600073ffffffffffffffffffffffffffffffffffffffff168173ffffffffffffffffffffffffffffffffffffffff16146200066f578073ffffffffffffffffffffffffffffffffffffffff166223de298989898989896040518763ffffffff1660e01b8152600401620006359695949392919062000f6a565b600060405180830381600087803b1580156200065057600080fd5b505af115801562000665573d6000803e3d6000fd5b50505050620006e7565b8115620006e657620006a28673ffffffffffffffffffffffffffffffffffffffff16620006f160201b620011f51760201c565b15620006e5576040517f08c379a0000000000000000000000000000000000000000000000000000000008152600401620006dc9062001081565b60405180910390fd5b5b5b5050505050505050565b600080823b905060008111915050919050565b8280546200071290620010d2565b90600052602060002090601f01602090048101928262000736576000855562000782565b82601f106200075157805160ff191683800117855562000782565b8280016001018555821562000782579182015b828111156200078157825182559160200191906001019062000764565b5b50905062000791919062000824565b5090565b82805482825590600052602060002090810192821562000811579160200282015b82811115620008105782518260006101000a81548173ffffffffffffffffffffffffffffffffffffffff021916908373ffffffffffffffffffffffffffffffffffffffff16021790555091602001919060010190620007b6565b5b50905062000820919062000824565b5090565b5b808211156200083f57600081600090555060010162000825565b5090565b6000604051905090565b600080fd5b600080fd5b600073ffffffffffffffffffffffffffffffffffffffff82169050919050565b6000620008848262000857565b9050919050565b620008968162000877565b8114620008a257600080fd5b50565b600081519050620008b6816200088b565b92915050565b6000819050919050565b620008d181620008bc565b8114620008dd57600080fd5b50565b600081519050620008f181620008c6565b92915050565b600080fd5b600080fd5b6000601f19601f8301169050919050565b7f4e487b7100000000000000000000000000000000000000000000000000000000600052604160045260246000fd5b6200094c8262000901565b810181811067ffffffffffffffff821117156200096e576200096d62000912565b5b80604052505050565b60006200098362000843565b905062000991828262000941565b919050565b600067ffffffffffffffff821115620009b457620009b362000912565b5b620009bf8262000901565b9050602081019050919050565b60005b83811015620009ec578082015181840152602081019050620009cf565b83811115620009fc576000848401525b50505050565b600062000a1962000a138462000996565b62000977565b90508281526020810184848401111562000a385762000a37620008fc565b5b62000a45848285620009cc565b509392505050565b600082601f83011262000a655762000a64620008f7565b5b815162000a7784826020860162000a02565b91505092915050565b600067ffffffffffffffff82111562000a9e5762000a9d62000912565b5b602082029050602081019050919050565b600080fd5b600062000acb62000ac58462000a80565b62000977565b9050808382526020820190506020840283018581111562000af15762000af062000aaf565b5b835b8181101562000b1e578062000b098882620008a5565b84526020840193505060208101905062000af3565b5050509392505050565b600082601f83011262000b405762000b3f620008f7565b5b815162000b5284826020860162000ab4565b91505092915050565b600080600080600060a0868803121562000b7a5762000b796200084d565b5b600062000b8a88828901620008a5565b955050602062000b9d88828901620008e0565b945050604086015167ffffffffffffffff81111562000bc15762000bc062000852565b5b62000bcf8882890162000a4d565b935050606086015167ffffffffffffffff81111562000bf35762000bf262000852565b5b62000c018882890162000a4d565b925050608086015167ffffffffffffffff81111562000c255762000c2462000852565b5b62000c338882890162000b28565b9150509295509295909350565b7f4e487b7100000000000000000000000000000000000000000000000000000000600052603260045260246000fd5b7f4e487b7100000000000000000000000000000000000000000000000000000000600052601160045260246000fd5b600062000cab82620008bc565b91507fffffffffffffffffffffffffffffffffffffffffffffffffffffffffffffffff82141562000ce15762000ce062000c6f565b5b600182019050919050565b62000cf78162000877565b82525050565b6000819050919050565b62000d128162000cfd565b82525050565b600060608201905062000d2f600083018662000cec565b62000d3e602083018562000d07565b62000d4d604083018462000cec565b949350505050565b600082825260208201905092915050565b7f4552433737373a206d696e7420746f20746865207a65726f2061646472657373600082015250565b600062000d9e60208362000d55565b915062000dab8262000d66565b602082019050919050565b6000602082019050818103600083015262000dd18162000d8f565b9050919050565b600062000de582620008bc565b915062000df283620008bc565b9250827fffffffffffffffffffffffffffffffffffffffffffffffffffffffffffffffff0382111562000e2a5762000e2962000c6f565b5b828201905092915050565b62000e4081620008bc565b82525050565b600081519050919050565b600082825260208201905092915050565b600062000e6f8262000e46565b62000e7b818562000e51565b935062000e8d818560208601620009cc565b62000e988162000901565b840191505092915050565b600060608201905062000eba600083018662000e35565b818103602083015262000ece818562000e62565b9050818103604083015262000ee4818462000e62565b9050949350505050565b600060208201905062000f05600083018462000e35565b92915050565b600060408201905062000f22600083018562000cec565b62000f31602083018462000d07565b9392505050565b60006020828403121562000f515762000f506200084d565b5b600062000f6184828501620008a5565b91505092915050565b600060c08201905062000f81600083018962000cec565b62000f90602083018862000cec565b62000f9f604083018762000cec565b62000fae606083018662000e35565b818103608083015262000fc2818562000e62565b905081810360a083015262000fd8818462000e62565b9050979650505050505050565b7f4552433737373a20746f6b656e20726563697069656e7420636f6e747261637460008201527f20686173206e6f20696d706c656d656e74657220666f7220455243373737546f60208201527f6b656e73526563697069656e7400000000000000000000000000000000000000604082015250565b600062001069604d8362000d55565b9150620010768262000fe5565b606082019050919050565b600060208201905081810360008301526200109c816200105a565b9050919050565b7f4e487b7100000000000000000000000000000000000000000000000000000000600052602260045260246000fd5b60006002820490506001821680620010eb57607f821691505b60208210811415620011025762001101620010a3565b5b50919050565b61322480620011186000396000f3fe608060405234801561001057600080fd5b50600436106101375760003560e01c8063959b8c3f116100b8578063cfbfab0b1161007c578063cfbfab0b1461033c578063d95b637114610358578063dd62ed3e14610388578063fad8b32a146103b8578063fc673c4f146103d4578063fe9d9303146103f057610137565b8063959b8c3f1461029a57806395d89b41146102b65780639bd9bbc6146102d4578063a9059cbb146102f0578063b1f0b5be1461032057610137565b8063313ce567116100ff578063313ce567146101f6578063556f0dc71461021457806356189cb41461023257806362ad1b831461024e57806370a082311461026a57610137565b806306e485381461013c57806306fdde031461015a578063095ea7b31461017857806318160ddd146101a857806323b872dd146101c6575b600080fd5b61014461040c565b6040516101519190611fb5565b60405180910390f35b61016261049a565b60405161016f9190612070565b60405180910390f35b610192600480360381019061018d9190612108565b61052c565b60405161019f9190612163565b60405180910390f35b6101b061054f565b6040516101bd919061218d565b60405180910390f35b6101e060048036038101906101db91906121a8565b610559565b6040516101ed9190612163565b60405180910390f35b6101fe6107b3565b60405161020b9190612217565b60405180910390f35b61021c6107bc565b604051610229919061218d565b60405180910390f35b61024c600480360381019061024791906121a8565b6107c5565b005b61026860048036038101906102639190612367565b6107d5565b005b610284600480360381019061027f919061241a565b61083b565b604051610291919061218d565b60405180910390f35b6102b460048036038101906102af919061241a565b610883565b005b6102be610ae4565b6040516102cb9190612070565b60405180910390f35b6102ee60048036038101906102e99190612447565b610b76565b005b61030a60048036038101906103059190612108565b610ba0565b6040516103179190612163565b60405180910390f35b61033a600480360381019061033591906124b6565b610cae565b005b61035660048036038101906103519190612581565b610cc0565b005b610372600480360381019061036d9190612634565b610cd4565b60405161037f9190612163565b60405180910390f35b6103a2600480360381019061039d9190612634565b610e85565b6040516103af919061218d565b60405180910390f35b6103d260048036038101906103cd919061241a565b610f0c565b005b6103ee60048036038101906103e991906124b6565b61116d565b005b61040a60048036038101906104059190612674565b6111cf565b005b6060600480548060200260200160405190810160405280929190818152602001828054801561049057602002820191906000526020600020905b8160009054906101000a900473ffffffffffffffffffffffffffffffffffffffff1673ffffffffffffffffffffffffffffffffffffffff1681526020019060010190808311610446575b5050505050905090565b6060600280546104a9906126ff565b80601f01602080910402602001604051908101604052809291908181526020018280546104d5906126ff565b80156105225780601f106104f757610100808354040283529160200191610522565b820191906000526020600020905b81548152906001019060200180831161050557829003601f168201915b5050505050905090565b600080610537611208565b9050610544818585611210565b600191505092915050565b6000600154905090565b60008073ffffffffffffffffffffffffffffffffffffffff168373ffffffffffffffffffffffffffffffffffffffff1614156105ca576040517f08c379a00000000000000000000000000000000000000000000000000000000081526004016105c1906127a3565b60405180910390fd5b600073ffffffffffffffffffffffffffffffffffffffff168473ffffffffffffffffffffffffffffffffffffffff16141561063a576040517f08c379a000000000000000000000000000000000000000000000000000000000815260040161063190612835565b60405180910390fd5b6000610644611208565b90506106728186868660405180602001604052806000815250604051806020016040528060008152506113db565b61069e818686866040518060200160405280600081525060405180602001604052806000815250611542565b6000600860008773ffffffffffffffffffffffffffffffffffffffff1673ffffffffffffffffffffffffffffffffffffffff16815260200190815260200160002060008373ffffffffffffffffffffffffffffffffffffffff1673ffffffffffffffffffffffffffffffffffffffff16815260200190815260200160002054905083811015610762576040517f08c379a0000000000000000000000000000000000000000000000000000000008152600401610759906128c7565b60405180910390fd5b610778868386846107739190612916565b611210565b6107a6828787876040518060200160405280600081525060405180602001604052806000815250600061175c565b6001925050509392505050565b60006012905090565b60006001905090565b6107d0838383611210565b505050565b6107e66107e0611208565b86610cd4565b610825576040517f08c379a000000000000000000000000000000000000000000000000000000000815260040161081c906129bc565b60405180910390fd5b6108348585858585600161192e565b5050505050565b60008060008373ffffffffffffffffffffffffffffffffffffffff1673ffffffffffffffffffffffffffffffffffffffff168152602001908152602001600020549050919050565b8073ffffffffffffffffffffffffffffffffffffffff166108a2611208565b73ffffffffffffffffffffffffffffffffffffffff1614156108f9576040517f08c379a00000000000000000000000000000000000000000000000000000000081526004016108f090612a4e565b60405180910390fd5b600560008273ffffffffffffffffffffffffffffffffffffffff1673ffffffffffffffffffffffffffffffffffffffff16815260200190815260200160002060009054906101000a900460ff16156109e35760076000610957611208565b73ffffffffffffffffffffffffffffffffffffffff1673ffffffffffffffffffffffffffffffffffffffff16815260200190815260200160002060008273ffffffffffffffffffffffffffffffffffffffff1673ffffffffffffffffffffffffffffffffffffffff16815260200190815260200160002060006101000a81549060ff0219169055610a80565b6001600660006109f1611208565b73ffffffffffffffffffffffffffffffffffffffff1673ffffffffffffffffffffffffffffffffffffffff16815260200190815260200160002060008373ffffffffffffffffffffffffffffffffffffffff1673ffffffffffffffffffffffffffffffffffffffff16815260200190815260200160002060006101000a81548160ff0219169083151502179055505b610a88611208565b73ffffffffffffffffffffffffffffffffffffffff168173ffffffffffffffffffffffffffffffffffffffff167ff4caeb2d6ca8932a215a353d0703c326ec2d81fc68170f320eb2ab49e9df61f960405160405180910390a350565b606060038054610af3906126ff565b80601f0160208091040260200160405190810160405280929190818152602001828054610b1f906126ff565b8015610b6c5780601f10610b4157610100808354040283529160200191610b6c565b820191906000526020600020905b815481529060010190602001808311610b4f57829003601f168201915b5050505050905090565b610b9b610b81611208565b84848460405180602001604052806000815250600161192e565b505050565b60008073ffffffffffffffffffffffffffffffffffffffff168373ffffffffffffffffffffffffffffffffffffffff161415610c11576040517f08c379a0000000000000000000000000000000000000000000000000000000008152600401610c08906127a3565b60405180910390fd5b6000610c1b611208565b9050610c498182868660405180602001604052806000815250604051806020016040528060008152506113db565b610c75818286866040518060200160405280600081525060405180602001604052806000815250611542565b610ca3818286866040518060200160405280600081525060405180602001604052806000815250600061175c565b600191505092915050565b610cba84848484611a4e565b50505050565b610ccd8585858585611a62565b5050505050565b60008173ffffffffffffffffffffffffffffffffffffffff168373ffffffffffffffffffffffffffffffffffffffff161480610dec5750600560008473ffffffffffffffffffffffffffffffffffffffff1673ffffffffffffffffffffffffffffffffffffffff16815260200190815260200160002060009054906101000a900460ff168015610deb5750600760008373ffffffffffffffffffffffffffffffffffffffff1673ffffffffffffffffffffffffffffffffffffffff16815260200190815260200160002060008473ffffffffffffffffffffffffffffffffffffffff1673ffffffffffffffffffffffffffffffffffffffff16815260200190815260200160002060009054906101000a900460ff16155b5b80610e7d5750600660008373ffffffffffffffffffffffffffffffffffffffff1673ffffffffffffffffffffffffffffffffffffffff16815260200190815260200160002060008473ffffffffffffffffffffffffffffffffffffffff1673ffffffffffffffffffffffffffffffffffffffff16815260200190815260200160002060009054906101000a900460ff165b905092915050565b6000600860008473ffffffffffffffffffffffffffffffffffffffff1673ffffffffffffffffffffffffffffffffffffffff16815260200190815260200160002060008373ffffffffffffffffffffffffffffffffffffffff1673ffffffffffffffffffffffffffffffffffffffff16815260200190815260200160002054905092915050565b610f14611208565b73ffffffffffffffffffffffffffffffffffffffff168173ffffffffffffffffffffffffffffffffffffffff161415610f82576040517f08c379a0000000000000000000000000000000000000000000000000000000008152600401610f7990612ae0565b60405180910390fd5b600560008273ffffffffffffffffffffffffffffffffffffffff1673ffffffffffffffffffffffffffffffffffffffff16815260200190815260200160002060009054906101000a900460ff161561107557600160076000610fe2611208565b73ffffffffffffffffffffffffffffffffffffffff1673ffffffffffffffffffffffffffffffffffffffff16815260200190815260200160002060008373ffffffffffffffffffffffffffffffffffffffff1673ffffffffffffffffffffffffffffffffffffffff16815260200190815260200160002060006101000a81548160ff021916908315150217905550611109565b60066000611081611208565b73ffffffffffffffffffffffffffffffffffffffff1673ffffffffffffffffffffffffffffffffffffffff16815260200190815260200160002060008273ffffffffffffffffffffffffffffffffffffffff1673ffffffffffffffffffffffffffffffffffffffff16815260200190815260200160002060006101000a81549060ff02191690555b611111611208565b73ffffffffffffffffffffffffffffffffffffffff168173ffffffffffffffffffffffffffffffffffffffff167f50546e66e5f44d728365dc3908c63bc5cfeeab470722c1677e3073a6ac294aa160405160405180910390a350565b61117e611178611208565b85610cd4565b6111bd576040517f08c379a00000000000000000000000000000000000000000000000000000000081526004016111b4906129bc565b60405180910390fd5b6111c984848484611c40565b50505050565b6111f16111da611208565b838360405180602001604052806000815250611c40565b5050565b600080823b905060008111915050919050565b600033905090565b600073ffffffffffffffffffffffffffffffffffffffff168373ffffffffffffffffffffffffffffffffffffffff161415611280576040517f08c379a000000000000000000000000000000000000000000000000000000000815260040161127790612b72565b60405180910390fd5b600073ffffffffffffffffffffffffffffffffffffffff168273ffffffffffffffffffffffffffffffffffffffff1614156112f0576040517f08c379a00000000000000000000000000000000000000000000000000000000081526004016112e790612c04565b60405180910390fd5b80600860008573ffffffffffffffffffffffffffffffffffffffff1673ffffffffffffffffffffffffffffffffffffffff16815260200190815260200160002060008473ffffffffffffffffffffffffffffffffffffffff1673ffffffffffffffffffffffffffffffffffffffff168152602001908152602001600020819055508173ffffffffffffffffffffffffffffffffffffffff168373ffffffffffffffffffffffffffffffffffffffff167f8c5be1e5ebec7d5bd14f71427d1e84f3dd0314c0f7b2291e5b200ac8c7c3b925836040516113ce919061218d565b60405180910390a3505050565b6000731820a4b7618bde71dce8cdc73aab6c95905fad2473ffffffffffffffffffffffffffffffffffffffff1663aabbb8ca877f29ddb589b1fb5fc7cf394961c1adf5f8c6454761adf795e67fe149f658abe8956040518363ffffffff1660e01b815260040161144c929190612c4c565b602060405180830381865afa158015611469573d6000803e3d6000fd5b505050506040513d601f19601f8201168201806040525081019061148d9190612c8a565b9050600073ffffffffffffffffffffffffffffffffffffffff168173ffffffffffffffffffffffffffffffffffffffff1614611539578073ffffffffffffffffffffffffffffffffffffffff166375ab97828888888888886040518763ffffffff1660e01b815260040161150696959493929190612d0c565b600060405180830381600087803b15801561152057600080fd5b505af1158015611534573d6000803e3d6000fd5b505050505b50505050505050565b61154e86868686611e93565b60008060008773ffffffffffffffffffffffffffffffffffffffff1673ffffffffffffffffffffffffffffffffffffffff168152602001908152602001600020549050838110156115d4576040517f08c379a00000000000000000000000000000000000000000000000000000000081526004016115cb90612ded565b60405180910390fd5b8381036000808873ffffffffffffffffffffffffffffffffffffffff1673ffffffffffffffffffffffffffffffffffffffff16815260200190815260200160002081905550836000808773ffffffffffffffffffffffffffffffffffffffff1673ffffffffffffffffffffffffffffffffffffffff16815260200190815260200160002060008282546116679190612e0d565b925050819055508473ffffffffffffffffffffffffffffffffffffffff168673ffffffffffffffffffffffffffffffffffffffff168873ffffffffffffffffffffffffffffffffffffffff167f06b541ddaa720db2b10a4d0cdac39b8d360425fc073085fac19bc826146779878787876040516116e693929190612e63565b60405180910390a48473ffffffffffffffffffffffffffffffffffffffff168673ffffffffffffffffffffffffffffffffffffffff167fddf252ad1be2c89b69c2b068fc378daa952ba7f163c4a11628f55a4df523b3ef8660405161174b919061218d565b60405180910390a350505050505050565b6000731820a4b7618bde71dce8cdc73aab6c95905fad2473ffffffffffffffffffffffffffffffffffffffff1663aabbb8ca877fb281fc8c12954d22544db45de3159a39272895b169a852b314f9cc762e44c53b6040518363ffffffff1660e01b81526004016117cd929190612c4c565b602060405180830381865afa1580156117ea573d6000803e3d6000fd5b505050506040513d601f19601f8201168201806040525081019061180e9190612c8a565b9050600073ffffffffffffffffffffffffffffffffffffffff168173ffffffffffffffffffffffffffffffffffffffff16146118bd578073ffffffffffffffffffffffffffffffffffffffff166223de298989898989896040518763ffffffff1660e01b815260040161188696959493929190612d0c565b600060405180830381600087803b1580156118a057600080fd5b505af11580156118b4573d6000803e3d6000fd5b50505050611924565b8115611923576118e28673ffffffffffffffffffffffffffffffffffffffff166111f5565b15611922576040517f08c379a000000000000000000000000000000000000000000000000000000000815260040161191990612f40565b60405180910390fd5b5b5b5050505050505050565b600073ffffffffffffffffffffffffffffffffffffffff168673ffffffffffffffffffffffffffffffffffffffff16141561199e576040517f08c379a000000000000000000000000000000000000000000000000000000000815260040161199590612fd2565b60405180910390fd5b600073ffffffffffffffffffffffffffffffffffffffff168573ffffffffffffffffffffffffffffffffffffffff161415611a0e576040517f08c379a0000000000000000000000000000000000000000000000000000000008152600401611a059061303e565b60405180910390fd5b6000611a18611208565b9050611a288188888888886113db565b611a36818888888888611542565b611a458188888888888861175c565b50505050505050565b611a5c848484846001611a62565b50505050565b600073ffffffffffffffffffffffffffffffffffffffff168573ffffffffffffffffffffffffffffffffffffffff161415611ad2576040517f08c379a0000000000000000000000000000000000000000000000000000000008152600401611ac9906130aa565b60405180910390fd5b6000611adc611208565b9050611aeb8160008888611e93565b8460016000828254611afd9190612e0d565b92505081905550846000808873ffffffffffffffffffffffffffffffffffffffff1673ffffffffffffffffffffffffffffffffffffffff1681526020019081526020016000206000828254611b529190612e0d565b92505081905550611b69816000888888888861175c565b8573ffffffffffffffffffffffffffffffffffffffff168173ffffffffffffffffffffffffffffffffffffffff167f2fe5be0146f74c5bce36c0b80911af6c7d86ff27e89d5cfa61fc681327954e5d878787604051611bca93929190612e63565b60405180910390a38573ffffffffffffffffffffffffffffffffffffffff16600073ffffffffffffffffffffffffffffffffffffffff167fddf252ad1be2c89b69c2b068fc378daa952ba7f163c4a11628f55a4df523b3ef87604051611c30919061218d565b60405180910390a3505050505050565b600073ffffffffffffffffffffffffffffffffffffffff168473ffffffffffffffffffffffffffffffffffffffff161415611cb0576040517f08c379a0000000000000000000000000000000000000000000000000000000008152600401611ca79061313c565b60405180910390fd5b6000611cba611208565b9050611ccb818660008787876113db565b611cd88186600087611e93565b60008060008773ffffffffffffffffffffffffffffffffffffffff1673ffffffffffffffffffffffffffffffffffffffff16815260200190815260200160002054905084811015611d5e576040517f08c379a0000000000000000000000000000000000000000000000000000000008152600401611d55906131ce565b60405180910390fd5b8481036000808873ffffffffffffffffffffffffffffffffffffffff1673ffffffffffffffffffffffffffffffffffffffff168152602001908152602001600020819055508460016000828254611db59190612916565b925050819055508573ffffffffffffffffffffffffffffffffffffffff168273ffffffffffffffffffffffffffffffffffffffff167fa78a9be3a7b862d26933ad85fb11d80ef66b8f972d7cbba06621d583943a4098878787604051611e1d93929190612e63565b60405180910390a3600073ffffffffffffffffffffffffffffffffffffffff168673ffffffffffffffffffffffffffffffffffffffff167fddf252ad1be2c89b69c2b068fc378daa952ba7f163c4a11628f55a4df523b3ef87604051611e83919061218d565b60405180910390a3505050505050565b7f52316ab8e8b0687ce803e403dfe429541bccd4f6c4683ec65d254d382f15a26560405160405180910390a150505050565b600081519050919050565b600082825260208201905092915050565b6000819050602082019050919050565b600073ffffffffffffffffffffffffffffffffffffffff82169050919050565b6000611f1c82611ef1565b9050919050565b611f2c81611f11565b82525050565b6000611f3e8383611f23565b60208301905092915050565b6000602082019050919050565b6000611f6282611ec5565b611f6c8185611ed0565b9350611f7783611ee1565b8060005b83811015611fa8578151611f8f8882611f32565b9750611f9a83611f4a565b925050600181019050611f7b565b5085935050505092915050565b60006020820190508181036000830152611fcf8184611f57565b905092915050565b600081519050919050565b600082825260208201905092915050565b60005b83811015612011578082015181840152602081019050611ff6565b83811115612020576000848401525b50505050565b6000601f19601f8301169050919050565b600061204282611fd7565b61204c8185611fe2565b935061205c818560208601611ff3565b61206581612026565b840191505092915050565b6000602082019050818103600083015261208a8184612037565b905092915050565b6000604051905090565b600080fd5b600080fd5b6120af81611f11565b81146120ba57600080fd5b50565b6000813590506120cc816120a6565b92915050565b6000819050919050565b6120e5816120d2565b81146120f057600080fd5b50565b600081359050612102816120dc565b92915050565b6000806040838503121561211f5761211e61209c565b5b600061212d858286016120bd565b925050602061213e858286016120f3565b9150509250929050565b60008115159050919050565b61215d81612148565b82525050565b60006020820190506121786000830184612154565b92915050565b612187816120d2565b82525050565b60006020820190506121a2600083018461217e565b92915050565b6000806000606084860312156121c1576121c061209c565b5b60006121cf868287016120bd565b93505060206121e0868287016120bd565b92505060406121f1868287016120f3565b9150509250925092565b600060ff82169050919050565b612211816121fb565b82525050565b600060208201905061222c6000830184612208565b92915050565b600080fd5b600080fd5b7f4e487b7100000000000000000000000000000000000000000000000000000000600052604160045260246000fd5b61227482612026565b810181811067ffffffffffffffff821117156122935761229261223c565b5b80604052505050565b60006122a6612092565b90506122b2828261226b565b919050565b600067ffffffffffffffff8211156122d2576122d161223c565b5b6122db82612026565b9050602081019050919050565b82818337600083830152505050565b600061230a612305846122b7565b61229c565b90508281526020810184848401111561232657612325612237565b5b6123318482856122e8565b509392505050565b600082601f83011261234e5761234d612232565b5b813561235e8482602086016122f7565b91505092915050565b600080600080600060a086880312156123835761238261209c565b5b6000612391888289016120bd565b95505060206123a2888289016120bd565b94505060406123b3888289016120f3565b935050606086013567ffffffffffffffff8111156123d4576123d36120a1565b5b6123e088828901612339565b925050608086013567ffffffffffffffff811115612401576124006120a1565b5b61240d88828901612339565b9150509295509295909350565b6000602082840312156124305761242f61209c565b5b600061243e848285016120bd565b91505092915050565b6000806000606084860312156124605761245f61209c565b5b600061246e868287016120bd565b935050602061247f868287016120f3565b925050604084013567ffffffffffffffff8111156124a05761249f6120a1565b5b6124ac86828701612339565b9150509250925092565b600080600080608085870312156124d0576124cf61209c565b5b60006124de878288016120bd565b94505060206124ef878288016120f3565b935050604085013567ffffffffffffffff8111156125105761250f6120a1565b5b61251c87828801612339565b925050606085013567ffffffffffffffff81111561253d5761253c6120a1565b5b61254987828801612339565b91505092959194509250565b61255e81612148565b811461256957600080fd5b50565b60008135905061257b81612555565b92915050565b600080600080600060a0868803121561259d5761259c61209c565b5b60006125ab888289016120bd565b95505060206125bc888289016120f3565b945050604086013567ffffffffffffffff8111156125dd576125dc6120a1565b5b6125e988828901612339565b935050606086013567ffffffffffffffff81111561260a576126096120a1565b5b61261688828901612339565b92505060806126278882890161256c565b9150509295509295909350565b6000806040838503121561264b5761264a61209c565b5b6000612659858286016120bd565b925050602061266a858286016120bd565b9150509250929050565b6000806040838503121561268b5761268a61209c565b5b6000612699858286016120f3565b925050602083013567ffffffffffffffff8111156126ba576126b96120a1565b5b6126c685828601612339565b9150509250929050565b7f4e487b7100000000000000000000000000000000000000000000000000000000600052602260045260246000fd5b6000600282049050600182168061271757607f821691505b6020821081141561272b5761272a6126d0565b5b50919050565b7f4552433737373a207472616e7366657220746f20746865207a65726f2061646460008201527f7265737300000000000000000000000000000000000000000000000000000000602082015250565b600061278d602483611fe2565b915061279882612731565b604082019050919050565b600060208201905081810360008301526127bc81612780565b9050919050565b7f4552433737373a207472616e736665722066726f6d20746865207a65726f206160008201527f6464726573730000000000000000000000000000000000000000000000000000602082015250565b600061281f602683611fe2565b915061282a826127c3565b604082019050919050565b6000602082019050818103600083015261284e81612812565b9050919050565b7f4552433737373a207472616e7366657220616d6f756e7420657863656564732060008201527f616c6c6f77616e63650000000000000000000000000000000000000000000000602082015250565b60006128b1602983611fe2565b91506128bc82612855565b604082019050919050565b600060208201905081810360008301526128e0816128a4565b9050919050565b7f4e487b7100000000000000000000000000000000000000000000000000000000600052601160045260246000fd5b6000612921826120d2565b915061292c836120d2565b92508282101561293f5761293e6128e7565b5b828203905092915050565b7f4552433737373a2063616c6c6572206973206e6f7420616e206f70657261746f60008201527f7220666f7220686f6c6465720000000000000000000000000000000000000000602082015250565b60006129a6602c83611fe2565b91506129b18261294a565b604082019050919050565b600060208201905081810360008301526129d581612999565b9050919050565b7f4552433737373a20617574686f72697a696e672073656c66206173206f70657260008201527f61746f7200000000000000000000000000000000000000000000000000000000602082015250565b6000612a38602483611fe2565b9150612a43826129dc565b604082019050919050565b60006020820190508181036000830152612a6781612a2b565b9050919050565b7f4552433737373a207265766f6b696e672073656c66206173206f70657261746f60008201527f7200000000000000000000000000000000000000000000000000000000000000602082015250565b6000612aca602183611fe2565b9150612ad582612a6e565b604082019050919050565b60006020820190508181036000830152612af981612abd565b9050919050565b7f4552433737373a20617070726f76652066726f6d20746865207a65726f20616460008201527f6472657373000000000000000000000000000000000000000000000000000000602082015250565b6000612b5c602583611fe2565b9150612b6782612b00565b604082019050919050565b60006020820190508181036000830152612b8b81612b4f565b9050919050565b7f4552433737373a20617070726f766520746f20746865207a65726f206164647260008201527f6573730000000000000000000000000000000000000000000000000000000000602082015250565b6000612bee602383611fe2565b9150612bf982612b92565b604082019050919050565b60006020820190508181036000830152612c1d81612be1565b9050919050565b612c2d81611f11565b82525050565b6000819050919050565b612c4681612c33565b82525050565b6000604082019050612c616000830185612c24565b612c6e6020830184612c3d565b9392505050565b600081519050612c84816120a6565b92915050565b600060208284031215612ca057612c9f61209c565b5b6000612cae84828501612c75565b91505092915050565b600081519050919050565b600082825260208201905092915050565b6000612cde82612cb7565b612ce88185612cc2565b9350612cf8818560208601611ff3565b612d0181612026565b840191505092915050565b600060c082019050612d216000830189612c24565b612d2e6020830188612c24565b612d3b6040830187612c24565b612d48606083018661217e565b8181036080830152612d5a8185612cd3565b905081810360a0830152612d6e8184612cd3565b9050979650505050505050565b7f4552433737373a207472616e7366657220616d6f756e7420657863656564732060008201527f62616c616e636500000000000000000000000000000000000000000000000000602082015250565b6000612dd7602783611fe2565b9150612de282612d7b565b604082019050919050565b60006020820190508181036000830152612e0681612dca565b9050919050565b6000612e18826120d2565b9150612e23836120d2565b9250827fffffffffffffffffffffffffffffffffffffffffffffffffffffffffffffffff03821115612e5857612e576128e7565b5b828201905092915050565b6000606082019050612e78600083018661217e565b8181036020830152612e8a8185612cd3565b90508181036040830152612e9e8184612cd3565b9050949350505050565b7f4552433737373a20746f6b656e20726563697069656e7420636f6e747261637460008201527f20686173206e6f20696d706c656d656e74657220666f7220455243373737546f60208201527f6b656e73526563697069656e7400000000000000000000000000000000000000604082015250565b6000612f2a604d83611fe2565b9150612f3582612ea8565b606082019050919050565b60006020820190508181036000830152612f5981612f1d565b9050919050565b7f4552433737373a2073656e642066726f6d20746865207a65726f20616464726560008201527f7373000000000000000000000000000000000000000000000000000000000000602082015250565b6000612fbc602283611fe2565b9150612fc782612f60565b604082019050919050565b60006020820190508181036000830152612feb81612faf565b9050919050565b7f4552433737373a2073656e6420746f20746865207a65726f2061646472657373600082015250565b6000613028602083611fe2565b915061303382612ff2565b602082019050919050565b600060208201905081810360008301526130578161301b565b9050919050565b7f4552433737373a206d696e7420746f20746865207a65726f2061646472657373600082015250565b6000613094602083611fe2565b915061309f8261305e565b602082019050919050565b600060208201905081810360008301526130c381613087565b9050919050565b7f4552433737373a206275726e2066726f6d20746865207a65726f20616464726560008201527f7373000000000000000000000000000000000000000000000000000000000000602082015250565b6000613126602283611fe2565b9150613131826130ca565b604082019050919050565b6000602082019050818103600083015261315581613119565b9050919050565b7f4552433737373a206275726e20616d6f756e7420657863656564732062616c6160008201527f6e63650000000000000000000000000000000000000000000000000000000000602082015250565b60006131b8602383611fe2565b91506131c38261315c565b604082019050919050565b600060208201905081810360008301526131e7816131ab565b905091905056fea26469706673582212204dfbc73e3836cf9b69569a922aebe83b52bdf160c5a2db807904aed41052972264736f6c634300080a0033",
  "immutableReferences": {},
  "source": "// SPDX-License-Identifier: MIT\r\n\r\npragma solidity ^0.8.0;\r\n\r\nimport \"../utils/Context.sol\";\r\nimport \"../token/ERC777/ERC777.sol\";\r\n\r\ncontract ERC777Mock is Context, ERC777 {\r\n    event BeforeTokenTransfer();\r\n\r\n    constructor(\r\n        address initialHolder,\r\n        uint256 initialBalance,\r\n        string memory name,\r\n        string memory symbol,\r\n        address[] memory defaultOperators\r\n    ) ERC777(name, symbol, defaultOperators) {\r\n        _mint(initialHolder, initialBalance, \"\", \"\");\r\n    }\r\n\r\n    function mintInternal(\r\n        address to,\r\n        uint256 amount,\r\n        bytes memory userData,\r\n        bytes memory operatorData\r\n    ) public {\r\n        _mint(to, amount, userData, operatorData);\r\n    }\r\n\r\n    function mintInternalExtended(\r\n        address to,\r\n        uint256 amount,\r\n        bytes memory userData,\r\n        bytes memory operatorData,\r\n        bool requireReceptionAck\r\n    ) public {\r\n        _mint(to, amount, userData, operatorData, requireReceptionAck);\r\n    }\r\n\r\n    function approveInternal(\r\n        address holder,\r\n        address spender,\r\n        uint256 value\r\n    ) public {\r\n        _approve(holder, spender, value);\r\n    }\r\n\r\n    function _beforeTokenTransfer(\r\n        address,\r\n        address,\r\n        address,\r\n        uint256\r\n    ) internal override {\r\n        emit BeforeTokenTransfer();\r\n    }\r\n}\r\n",
  "sourcePath": "/home/a/Desktop/pre/contracts/openzeppelin-contracts-master/contracts/mocks/ERC777Mock.sol",
  "compiler": {
    "name": "solc",
    "version": "0.8.10+commit.fc410830.Emscripten.clang"
  },
  "schemaVersion": "3.4.3",
  "updatedAt": "2021-12-13T12:22:06.926Z",
  "devdoc": {
    "kind": "dev",
    "methods": {
      "allowance(address,address)": {
        "details": "See {IERC20-allowance}. Note that operator and allowance concepts are orthogonal: operators may not have allowance, and accounts with allowance may not be operators themselves."
      },
      "approve(address,uint256)": {
        "details": "See {IERC20-approve}. Note that accounts cannot have allowance issued by their operators."
      },
      "authorizeOperator(address)": {
        "details": "See {IERC777-authorizeOperator}."
      },
      "balanceOf(address)": {
        "details": "Returns the amount of tokens owned by an account (`tokenHolder`)."
      },
      "burn(uint256,bytes)": {
        "details": "See {IERC777-burn}. Also emits a {IERC20-Transfer} event for ERC20 compatibility."
      },
      "decimals()": {
        "details": "See {ERC20-decimals}. Always returns 18, as per the [ERC777 EIP](https://eips.ethereum.org/EIPS/eip-777#backward-compatibility)."
      },
      "defaultOperators()": {
        "details": "See {IERC777-defaultOperators}."
      },
      "granularity()": {
        "details": "See {IERC777-granularity}. This implementation always returns `1`."
      },
      "isOperatorFor(address,address)": {
        "details": "See {IERC777-isOperatorFor}."
      },
      "name()": {
        "details": "See {IERC777-name}."
      },
      "operatorBurn(address,uint256,bytes,bytes)": {
        "details": "See {IERC777-operatorBurn}. Emits {Burned} and {IERC20-Transfer} events."
      },
      "operatorSend(address,address,uint256,bytes,bytes)": {
        "details": "See {IERC777-operatorSend}. Emits {Sent} and {IERC20-Transfer} events."
      },
      "revokeOperator(address)": {
        "details": "See {IERC777-revokeOperator}."
      },
      "send(address,uint256,bytes)": {
        "details": "See {IERC777-send}. Also emits a {IERC20-Transfer} event for ERC20 compatibility."
      },
      "symbol()": {
        "details": "See {IERC777-symbol}."
      },
      "totalSupply()": {
        "details": "See {IERC777-totalSupply}."
      },
      "transfer(address,uint256)": {
        "details": "See {IERC20-transfer}. Unlike `send`, `recipient` is _not_ required to implement the {IERC777Recipient} interface if it is a contract. Also emits a {Sent} event."
      },
      "transferFrom(address,address,uint256)": {
        "details": "See {IERC20-transferFrom}. Note that operator and allowance concepts are orthogonal: operators cannot call `transferFrom` (unless they have allowance), and accounts with allowance cannot call `operatorSend` (unless they are operators). Emits {Sent}, {IERC20-Transfer} and {IERC20-Approval} events."
      }
    },
    "version": 1
  },
  "userdoc": {
    "kind": "user",
    "methods": {},
    "version": 1
  }
}