{
  "contractName": "ERC777SenderRecipientMock",
  "abi": [
    {
      "anonymous": false,
      "inputs": [],
      "name": "BeforeTokenTransfer",
      "type": "event"
    },
    {
      "anonymous": false,
      "inputs": [
        {
          "indexed": false,
          "internalType": "address",
          "name": "operator",
          "type": "address"
        },
        {
          "indexed": false,
          "internalType": "address",
          "name": "from",
          "type": "address"
        },
        {
          "indexed": false,
          "internalType": "address",
          "name": "to",
          "type": "address"
        },
        {
          "indexed": false,
          "internalType": "uint256",
          "name": "amount",
          "type": "uint256"
        },
        {
          "indexed": false,
          "internalType": "bytes",
          "name": "data",
          "type": "bytes"
        },
        {
          "indexed": false,
          "internalType": "bytes",
          "name": "operatorData",
          "type": "bytes"
        },
        {
          "indexed": false,
          "internalType": "address",
          "name": "token",
          "type": "address"
        },
        {
          "indexed": false,
          "internalType": "uint256",
          "name": "fromBalance",
          "type": "uint256"
        },
        {
          "indexed": false,
          "internalType": "uint256",
          "name": "toBalance",
          "type": "uint256"
        }
      ],
      "name": "TokensReceivedCalled",
      "type": "event"
    },
    {
      "anonymous": false,
      "inputs": [
        {
          "indexed": false,
          "internalType": "address",
          "name": "operator",
          "type": "address"
        },
        {
          "indexed": false,
          "internalType": "address",
          "name": "from",
          "type": "address"
        },
        {
          "indexed": false,
          "internalType": "address",
          "name": "to",
          "type": "address"
        },
        {
          "indexed": false,
          "internalType": "uint256",
          "name": "amount",
          "type": "uint256"
        },
        {
          "indexed": false,
          "internalType": "bytes",
          "name": "data",
          "type": "bytes"
        },
        {
          "indexed": false,
          "internalType": "bytes",
          "name": "operatorData",
          "type": "bytes"
        },
        {
          "indexed": false,
          "internalType": "address",
          "name": "token",
          "type": "address"
        },
        {
          "indexed": false,
          "internalType": "uint256",
          "name": "fromBalance",
          "type": "uint256"
        },
        {
          "indexed": false,
          "internalType": "uint256",
          "name": "toBalance",
          "type": "uint256"
        }
      ],
      "name": "TokensToSendCalled",
      "type": "event"
    },
    {
      "inputs": [
        {
          "internalType": "bytes32",
          "name": "interfaceHash",
          "type": "bytes32"
        },
        {
          "internalType": "address",
          "name": "account",
          "type": "address"
        }
      ],
      "name": "canImplementInterfaceForAddress",
      "outputs": [
        {
          "internalType": "bytes32",
          "name": "",
          "type": "bytes32"
        }
      ],
      "stateMutability": "view",
      "type": "function"
    },
    {
      "inputs": [
        {
          "internalType": "address",
          "name": "operator",
          "type": "address"
        },
        {
          "internalType": "address",
          "name": "from",
          "type": "address"
        },
        {
          "internalType": "address",
          "name": "to",
          "type": "address"
        },
        {
          "internalType": "uint256",
          "name": "amount",
          "type": "uint256"
        },
        {
          "internalType": "bytes",
          "name": "userData",
          "type": "bytes"
        },
        {
          "internalType": "bytes",
          "name": "operatorData",
          "type": "bytes"
        }
      ],
      "name": "tokensToSend",
      "outputs": [],
      "stateMutability": "nonpayable",
      "type": "function"
    },
    {
      "inputs": [
        {
          "internalType": "address",
          "name": "operator",
          "type": "address"
        },
        {
          "internalType": "address",
          "name": "from",
          "type": "address"
        },
        {
          "internalType": "address",
          "name": "to",
          "type": "address"
        },
        {
          "internalType": "uint256",
          "name": "amount",
          "type": "uint256"
        },
        {
          "internalType": "bytes",
          "name": "userData",
          "type": "bytes"
        },
        {
          "internalType": "bytes",
          "name": "operatorData",
          "type": "bytes"
        }
      ],
      "name": "tokensReceived",
      "outputs": [],
      "stateMutability": "nonpayable",
      "type": "function"
    },
    {
      "inputs": [
        {
          "internalType": "address",
          "name": "account",
          "type": "address"
        }
      ],
      "name": "senderFor",
      "outputs": [],
      "stateMutability": "nonpayable",
      "type": "function"
    },
    {
      "inputs": [
        {
          "internalType": "address",
          "name": "sender",
          "type": "address"
        }
      ],
      "name": "registerSender",
      "outputs": [],
      "stateMutability": "nonpayable",
      "type": "function"
    },
    {
      "inputs": [
        {
          "internalType": "address",
          "name": "account",
          "type": "address"
        }
      ],
      "name": "recipientFor",
      "outputs": [],
      "stateMutability": "nonpayable",
      "type": "function"
    },
    {
      "inputs": [
        {
          "internalType": "address",
          "name": "recipient",
          "type": "address"
        }
      ],
      "name": "registerRecipient",
      "outputs": [],
      "stateMutability": "nonpayable",
      "type": "function"
    },
    {
      "inputs": [
        {
          "internalType": "bool",
          "name": "shouldRevert",
          "type": "bool"
        }
      ],
      "name": "setShouldRevertSend",
      "outputs": [],
      "stateMutability": "nonpayable",
      "type": "function"
    },
    {
      "inputs": [
        {
          "internalType": "bool",
          "name": "shouldRevert",
          "type": "bool"
        }
      ],
      "name": "setShouldRevertReceive",
      "outputs": [],
      "stateMutability": "nonpayable",
      "type": "function"
    },
    {
      "inputs": [
        {
          "internalType": "contract IERC777",
          "name": "token",
          "type": "address"
        },
        {
          "internalType": "address",
          "name": "to",
          "type": "address"
        },
        {
          "internalType": "uint256",
          "name": "amount",
          "type": "uint256"
        },
        {
          "internalType": "bytes",
          "name": "data",
          "type": "bytes"
        }
      ],
      "name": "send",
      "outputs": [],
      "stateMutability": "nonpayable",
      "type": "function"
    },
    {
      "inputs": [
        {
          "internalType": "contract IERC777",
          "name": "token",
          "type": "address"
        },
        {
          "internalType": "uint256",
          "name": "amount",
          "type": "uint256"
        },
        {
          "internalType": "bytes",
          "name": "data",
          "type": "bytes"
        }
      ],
      "name": "burn",
      "outputs": [],
      "stateMutability": "nonpayable",
      "type": "function"
    }
  ],
  "bytecode": "0x6080604052731820a4b7618bde71dce8cdc73aab6c95905fad24600160026101000a81548173ffffffffffffffffffffffffffffffffffffffff021916908373ffffffffffffffffffffffffffffffffffffffff16021790555034801561006557600080fd5b50611184806100756000396000f3fe608060405234801561001057600080fd5b50600436106100a85760003560e01c806375ab97821161007157806375ab97821461014d578063a8badaa514610169578063c97e18fc14610185578063d2de6474146101a1578063e0eb2180146101bd578063e1ecbd30146101d9576100a8565b806223de29146100ad578063249cb3fa146100c95780633836ef89146100f957806344d17187146101155780634e4ae5a514610131575b600080fd5b6100c760048036038101906100c29190610a68565b6101f5565b005b6100e360048036038101906100de9190610b6d565b61036d565b6040516100f09190610bbc565b60405180910390f35b610113600480360381019061010e9190610d56565b610403565b005b61012f600480360381019061012a9190610dd9565b610478565b005b61014b60048036038101906101469190610e80565b6104ea565b005b61016760048036038101906101629190610a68565b610507565b005b610183600480360381019061017e9190610ead565b610681565b005b61019f600480360381019061019a9190610e80565b610735565b005b6101bb60048036038101906101b69190610ead565b610751565b005b6101d760048036038101906101d29190610ead565b6107c2565b005b6101f360048036038101906101ee9190610ead565b610833565b005b60018054906101000a900460ff161561020d57600080fd5b60006102176108e7565b905060008173ffffffffffffffffffffffffffffffffffffffff166370a082318a6040518263ffffffff1660e01b81526004016102549190610ee9565b602060405180830381865afa158015610271573d6000803e3d6000fd5b505050506040513d601f19601f820116820180604052508101906102959190610f19565b905060008273ffffffffffffffffffffffffffffffffffffffff166370a082318a6040518263ffffffff1660e01b81526004016102d29190610ee9565b602060405180830381865afa1580156102ef573d6000803e3d6000fd5b505050506040513d601f19601f820116820180604052508101906103139190610f19565b90507f47e915878c47f3ec4d7ff646a2becb229f64fd2abe4d2b5e2bb4275b0cf50d4e8b8b8b8b8b8b8b8b8b8b8b6040516103589b9a99989796959493929190610f93565b60405180910390a15050505050505050505050565b600080600084815260200190815260200160002060008373ffffffffffffffffffffffffffffffffffffffff1673ffffffffffffffffffffffffffffffffffffffff16815260200190815260200160002060009054906101000a900460ff166103d9576000801b6103fb565b7fa2ef4600d742022d532d4747cb3547474667d6f13804902513b2ec01c848f4b45b905092915050565b8373ffffffffffffffffffffffffffffffffffffffff16639bd9bbc68484846040518463ffffffff1660e01b8152600401610440939291906110a9565b600060405180830381600087803b15801561045a57600080fd5b505af115801561046e573d6000803e3d6000fd5b5050505050505050565b8273ffffffffffffffffffffffffffffffffffffffff1663fe9d930383836040518363ffffffff1660e01b81526004016104b39291906110e7565b600060405180830381600087803b1580156104cd57600080fd5b505af11580156104e1573d6000803e3d6000fd5b50505050505050565b80600160006101000a81548160ff02191690831515021790555050565b600160009054906101000a900460ff161561052157600080fd5b600061052b6108e7565b905060008173ffffffffffffffffffffffffffffffffffffffff166370a082318a6040518263ffffffff1660e01b81526004016105689190610ee9565b602060405180830381865afa158015610585573d6000803e3d6000fd5b505050506040513d601f19601f820116820180604052508101906105a99190610f19565b905060008273ffffffffffffffffffffffffffffffffffffffff166370a082318a6040518263ffffffff1660e01b81526004016105e69190610ee9565b602060405180830381865afa158015610603573d6000803e3d6000fd5b505050506040513d601f19601f820116820180604052508101906106279190610f19565b90507faa3e88aca472e90221daf7d3d601abafb62b120319089d7a2c2f63588da855298b8b8b8b8b8b8b8b8b8b8b60405161066c9b9a99989796959493929190610f93565b60405180910390a15050505050505050505050565b600160029054906101000a900473ffffffffffffffffffffffffffffffffffffffff1673ffffffffffffffffffffffffffffffffffffffff166329965a1d307fb281fc8c12954d22544db45de3159a39272895b169a852b314f9cc762e44c53b846040518463ffffffff1660e01b815260040161070093929190611117565b600060405180830381600087803b15801561071a57600080fd5b505af115801561072e573d6000803e3d6000fd5b5050505050565b806001806101000a81548160ff02191690831515021790555050565b61077b7f29ddb589b1fb5fc7cf394961c1adf5f8c6454761adf795e67fe149f658abe895826108ef565b60003090508073ffffffffffffffffffffffffffffffffffffffff168273ffffffffffffffffffffffffffffffffffffffff1614156107be576107bd81610833565b5b5050565b6107ec7fb281fc8c12954d22544db45de3159a39272895b169a852b314f9cc762e44c53b826108ef565b60003090508073ffffffffffffffffffffffffffffffffffffffff168273ffffffffffffffffffffffffffffffffffffffff16141561082f5761082e81610681565b5b5050565b600160029054906101000a900473ffffffffffffffffffffffffffffffffffffffff1673ffffffffffffffffffffffffffffffffffffffff166329965a1d307f29ddb589b1fb5fc7cf394961c1adf5f8c6454761adf795e67fe149f658abe895846040518463ffffffff1660e01b81526004016108b293929190611117565b600060405180830381600087803b1580156108cc57600080fd5b505af11580156108e0573d6000803e3d6000fd5b5050505050565b600033905090565b600160008084815260200190815260200160002060008373ffffffffffffffffffffffffffffffffffffffff1673ffffffffffffffffffffffffffffffffffffffff16815260200190815260200160002060006101000a81548160ff0219169083151502179055505050565b6000604051905090565b600080fd5b600080fd5b600073ffffffffffffffffffffffffffffffffffffffff82169050919050565b600061099a8261096f565b9050919050565b6109aa8161098f565b81146109b557600080fd5b50565b6000813590506109c7816109a1565b92915050565b6000819050919050565b6109e0816109cd565b81146109eb57600080fd5b50565b6000813590506109fd816109d7565b92915050565b600080fd5b600080fd5b600080fd5b60008083601f840112610a2857610a27610a03565b5b8235905067ffffffffffffffff811115610a4557610a44610a08565b5b602083019150836001820283011115610a6157610a60610a0d565b5b9250929050565b60008060008060008060008060c0898b031215610a8857610a87610965565b5b6000610a968b828c016109b8565b9850506020610aa78b828c016109b8565b9750506040610ab88b828c016109b8565b9650506060610ac98b828c016109ee565b955050608089013567ffffffffffffffff811115610aea57610ae961096a565b5b610af68b828c01610a12565b945094505060a089013567ffffffffffffffff811115610b1957610b1861096a565b5b610b258b828c01610a12565b92509250509295985092959890939650565b6000819050919050565b610b4a81610b37565b8114610b5557600080fd5b50565b600081359050610b6781610b41565b92915050565b60008060408385031215610b8457610b83610965565b5b6000610b9285828601610b58565b9250506020610ba3858286016109b8565b9150509250929050565b610bb681610b37565b82525050565b6000602082019050610bd16000830184610bad565b92915050565b6000610be28261098f565b9050919050565b610bf281610bd7565b8114610bfd57600080fd5b50565b600081359050610c0f81610be9565b92915050565b600080fd5b6000601f19601f8301169050919050565b7f4e487b7100000000000000000000000000000000000000000000000000000000600052604160045260246000fd5b610c6382610c1a565b810181811067ffffffffffffffff82111715610c8257610c81610c2b565b5b80604052505050565b6000610c9561095b565b9050610ca18282610c5a565b919050565b600067ffffffffffffffff821115610cc157610cc0610c2b565b5b610cca82610c1a565b9050602081019050919050565b82818337600083830152505050565b6000610cf9610cf484610ca6565b610c8b565b905082815260208101848484011115610d1557610d14610c15565b5b610d20848285610cd7565b509392505050565b600082601f830112610d3d57610d3c610a03565b5b8135610d4d848260208601610ce6565b91505092915050565b60008060008060808587031215610d7057610d6f610965565b5b6000610d7e87828801610c00565b9450506020610d8f878288016109b8565b9350506040610da0878288016109ee565b925050606085013567ffffffffffffffff811115610dc157610dc061096a565b5b610dcd87828801610d28565b91505092959194509250565b600080600060608486031215610df257610df1610965565b5b6000610e0086828701610c00565b9350506020610e11868287016109ee565b925050604084013567ffffffffffffffff811115610e3257610e3161096a565b5b610e3e86828701610d28565b9150509250925092565b60008115159050919050565b610e5d81610e48565b8114610e6857600080fd5b50565b600081359050610e7a81610e54565b92915050565b600060208284031215610e9657610e95610965565b5b6000610ea484828501610e6b565b91505092915050565b600060208284031215610ec357610ec2610965565b5b6000610ed1848285016109b8565b91505092915050565b610ee38161098f565b82525050565b6000602082019050610efe6000830184610eda565b92915050565b600081519050610f13816109d7565b92915050565b600060208284031215610f2f57610f2e610965565b5b6000610f3d84828501610f04565b91505092915050565b610f4f816109cd565b82525050565b600082825260208201905092915050565b6000610f728385610f55565b9350610f7f838584610cd7565b610f8883610c1a565b840190509392505050565b600061012082019050610fa9600083018e610eda565b610fb6602083018d610eda565b610fc3604083018c610eda565b610fd0606083018b610f46565b8181036080830152610fe381898b610f66565b905081810360a0830152610ff8818789610f66565b905061100760c0830186610eda565b61101460e0830185610f46565b611022610100830184610f46565b9c9b505050505050505050505050565b600081519050919050565b60005b8381101561105b578082015181840152602081019050611040565b8381111561106a576000848401525b50505050565b600061107b82611032565b6110858185610f55565b935061109581856020860161103d565b61109e81610c1a565b840191505092915050565b60006060820190506110be6000830186610eda565b6110cb6020830185610f46565b81810360408301526110dd8184611070565b9050949350505050565b60006040820190506110fc6000830185610f46565b818103602083015261110e8184611070565b90509392505050565b600060608201905061112c6000830186610eda565b6111396020830185610bad565b6111466040830184610eda565b94935050505056fea26469706673582212205aad9fa6dc03bff162458e2c261d7b5ecbbbaab25a5e28b4bb2e643cd770a3f864736f6c634300080a0033",
  "immutableReferences": {},
  "source": "// SPDX-License-Identifier: MIT\r\n\r\npragma solidity ^0.8.0;\r\n\r\nimport \"../token/ERC777/IERC777.sol\";\r\nimport \"../token/ERC777/IERC777Sender.sol\";\r\nimport \"../token/ERC777/IERC777Recipient.sol\";\r\nimport \"../utils/Context.sol\";\r\nimport \"../utils/introspection/IERC1820Registry.sol\";\r\nimport \"../utils/introspection/ERC1820Implementer.sol\";\r\n\r\ncontract ERC777SenderRecipientMock is Context, IERC777Sender, IERC777Recipient, ERC1820Implementer {\r\n    event TokensToSendCalled(\r\n        address operator,\r\n        address from,\r\n        address to,\r\n        uint256 amount,\r\n        bytes data,\r\n        bytes operatorData,\r\n        address token,\r\n        uint256 fromBalance,\r\n        uint256 toBalance\r\n    );\r\n\r\n    event TokensReceivedCalled(\r\n        address operator,\r\n        address from,\r\n        address to,\r\n        uint256 amount,\r\n        bytes data,\r\n        bytes operatorData,\r\n        address token,\r\n        uint256 fromBalance,\r\n        uint256 toBalance\r\n    );\r\n\r\n    // Emitted in ERC777Mock. Here for easier decoding\r\n    event BeforeTokenTransfer();\r\n\r\n    bool private _shouldRevertSend;\r\n    bool private _shouldRevertReceive;\r\n\r\n    IERC1820Registry private _erc1820 = IERC1820Registry(0x1820a4B7618BdE71Dce8cdc73aAB6C95905faD24);\r\n\r\n    bytes32 private constant _TOKENS_SENDER_INTERFACE_HASH = keccak256(\"ERC777TokensSender\");\r\n    bytes32 private constant _TOKENS_RECIPIENT_INTERFACE_HASH = keccak256(\"ERC777TokensRecipient\");\r\n\r\n    function tokensToSend(\r\n        address operator,\r\n        address from,\r\n        address to,\r\n        uint256 amount,\r\n        bytes calldata userData,\r\n        bytes calldata operatorData\r\n    ) external override {\r\n        if (_shouldRevertSend) {\r\n            revert();\r\n        }\r\n\r\n        IERC777 token = IERC777(_msgSender());\r\n\r\n        uint256 fromBalance = token.balanceOf(from);\r\n        // when called due to burn, to will be the zero address, which will have a balance of 0\r\n        uint256 toBalance = token.balanceOf(to);\r\n\r\n        emit TokensToSendCalled(\r\n            operator,\r\n            from,\r\n            to,\r\n            amount,\r\n            userData,\r\n            operatorData,\r\n            address(token),\r\n            fromBalance,\r\n            toBalance\r\n        );\r\n    }\r\n\r\n    function tokensReceived(\r\n        address operator,\r\n        address from,\r\n        address to,\r\n        uint256 amount,\r\n        bytes calldata userData,\r\n        bytes calldata operatorData\r\n    ) external override {\r\n        if (_shouldRevertReceive) {\r\n            revert();\r\n        }\r\n\r\n        IERC777 token = IERC777(_msgSender());\r\n\r\n        uint256 fromBalance = token.balanceOf(from);\r\n        // when called due to burn, to will be the zero address, which will have a balance of 0\r\n        uint256 toBalance = token.balanceOf(to);\r\n\r\n        emit TokensReceivedCalled(\r\n            operator,\r\n            from,\r\n            to,\r\n            amount,\r\n            userData,\r\n            operatorData,\r\n            address(token),\r\n            fromBalance,\r\n            toBalance\r\n        );\r\n    }\r\n\r\n    function senderFor(address account) public {\r\n        _registerInterfaceForAddress(_TOKENS_SENDER_INTERFACE_HASH, account);\r\n\r\n        address self = address(this);\r\n        if (account == self) {\r\n            registerSender(self);\r\n        }\r\n    }\r\n\r\n    function registerSender(address sender) public {\r\n        _erc1820.setInterfaceImplementer(address(this), _TOKENS_SENDER_INTERFACE_HASH, sender);\r\n    }\r\n\r\n    function recipientFor(address account) public {\r\n        _registerInterfaceForAddress(_TOKENS_RECIPIENT_INTERFACE_HASH, account);\r\n\r\n        address self = address(this);\r\n        if (account == self) {\r\n            registerRecipient(self);\r\n        }\r\n    }\r\n\r\n    function registerRecipient(address recipient) public {\r\n        _erc1820.setInterfaceImplementer(address(this), _TOKENS_RECIPIENT_INTERFACE_HASH, recipient);\r\n    }\r\n\r\n    function setShouldRevertSend(bool shouldRevert) public {\r\n        _shouldRevertSend = shouldRevert;\r\n    }\r\n\r\n    function setShouldRevertReceive(bool shouldRevert) public {\r\n        _shouldRevertReceive = shouldRevert;\r\n    }\r\n\r\n    function send(\r\n        IERC777 token,\r\n        address to,\r\n        uint256 amount,\r\n        bytes memory data\r\n    ) public {\r\n        // This is 777's send function, not the Solidity send function\r\n        token.send(to, amount, data); // solhint-disable-line check-send-result\r\n    }\r\n\r\n    function burn(\r\n        IERC777 token,\r\n        uint256 amount,\r\n        bytes memory data\r\n    ) public {\r\n        token.burn(amount, data);\r\n    }\r\n}\r\n",
  "sourcePath": "/home/a/Desktop/pre/contracts/openzeppelin-contracts-master/contracts/mocks/ERC777SenderRecipientMock.sol",
  "compiler": {
    "name": "solc",
    "version": "0.8.10+commit.fc410830.Emscripten.clang"
  },
  "schemaVersion": "3.4.3",
  "updatedAt": "2021-12-13T12:22:06.943Z",
  "devdoc": {
    "kind": "dev",
    "methods": {
      "canImplementInterfaceForAddress(bytes32,address)": {
        "details": "See {IERC1820Implementer-canImplementInterfaceForAddress}."
      },
      "tokensReceived(address,address,address,uint256,bytes,bytes)": {
        "details": "Called by an {IERC777} token contract whenever tokens are being moved or created into a registered account (`to`). The type of operation is conveyed by `from` being the zero address or not. This call occurs _after_ the token contract's state is updated, so {IERC777-balanceOf}, etc., can be used to query the post-operation state. This function may revert to prevent the operation from being executed."
      },
      "tokensToSend(address,address,address,uint256,bytes,bytes)": {
        "details": "Called by an {IERC777} token contract whenever a registered holder's (`from`) tokens are about to be moved or destroyed. The type of operation is conveyed by `to` being the zero address or not. This call occurs _before_ the token contract's state is updated, so {IERC777-balanceOf}, etc., can be used to query the pre-operation state. This function may revert to prevent the operation from being executed."
      }
    },
    "version": 1
  },
  "userdoc": {
    "kind": "user",
    "methods": {},
    "version": 1
  }
}