{
  "contractName": "Implementation3",
  "abi": [
    {
      "inputs": [],
      "name": "initialize",
      "outputs": [],
      "stateMutability": "nonpayable",
      "type": "function"
    },
    {
      "inputs": [
        {
          "internalType": "uint256",
          "name": "_number",
          "type": "uint256"
        }
      ],
      "name": "setValue",
      "outputs": [],
      "stateMutability": "nonpayable",
      "type": "function"
    },
    {
      "inputs": [
        {
          "internalType": "uint256",
          "name": "_number",
          "type": "uint256"
        }
      ],
      "name": "getValue",
      "outputs": [
        {
          "internalType": "uint256",
          "name": "",
          "type": "uint256"
        }
      ],
      "stateMutability": "view",
      "type": "function"
    }
  ],
  "bytecode": "0x608060405234801561001057600080fd5b50610386806100206000396000f3fe608060405234801561001057600080fd5b50600436106100415760003560e01c80630ff4c9161461004657806355241077146100765780638129fc1c14610092575b600080fd5b610060600480360381019061005b91906101d1565b61009c565b60405161006d919061020d565b60405180910390f35b610090600480360381019061008b91906101d1565b6100b3565b005b61009a6100bd565b005b6000816001546100ac9190610257565b9050919050565b8060018190555050565b600060019054906101000a900460ff16806100e3575060008054906101000a900460ff16155b610122576040517f08c379a000000000000000000000000000000000000000000000000000000000815260040161011990610330565b60405180910390fd5b60008060019054906101000a900460ff161590508015610172576001600060016101000a81548160ff02191690831515021790555060016000806101000a81548160ff0219169083151502179055505b80156101935760008060016101000a81548160ff0219169083151502179055505b50565b600080fd5b6000819050919050565b6101ae8161019b565b81146101b957600080fd5b50565b6000813590506101cb816101a5565b92915050565b6000602082840312156101e7576101e6610196565b5b60006101f5848285016101bc565b91505092915050565b6102078161019b565b82525050565b600060208201905061022260008301846101fe565b92915050565b7f4e487b7100000000000000000000000000000000000000000000000000000000600052601160045260246000fd5b60006102628261019b565b915061026d8361019b565b9250827fffffffffffffffffffffffffffffffffffffffffffffffffffffffffffffffff038211156102a2576102a1610228565b5b828201905092915050565b600082825260208201905092915050565b7f496e697469616c697a61626c653a20636f6e747261637420697320616c72656160008201527f647920696e697469616c697a6564000000000000000000000000000000000000602082015250565b600061031a602e836102ad565b9150610325826102be565b604082019050919050565b600060208201905081810360008301526103498161030d565b905091905056fea26469706673582212205c97863806af97ca2eb78c1d0ba1e27ede0578c579049e39013b489fbb5daeb564736f6c634300080a0033",
  "immutableReferences": {},
  "source": "// SPDX-License-Identifier: MIT\r\n\r\npragma solidity ^0.8.0;\r\n\r\nimport \"../proxy/utils/Initializable.sol\";\r\n\r\ncontract Implementation1 is Initializable {\r\n    uint256 internal _value;\r\n\r\n    function initialize() public initializer {}\r\n\r\n    function setValue(uint256 _number) public {\r\n        _value = _number;\r\n    }\r\n}\r\n\r\ncontract Implementation2 is Initializable {\r\n    uint256 internal _value;\r\n\r\n    function initialize() public initializer {}\r\n\r\n    function setValue(uint256 _number) public {\r\n        _value = _number;\r\n    }\r\n\r\n    function getValue() public view returns (uint256) {\r\n        return _value;\r\n    }\r\n}\r\n\r\ncontract Implementation3 is Initializable {\r\n    uint256 internal _value;\r\n\r\n    function initialize() public initializer {}\r\n\r\n    function setValue(uint256 _number) public {\r\n        _value = _number;\r\n    }\r\n\r\n    function getValue(uint256 _number) public view returns (uint256) {\r\n        return _value + _number;\r\n    }\r\n}\r\n\r\ncontract Implementation4 is Initializable {\r\n    uint256 internal _value;\r\n\r\n    function initialize() public initializer {}\r\n\r\n    function setValue(uint256 _number) public {\r\n        _value = _number;\r\n    }\r\n\r\n    function getValue() public view returns (uint256) {\r\n        return _value;\r\n    }\r\n\r\n    fallback() external {\r\n        _value = 1;\r\n    }\r\n}\r\n",
  "sourcePath": "/home/a/Desktop/pre/contracts/openzeppelin-contracts-master/contracts/mocks/RegressionImplementation.sol",
  "compiler": {
    "name": "solc",
    "version": "0.8.10+commit.fc410830.Emscripten.clang"
  },
  "schemaVersion": "3.4.3",
  "updatedAt": "2021-12-13T12:22:07.043Z",
  "devdoc": {
    "kind": "dev",
    "methods": {},
    "version": 1
  },
  "userdoc": {
    "kind": "user",
    "methods": {},
    "version": 1
  }
}