{
  "contractName": "MathMock",
  "abi": [
    {
      "inputs": [
        {
          "internalType": "uint256",
          "name": "a",
          "type": "uint256"
        },
        {
          "internalType": "uint256",
          "name": "b",
          "type": "uint256"
        }
      ],
      "name": "max",
      "outputs": [
        {
          "internalType": "uint256",
          "name": "",
          "type": "uint256"
        }
      ],
      "stateMutability": "pure",
      "type": "function"
    },
    {
      "inputs": [
        {
          "internalType": "uint256",
          "name": "a",
          "type": "uint256"
        },
        {
          "internalType": "uint256",
          "name": "b",
          "type": "uint256"
        }
      ],
      "name": "min",
      "outputs": [
        {
          "internalType": "uint256",
          "name": "",
          "type": "uint256"
        }
      ],
      "stateMutability": "pure",
      "type": "function"
    },
    {
      "inputs": [
        {
          "internalType": "uint256",
          "name": "a",
          "type": "uint256"
        },
        {
          "internalType": "uint256",
          "name": "b",
          "type": "uint256"
        }
      ],
      "name": "average",
      "outputs": [
        {
          "internalType": "uint256",
          "name": "",
          "type": "uint256"
        }
      ],
      "stateMutability": "pure",
      "type": "function"
    },
    {
      "inputs": [
        {
          "internalType": "uint256",
          "name": "a",
          "type": "uint256"
        },
        {
          "internalType": "uint256",
          "name": "b",
          "type": "uint256"
        }
      ],
      "name": "ceilDiv",
      "outputs": [
        {
          "internalType": "uint256",
          "name": "",
          "type": "uint256"
        }
      ],
      "stateMutability": "pure",
      "type": "function"
    }
  ],
  "bytecode": "0x608060405234801561001057600080fd5b5061042b806100206000396000f3fe608060405234801561001057600080fd5b506004361061004c5760003560e01c80632b7423ab146100515780636d5433e6146100815780637ae2b5c7146100b15780639cb35327146100e1575b600080fd5b61006b60048036038101906100669190610275565b610111565b60405161007891906102c4565b60405180910390f35b61009b60048036038101906100969190610275565b610125565b6040516100a891906102c4565b60405180910390f35b6100cb60048036038101906100c69190610275565b610139565b6040516100d891906102c4565b60405180910390f35b6100fb60048036038101906100f69190610275565b61014d565b60405161010891906102c4565b60405180910390f35b600061011d8383610161565b905092915050565b600061013183836101c8565b905092915050565b600061014583836101e2565b905092915050565b600061015983836101fb565b905092915050565b600060028083610171919061030e565b60028561017e919061030e565b610188919061036e565b61019291906103c4565b60028361019f91906103c4565b6002856101ac91906103c4565b6101b6919061036e565b6101c0919061036e565b905092915050565b6000818310156101d857816101da565b825b905092915050565b60008183106101f157816101f3565b825b905092915050565b600080828461020a919061030e565b14610216576001610219565b60005b60ff16828461022891906103c4565b610232919061036e565b905092915050565b600080fd5b6000819050919050565b6102528161023f565b811461025d57600080fd5b50565b60008135905061026f81610249565b92915050565b6000806040838503121561028c5761028b61023a565b5b600061029a85828601610260565b92505060206102ab85828601610260565b9150509250929050565b6102be8161023f565b82525050565b60006020820190506102d960008301846102b5565b92915050565b7f4e487b7100000000000000000000000000000000000000000000000000000000600052601260045260246000fd5b60006103198261023f565b91506103248361023f565b925082610334576103336102df565b5b828206905092915050565b7f4e487b7100000000000000000000000000000000000000000000000000000000600052601160045260246000fd5b60006103798261023f565b91506103848361023f565b9250827fffffffffffffffffffffffffffffffffffffffffffffffffffffffffffffffff038211156103b9576103b861033f565b5b828201905092915050565b60006103cf8261023f565b91506103da8361023f565b9250826103ea576103e96102df565b5b82820490509291505056fea264697066735822122012a9eff734fe25e2fd378708b3242175e62a549b2afed50e6ceb893a9cd5e8f964736f6c634300080a0033",
  "immutableReferences": {},
  "source": "// SPDX-License-Identifier: MIT\r\n\r\npragma solidity ^0.8.0;\r\n\r\nimport \"../utils/math/Math.sol\";\r\n\r\ncontract MathMock {\r\n    function max(uint256 a, uint256 b) public pure returns (uint256) {\r\n        return Math.max(a, b);\r\n    }\r\n\r\n    function min(uint256 a, uint256 b) public pure returns (uint256) {\r\n        return Math.min(a, b);\r\n    }\r\n\r\n    function average(uint256 a, uint256 b) public pure returns (uint256) {\r\n        return Math.average(a, b);\r\n    }\r\n\r\n    function ceilDiv(uint256 a, uint256 b) public pure returns (uint256) {\r\n        return Math.ceilDiv(a, b);\r\n    }\r\n}\r\n",
  "sourcePath": "/home/a/Desktop/pre/contracts/openzeppelin-contracts-master/contracts/mocks/MathMock.sol",
  "compiler": {
    "name": "solc",
    "version": "0.8.10+commit.fc410830.Emscripten.clang"
  },
  "schemaVersion": "3.4.3",
  "updatedAt": "2021-12-13T12:22:06.982Z",
  "devdoc": {
    "kind": "dev",
    "methods": {},
    "version": 1
  },
  "userdoc": {
    "kind": "user",
    "methods": {},
    "version": 1
  }
}