{
  "contractName": "SafeERC20Wrapper",
  "abi": [
    {
      "inputs": [
        {
          "internalType": "contract IERC20",
          "name": "token",
          "type": "address"
        }
      ],
      "stateMutability": "nonpayable",
      "type": "constructor"
    },
    {
      "inputs": [],
      "name": "transfer",
      "outputs": [],
      "stateMutability": "nonpayable",
      "type": "function"
    },
    {
      "inputs": [],
      "name": "transferFrom",
      "outputs": [],
      "stateMutability": "nonpayable",
      "type": "function"
    },
    {
      "inputs": [
        {
          "internalType": "uint256",
          "name": "amount",
          "type": "uint256"
        }
      ],
      "name": "approve",
      "outputs": [],
      "stateMutability": "nonpayable",
      "type": "function"
    },
    {
      "inputs": [
        {
          "internalType": "uint256",
          "name": "amount",
          "type": "uint256"
        }
      ],
      "name": "increaseAllowance",
      "outputs": [],
      "stateMutability": "nonpayable",
      "type": "function"
    },
    {
      "inputs": [
        {
          "internalType": "uint256",
          "name": "amount",
          "type": "uint256"
        }
      ],
      "name": "decreaseAllowance",
      "outputs": [],
      "stateMutability": "nonpayable",
      "type": "function"
    },
    {
      "inputs": [
        {
          "internalType": "uint256",
          "name": "allowance_",
          "type": "uint256"
        }
      ],
      "name": "setAllowance",
      "outputs": [],
      "stateMutability": "nonpayable",
      "type": "function"
    },
    {
      "inputs": [],
      "name": "allowance",
      "outputs": [
        {
          "internalType": "uint256",
          "name": "",
          "type": "uint256"
        }
      ],
      "stateMutability": "view",
      "type": "function"
    }
  ],
  "bytecode": "0x60806040523480156200001157600080fd5b50604051620012dc380380620012dc8339818101604052810190620000379190620000fc565b806000806101000a81548173ffffffffffffffffffffffffffffffffffffffff021916908373ffffffffffffffffffffffffffffffffffffffff160217905550506200012e565b600080fd5b600073ffffffffffffffffffffffffffffffffffffffff82169050919050565b6000620000b08262000083565b9050919050565b6000620000c482620000a3565b9050919050565b620000d681620000b7565b8114620000e257600080fd5b50565b600081519050620000f681620000cb565b92915050565b6000602082840312156200011557620001146200007e565b5b60006200012584828501620000e5565b91505092915050565b61119e806200013e6000396000f3fe608060405234801561001057600080fd5b506004361061007d5760003560e01c8063811c34d31161005b578063811c34d3146100d65780638a4068dd146100e0578063b759f954146100ea578063de242ff4146101065761007d565b806310bad4cf1461008257806311e330b21461009e5780633ba93f26146100ba575b600080fd5b61009c60048036038101906100979190610b4e565b610124565b005b6100b860048036038101906100b39190610b4e565b610173565b005b6100d460048036038101906100cf9190610b4e565b6101c2565b005b6100de610250565b005b6100e86102a2565b005b61010460048036038101906100ff9190610b4e565b6102f0565b005b61010e61033f565b60405161011b9190610b8a565b60405180910390f35b61017060008260008054906101000a900473ffffffffffffffffffffffffffffffffffffffff1673ffffffffffffffffffffffffffffffffffffffff166103e49092919063ffffffff16565b50565b6101bf60008260008054906101000a900473ffffffffffffffffffffffffffffffffffffffff1673ffffffffffffffffffffffffffffffffffffffff166105369092919063ffffffff16565b50565b60008054906101000a900473ffffffffffffffffffffffffffffffffffffffff1673ffffffffffffffffffffffffffffffffffffffff16633ba93f26826040518263ffffffff1660e01b815260040161021b9190610b8a565b600060405180830381600087803b15801561023557600080fd5b505af1158015610249573d6000803e3d6000fd5b5050505050565b6102a060008060008060009054906101000a900473ffffffffffffffffffffffffffffffffffffffff1673ffffffffffffffffffffffffffffffffffffffff16610648909392919063ffffffff16565b565b6102ee60008060008054906101000a900473ffffffffffffffffffffffffffffffffffffffff1673ffffffffffffffffffffffffffffffffffffffff166106d19092919063ffffffff16565b565b61033c60008260008054906101000a900473ffffffffffffffffffffffffffffffffffffffff1673ffffffffffffffffffffffffffffffffffffffff166107579092919063ffffffff16565b50565b60008060009054906101000a900473ffffffffffffffffffffffffffffffffffffffff1673ffffffffffffffffffffffffffffffffffffffff1663dd62ed3e6000806040518363ffffffff1660e01b815260040161039e929190610be6565b602060405180830381865afa1580156103bb573d6000803e3d6000fd5b505050506040513d601f19601f820116820180604052508101906103df9190610c24565b905090565b60008373ffffffffffffffffffffffffffffffffffffffff1663dd62ed3e30856040518363ffffffff1660e01b8152600401610421929190610be6565b602060405180830381865afa15801561043e573d6000803e3d6000fd5b505050506040513d601f19601f820116820180604052508101906104629190610c24565b9050818110156104a7576040517f08c379a000000000000000000000000000000000000000000000000000000000815260040161049e90610cd4565b60405180910390fd5b6000828203905061052f8563095ea7b360e01b86846040516024016104cd929190610cf4565b604051602081830303815290604052907bffffffffffffffffffffffffffffffffffffffffffffffffffffffff19166020820180517bffffffffffffffffffffffffffffffffffffffffffffffffffffffff83818316178352505050506108a6565b5050505050565b6000818473ffffffffffffffffffffffffffffffffffffffff1663dd62ed3e30866040518363ffffffff1660e01b8152600401610574929190610be6565b602060405180830381865afa158015610591573d6000803e3d6000fd5b505050506040513d601f19601f820116820180604052508101906105b59190610c24565b6105bf9190610d4c565b90506106428463095ea7b360e01b85846040516024016105e0929190610cf4565b604051602081830303815290604052907bffffffffffffffffffffffffffffffffffffffffffffffffffffffff19166020820180517bffffffffffffffffffffffffffffffffffffffffffffffffffffffff83818316178352505050506108a6565b50505050565b6106cb846323b872dd60e01b85858560405160240161066993929190610da2565b604051602081830303815290604052907bffffffffffffffffffffffffffffffffffffffffffffffffffffffff19166020820180517bffffffffffffffffffffffffffffffffffffffffffffffffffffffff83818316178352505050506108a6565b50505050565b6107528363a9059cbb60e01b84846040516024016106f0929190610cf4565b604051602081830303815290604052907bffffffffffffffffffffffffffffffffffffffffffffffffffffffff19166020820180517bffffffffffffffffffffffffffffffffffffffffffffffffffffffff83818316178352505050506108a6565b505050565b60008114806107e1575060008373ffffffffffffffffffffffffffffffffffffffff1663dd62ed3e30856040518363ffffffff1660e01b815260040161079e929190610be6565b602060405180830381865afa1580156107bb573d6000803e3d6000fd5b505050506040513d601f19601f820116820180604052508101906107df9190610c24565b145b610820576040517f08c379a000000000000000000000000000000000000000000000000000000000815260040161081790610e4b565b60405180910390fd5b6108a18363095ea7b360e01b848460405160240161083f929190610cf4565b604051602081830303815290604052907bffffffffffffffffffffffffffffffffffffffffffffffffffffffff19166020820180517bffffffffffffffffffffffffffffffffffffffffffffffffffffffff83818316178352505050506108a6565b505050565b6000610908826040518060400160405280602081526020017f5361666545524332303a206c6f772d6c6576656c2063616c6c206661696c65648152508573ffffffffffffffffffffffffffffffffffffffff1661096d9092919063ffffffff16565b905060008151111561096857808060200190518101906109289190610ea3565b610967576040517f08c379a000000000000000000000000000000000000000000000000000000000815260040161095e90610f42565b60405180910390fd5b5b505050565b606061097c8484600085610985565b90509392505050565b6060824710156109ca576040517f08c379a00000000000000000000000000000000000000000000000000000000081526004016109c190610fd4565b60405180910390fd5b6109d385610a99565b610a12576040517f08c379a0000000000000000000000000000000000000000000000000000000008152600401610a0990611040565b60405180910390fd5b6000808673ffffffffffffffffffffffffffffffffffffffff168587604051610a3b91906110da565b60006040518083038185875af1925050503d8060008114610a78576040519150601f19603f3d011682016040523d82523d6000602084013e610a7d565b606091505b5091509150610a8d828286610aac565b92505050949350505050565b600080823b905060008111915050919050565b60608315610abc57829050610b0c565b600083511115610acf5782518084602001fd5b816040517f08c379a0000000000000000000000000000000000000000000000000000000008152600401610b039190611146565b60405180910390fd5b9392505050565b600080fd5b6000819050919050565b610b2b81610b18565b8114610b3657600080fd5b50565b600081359050610b4881610b22565b92915050565b600060208284031215610b6457610b63610b13565b5b6000610b7284828501610b39565b91505092915050565b610b8481610b18565b82525050565b6000602082019050610b9f6000830184610b7b565b92915050565b600073ffffffffffffffffffffffffffffffffffffffff82169050919050565b6000610bd082610ba5565b9050919050565b610be081610bc5565b82525050565b6000604082019050610bfb6000830185610bd7565b610c086020830184610bd7565b9392505050565b600081519050610c1e81610b22565b92915050565b600060208284031215610c3a57610c39610b13565b5b6000610c4884828501610c0f565b91505092915050565b600082825260208201905092915050565b7f5361666545524332303a2064656372656173656420616c6c6f77616e6365206260008201527f656c6f77207a65726f0000000000000000000000000000000000000000000000602082015250565b6000610cbe602983610c51565b9150610cc982610c62565b604082019050919050565b60006020820190508181036000830152610ced81610cb1565b9050919050565b6000604082019050610d096000830185610bd7565b610d166020830184610b7b565b9392505050565b7f4e487b7100000000000000000000000000000000000000000000000000000000600052601160045260246000fd5b6000610d5782610b18565b9150610d6283610b18565b9250827fffffffffffffffffffffffffffffffffffffffffffffffffffffffffffffffff03821115610d9757610d96610d1d565b5b828201905092915050565b6000606082019050610db76000830186610bd7565b610dc46020830185610bd7565b610dd16040830184610b7b565b949350505050565b7f5361666545524332303a20617070726f76652066726f6d206e6f6e2d7a65726f60008201527f20746f206e6f6e2d7a65726f20616c6c6f77616e636500000000000000000000602082015250565b6000610e35603683610c51565b9150610e4082610dd9565b604082019050919050565b60006020820190508181036000830152610e6481610e28565b9050919050565b60008115159050919050565b610e8081610e6b565b8114610e8b57600080fd5b50565b600081519050610e9d81610e77565b92915050565b600060208284031215610eb957610eb8610b13565b5b6000610ec784828501610e8e565b91505092915050565b7f5361666545524332303a204552433230206f7065726174696f6e20646964206e60008201527f6f74207375636365656400000000000000000000000000000000000000000000602082015250565b6000610f2c602a83610c51565b9150610f3782610ed0565b604082019050919050565b60006020820190508181036000830152610f5b81610f1f565b9050919050565b7f416464726573733a20696e73756666696369656e742062616c616e636520666f60008201527f722063616c6c0000000000000000000000000000000000000000000000000000602082015250565b6000610fbe602683610c51565b9150610fc982610f62565b604082019050919050565b60006020820190508181036000830152610fed81610fb1565b9050919050565b7f416464726573733a2063616c6c20746f206e6f6e2d636f6e7472616374000000600082015250565b600061102a601d83610c51565b915061103582610ff4565b602082019050919050565b600060208201905081810360008301526110598161101d565b9050919050565b600081519050919050565b600081905092915050565b60005b83811015611094578082015181840152602081019050611079565b838111156110a3576000848401525b50505050565b60006110b482611060565b6110be818561106b565b93506110ce818560208601611076565b80840191505092915050565b60006110e682846110a9565b915081905092915050565b600081519050919050565b6000601f19601f8301169050919050565b6000611118826110f1565b6111228185610c51565b9350611132818560208601611076565b61113b816110fc565b840191505092915050565b60006020820190508181036000830152611160818461110d565b90509291505056fea26469706673582212206d9d175c10dee5bd9a92fe4bb90d0a185e5d5314f0774cdb42679c5c84a7f3e364736f6c634300080a0033",
  "immutableReferences": {},
  "source": "// SPDX-License-Identifier: MIT\r\n\r\npragma solidity ^0.8.0;\r\n\r\nimport \"../utils/Context.sol\";\r\nimport \"../token/ERC20/IERC20.sol\";\r\nimport \"../token/ERC20/utils/SafeERC20.sol\";\r\n\r\ncontract ERC20ReturnFalseMock is Context {\r\n    uint256 private _allowance;\r\n\r\n    // IERC20's functions are not pure, but these mock implementations are: to prevent Solidity from issuing warnings,\r\n    // we write to a dummy state variable.\r\n    uint256 private _dummy;\r\n\r\n    function transfer(address, uint256) public returns (bool) {\r\n        _dummy = 0;\r\n        return false;\r\n    }\r\n\r\n    function transferFrom(\r\n        address,\r\n        address,\r\n        uint256\r\n    ) public returns (bool) {\r\n        _dummy = 0;\r\n        return false;\r\n    }\r\n\r\n    function approve(address, uint256) public returns (bool) {\r\n        _dummy = 0;\r\n        return false;\r\n    }\r\n\r\n    function allowance(address, address) public view returns (uint256) {\r\n        require(_dummy == 0); // Duummy read from a state variable so that the function is view\r\n        return 0;\r\n    }\r\n}\r\n\r\ncontract ERC20ReturnTrueMock is Context {\r\n    mapping(address => uint256) private _allowances;\r\n\r\n    // IERC20's functions are not pure, but these mock implementations are: to prevent Solidity from issuing warnings,\r\n    // we write to a dummy state variable.\r\n    uint256 private _dummy;\r\n\r\n    function transfer(address, uint256) public returns (bool) {\r\n        _dummy = 0;\r\n        return true;\r\n    }\r\n\r\n    function transferFrom(\r\n        address,\r\n        address,\r\n        uint256\r\n    ) public returns (bool) {\r\n        _dummy = 0;\r\n        return true;\r\n    }\r\n\r\n    function approve(address, uint256) public returns (bool) {\r\n        _dummy = 0;\r\n        return true;\r\n    }\r\n\r\n    function setAllowance(uint256 allowance_) public {\r\n        _allowances[_msgSender()] = allowance_;\r\n    }\r\n\r\n    function allowance(address owner, address) public view returns (uint256) {\r\n        return _allowances[owner];\r\n    }\r\n}\r\n\r\ncontract ERC20NoReturnMock is Context {\r\n    mapping(address => uint256) private _allowances;\r\n\r\n    // IERC20's functions are not pure, but these mock implementations are: to prevent Solidity from issuing warnings,\r\n    // we write to a dummy state variable.\r\n    uint256 private _dummy;\r\n\r\n    function transfer(address, uint256) public {\r\n        _dummy = 0;\r\n    }\r\n\r\n    function transferFrom(\r\n        address,\r\n        address,\r\n        uint256\r\n    ) public {\r\n        _dummy = 0;\r\n    }\r\n\r\n    function approve(address, uint256) public {\r\n        _dummy = 0;\r\n    }\r\n\r\n    function setAllowance(uint256 allowance_) public {\r\n        _allowances[_msgSender()] = allowance_;\r\n    }\r\n\r\n    function allowance(address owner, address) public view returns (uint256) {\r\n        return _allowances[owner];\r\n    }\r\n}\r\n\r\ncontract SafeERC20Wrapper is Context {\r\n    using SafeERC20 for IERC20;\r\n\r\n    IERC20 private _token;\r\n\r\n    constructor(IERC20 token) {\r\n        _token = token;\r\n    }\r\n\r\n    function transfer() public {\r\n        _token.safeTransfer(address(0), 0);\r\n    }\r\n\r\n    function transferFrom() public {\r\n        _token.safeTransferFrom(address(0), address(0), 0);\r\n    }\r\n\r\n    function approve(uint256 amount) public {\r\n        _token.safeApprove(address(0), amount);\r\n    }\r\n\r\n    function increaseAllowance(uint256 amount) public {\r\n        _token.safeIncreaseAllowance(address(0), amount);\r\n    }\r\n\r\n    function decreaseAllowance(uint256 amount) public {\r\n        _token.safeDecreaseAllowance(address(0), amount);\r\n    }\r\n\r\n    function setAllowance(uint256 allowance_) public {\r\n        ERC20ReturnTrueMock(address(_token)).setAllowance(allowance_);\r\n    }\r\n\r\n    function allowance() public view returns (uint256) {\r\n        return _token.allowance(address(0), address(0));\r\n    }\r\n}\r\n",
  "sourcePath": "/home/a/Desktop/pre/contracts/openzeppelin-contracts-master/contracts/mocks/SafeERC20Helper.sol",
  "compiler": {
    "name": "solc",
    "version": "0.8.10+commit.fc410830.Emscripten.clang"
  },
  "schemaVersion": "3.4.3",
  "updatedAt": "2021-12-13T12:22:07.078Z",
  "devdoc": {
    "kind": "dev",
    "methods": {},
    "version": 1
  },
  "userdoc": {
    "kind": "user",
    "methods": {},
    "version": 1
  }
}