{
  "contractName": "SampleMother",
  "abi": [
    {
      "inputs": [],
      "name": "isHuman",
      "outputs": [
        {
          "internalType": "bool",
          "name": "",
          "type": "bool"
        }
      ],
      "stateMutability": "view",
      "type": "function"
    },
    {
      "inputs": [],
      "name": "mother",
      "outputs": [
        {
          "internalType": "uint256",
          "name": "",
          "type": "uint256"
        }
      ],
      "stateMutability": "view",
      "type": "function"
    },
    {
      "inputs": [],
      "name": "initialize",
      "outputs": [],
      "stateMutability": "nonpayable",
      "type": "function"
    },
    {
      "inputs": [
        {
          "internalType": "uint256",
          "name": "value",
          "type": "uint256"
        }
      ],
      "name": "initialize",
      "outputs": [],
      "stateMutability": "nonpayable",
      "type": "function"
    }
  ],
  "bytecode": "0x608060405234801561001057600080fd5b5061044a806100206000396000f3fe608060405234801561001057600080fd5b506004361061004c5760003560e01c80634a6c9db6146100515780638129fc1c1461006f578063ed7dfee314610079578063fe4b84df14610097575b600080fd5b6100596100b3565b60405161006691906102c4565b60405180910390f35b6100776100c6565b005b6100816101ba565b60405161008e91906102f8565b60405180910390f35b6100b160048036038101906100ac9190610344565b6101c0565b005b600060029054906101000a900460ff1681565b600060019054906101000a900460ff16806100ec575060008054906101000a900460ff16155b61012b576040517f08c379a0000000000000000000000000000000000000000000000000000000008152600401610122906103f4565b60405180910390fd5b60008060019054906101000a900460ff16159050801561017b576001600060016101000a81548160ff02191690831515021790555060016000806101000a81548160ff0219169083151502179055505b6001600060026101000a81548160ff02191690831515021790555080156101b75760008060016101000a81548160ff0219169083151502179055505b50565b60015481565b600060019054906101000a900460ff16806101e6575060008054906101000a900460ff16155b610225576040517f08c379a000000000000000000000000000000000000000000000000000000000815260040161021c906103f4565b60405180910390fd5b60008060019054906101000a900460ff161590508015610275576001600060016101000a81548160ff02191690831515021790555060016000806101000a81548160ff0219169083151502179055505b61027d6100c6565b8160018190555080156102a55760008060016101000a81548160ff0219169083151502179055505b5050565b60008115159050919050565b6102be816102a9565b82525050565b60006020820190506102d960008301846102b5565b92915050565b6000819050919050565b6102f2816102df565b82525050565b600060208201905061030d60008301846102e9565b92915050565b600080fd5b610321816102df565b811461032c57600080fd5b50565b60008135905061033e81610318565b92915050565b60006020828403121561035a57610359610313565b5b60006103688482850161032f565b91505092915050565b600082825260208201905092915050565b7f496e697469616c697a61626c653a20636f6e747261637420697320616c72656160008201527f647920696e697469616c697a6564000000000000000000000000000000000000602082015250565b60006103de602e83610371565b91506103e982610382565b604082019050919050565b6000602082019050818103600083015261040d816103d1565b905091905056fea26469706673582212202f50580284ad35dac9e7cabcdc538bf3b5a030e0ca9fa346ef46e796a9b7519a64736f6c634300080a0033",
  "immutableReferences": {},
  "source": "// SPDX-License-Identifier: MIT\r\n\r\npragma solidity ^0.8.0;\r\n\r\nimport \"../proxy/utils/Initializable.sol\";\r\n\r\n// Sample contracts showing upgradeability with multiple inheritance.\r\n// Child contract inherits from Father and Mother contracts, and Father extends from Gramps.\r\n//\r\n//         Human\r\n//       /       \\\r\n//      |       Gramps\r\n//      |         |\r\n//    Mother    Father\r\n//      |         |\r\n//      -- Child --\r\n\r\n/**\r\n * Sample base intializable contract that is a human\r\n */\r\ncontract SampleHuman is Initializable {\r\n    bool public isHuman;\r\n\r\n    function initialize() public initializer {\r\n        isHuman = true;\r\n    }\r\n}\r\n\r\n/**\r\n * Sample base intializable contract that defines a field mother\r\n */\r\ncontract SampleMother is Initializable, SampleHuman {\r\n    uint256 public mother;\r\n\r\n    function initialize(uint256 value) public virtual initializer {\r\n        SampleHuman.initialize();\r\n        mother = value;\r\n    }\r\n}\r\n\r\n/**\r\n * Sample base intializable contract that defines a field gramps\r\n */\r\ncontract SampleGramps is Initializable, SampleHuman {\r\n    string public gramps;\r\n\r\n    function initialize(string memory value) public virtual initializer {\r\n        SampleHuman.initialize();\r\n        gramps = value;\r\n    }\r\n}\r\n\r\n/**\r\n * Sample base intializable contract that defines a field father and extends from gramps\r\n */\r\ncontract SampleFather is Initializable, SampleGramps {\r\n    uint256 public father;\r\n\r\n    function initialize(string memory _gramps, uint256 _father) public initializer {\r\n        SampleGramps.initialize(_gramps);\r\n        father = _father;\r\n    }\r\n}\r\n\r\n/**\r\n * Child extends from mother, father (gramps)\r\n */\r\ncontract SampleChild is Initializable, SampleMother, SampleFather {\r\n    uint256 public child;\r\n\r\n    function initialize(\r\n        uint256 _mother,\r\n        string memory _gramps,\r\n        uint256 _father,\r\n        uint256 _child\r\n    ) public initializer {\r\n        SampleMother.initialize(_mother);\r\n        SampleFather.initialize(_gramps, _father);\r\n        child = _child;\r\n    }\r\n}\r\n",
  "sourcePath": "/home/a/Desktop/pre/contracts/openzeppelin-contracts-master/contracts/mocks/MultipleInheritanceInitializableMocks.sol",
  "compiler": {
    "name": "solc",
    "version": "0.8.10+commit.fc410830.Emscripten.clang"
  },
  "schemaVersion": "3.4.3",
  "updatedAt": "2021-12-13T12:22:07.022Z",
  "devdoc": {
    "kind": "dev",
    "methods": {},
    "version": 1
  },
  "userdoc": {
    "kind": "user",
    "methods": {},
    "notice": "Sample base intializable contract that defines a field mother",
    "version": 1
  }
}