{
  "contractName": "SignatureCheckerMock",
  "abi": [
    {
      "inputs": [
        {
          "internalType": "address",
          "name": "signer",
          "type": "address"
        },
        {
          "internalType": "bytes32",
          "name": "hash",
          "type": "bytes32"
        },
        {
          "internalType": "bytes",
          "name": "signature",
          "type": "bytes"
        }
      ],
      "name": "isValidSignatureNow",
      "outputs": [
        {
          "internalType": "bool",
          "name": "",
          "type": "bool"
        }
      ],
      "stateMutability": "view",
      "type": "function"
    }
  ],
  "bytecode": "0x608060405234801561001057600080fd5b50610ad4806100206000396000f3fe608060405234801561001057600080fd5b506004361061002b5760003560e01c80636ccea65214610030575b600080fd5b61004a6004803603810190610045919061063f565b610060565b60405161005791906106c9565b60405180910390f35b600061008d83838673ffffffffffffffffffffffffffffffffffffffff166100969092919063ffffffff16565b90509392505050565b60006100a1846101ba565b15610178578373ffffffffffffffffffffffffffffffffffffffff16631626ba7e84846040518363ffffffff1660e01b81526004016100e192919061077b565b602060405180830381865afa92505050801561011b57506040513d601f19601f820116820180604052508101906101189190610803565b60015b61012857600090506101b3565b631626ba7e60e01b7bffffffffffffffffffffffffffffffffffffffffffffffffffffffff1916817bffffffffffffffffffffffffffffffffffffffffffffffffffffffff1916149150506101b3565b8373ffffffffffffffffffffffffffffffffffffffff1661019984846101cd565b73ffffffffffffffffffffffffffffffffffffffff161490505b9392505050565b600080823b905060008111915050919050565b600060418251141561020c5760008060006020850151925060408501519150606085015160001a90506102028682858561027c565b9350505050610276565b60408251141561023b576000806020840151915060408401519050610232858383610407565b92505050610276565b6040517f08c379a000000000000000000000000000000000000000000000000000000000815260040161026d9061088d565b60405180910390fd5b92915050565b60007f7fffffffffffffffffffffffffffffff5d576e7357a4501ddfe92f46681b20a08260001c11156102e4576040517f08c379a00000000000000000000000000000000000000000000000000000000081526004016102db9061091f565b60405180910390fd5b601b8460ff1614806102f95750601c8460ff16145b610338576040517f08c379a000000000000000000000000000000000000000000000000000000000815260040161032f906109b1565b60405180910390fd5b60006001868686866040516000815260200160405260405161035d94939291906109ed565b6020604051602081039080840390855afa15801561037f573d6000803e3d6000fd5b505050602060405103519050600073ffffffffffffffffffffffffffffffffffffffff168173ffffffffffffffffffffffffffffffffffffffff1614156103fb576040517f08c379a00000000000000000000000000000000000000000000000000000000081526004016103f290610a7e565b60405180910390fd5b80915050949350505050565b60008060007f7fffffffffffffffffffffffffffffffffffffffffffffffffffffffffffffff84169150601b8460ff1c0190506104468682878561027c565b925050509392505050565b6000604051905090565b600080fd5b600080fd5b600073ffffffffffffffffffffffffffffffffffffffff82169050919050565b600061049082610465565b9050919050565b6104a081610485565b81146104ab57600080fd5b50565b6000813590506104bd81610497565b92915050565b6000819050919050565b6104d6816104c3565b81146104e157600080fd5b50565b6000813590506104f3816104cd565b92915050565b600080fd5b600080fd5b6000601f19601f8301169050919050565b7f4e487b7100000000000000000000000000000000000000000000000000000000600052604160045260246000fd5b61054c82610503565b810181811067ffffffffffffffff8211171561056b5761056a610514565b5b80604052505050565b600061057e610451565b905061058a8282610543565b919050565b600067ffffffffffffffff8211156105aa576105a9610514565b5b6105b382610503565b9050602081019050919050565b82818337600083830152505050565b60006105e26105dd8461058f565b610574565b9050828152602081018484840111156105fe576105fd6104fe565b5b6106098482856105c0565b509392505050565b600082601f830112610626576106256104f9565b5b81356106368482602086016105cf565b91505092915050565b6000806000606084860312156106585761065761045b565b5b6000610666868287016104ae565b9350506020610677868287016104e4565b925050604084013567ffffffffffffffff81111561069857610697610460565b5b6106a486828701610611565b9150509250925092565b60008115159050919050565b6106c3816106ae565b82525050565b60006020820190506106de60008301846106ba565b92915050565b6106ed816104c3565b82525050565b600081519050919050565b600082825260208201905092915050565b60005b8381101561072d578082015181840152602081019050610712565b8381111561073c576000848401525b50505050565b600061074d826106f3565b61075781856106fe565b935061076781856020860161070f565b61077081610503565b840191505092915050565b600060408201905061079060008301856106e4565b81810360208301526107a28184610742565b90509392505050565b60007fffffffff0000000000000000000000000000000000000000000000000000000082169050919050565b6107e0816107ab565b81146107eb57600080fd5b50565b6000815190506107fd816107d7565b92915050565b6000602082840312156108195761081861045b565b5b6000610827848285016107ee565b91505092915050565b600082825260208201905092915050565b7f45434453413a20696e76616c6964207369676e6174757265206c656e67746800600082015250565b6000610877601f83610830565b915061088282610841565b602082019050919050565b600060208201905081810360008301526108a68161086a565b9050919050565b7f45434453413a20696e76616c6964207369676e6174757265202773272076616c60008201527f7565000000000000000000000000000000000000000000000000000000000000602082015250565b6000610909602283610830565b9150610914826108ad565b604082019050919050565b60006020820190508181036000830152610938816108fc565b9050919050565b7f45434453413a20696e76616c6964207369676e6174757265202776272076616c60008201527f7565000000000000000000000000000000000000000000000000000000000000602082015250565b600061099b602283610830565b91506109a68261093f565b604082019050919050565b600060208201905081810360008301526109ca8161098e565b9050919050565b600060ff82169050919050565b6109e7816109d1565b82525050565b6000608082019050610a0260008301876106e4565b610a0f60208301866109de565b610a1c60408301856106e4565b610a2960608301846106e4565b95945050505050565b7f45434453413a20696e76616c6964207369676e61747572650000000000000000600082015250565b6000610a68601883610830565b9150610a7382610a32565b602082019050919050565b60006020820190508181036000830152610a9781610a5b565b905091905056fea26469706673582212203bf702b80ca6ad4c787022793ac5a6ba83fe7be88914d05c73544374b99fe70664736f6c634300080a0033",
  "immutableReferences": {},
  "source": "// SPDX-License-Identifier: MIT\r\n\r\npragma solidity ^0.8.0;\r\n\r\nimport \"../utils/cryptography/SignatureChecker.sol\";\r\n\r\ncontract SignatureCheckerMock {\r\n    using SignatureChecker for address;\r\n\r\n    function isValidSignatureNow(\r\n        address signer,\r\n        bytes32 hash,\r\n        bytes memory signature\r\n    ) public view returns (bool) {\r\n        return signer.isValidSignatureNow(hash, signature);\r\n    }\r\n}\r\n",
  "sourcePath": "/home/a/Desktop/pre/contracts/openzeppelin-contracts-master/contracts/mocks/SignatureCheckerMock.sol",
  "compiler": {
    "name": "solc",
    "version": "0.8.10+commit.fc410830.Emscripten.clang"
  },
  "schemaVersion": "3.4.3",
  "updatedAt": "2021-12-13T12:22:07.100Z",
  "devdoc": {
    "kind": "dev",
    "methods": {},
    "version": 1
  },
  "userdoc": {
    "kind": "user",
    "methods": {},
    "version": 1
  }
}